:10000000C0780020DDA70000756E0100B1A70000D8
:10001000B1A70000B1A70000B1A7000000000000D8
:10002000000000000000000000000000359F0000FC
:10003000B1A7000000000000DD9E0000B1A7000095
:10004000E99F0000E99F0000E99F0000E99F000090
:10005000E99F0000E99F0000E99F0000E99F000080
:10006000E99F0000E99F0000E99F0000E99F000070
:10007000E99F0000E99F0000E99F0000E99F000060
:10008000E99F0000E99F0000E99F0000E99F000050
:10009000E99F0000E99F0000E99F0000E99F000040
:1000A000E99F0000E99F0000E99F0000E99F000030
:1000B000E99F0000E99F0000E99F0000E99F000020
:1000C000E99F0000E99F0000E99F0000E99F000010
:1000D000E99F0000E99F0000E99F0000E99F000000
:1000E000E99F0000E99F0000E99F0000E99F0000F0
:1000F000E99F0000E99F0000E99F0000E99F0000E0
:1001000001F0FF01102A2BDB10F0070F08D010F8C8
:10011000013B013A8B422DD010F0070F42B3F6D1CC
:10012000F0B441EA012141EA014122F007047FF0E5
:1001300000070023F0E80256083C85EA010586EA3C
:10014000010685FA47F5A3FA87F586FA47F6A5FA78
:1001500087F68EB9EED1F0BC01F0FF0102F0070284
:1001600032B110F8013B013A83EA010313B1F8D12F
:100170000020704701387047002D06BF3546033810
:10018000073815F0010F07D1013015F4807F02BF49
:10019000013015F4C03F0130F0BC0138704700BF9A
:1001A00081F0004102E000BF83F0004330B54FEA28
:1001B00041044FEA430594EA050F08BF90EA020F95
:1001C0001FBF54EA000C55EA020C7FEA645C7FEA28
:1001D000655C00F0E2804FEA5454D4EB5555B8BF4B
:1001E0006D420CDD2C4480EA020281EA030382EABC
:1001F000000083EA010180EA020281EA0303362D4E
:1002000088BF30BD11F0004F4FEA01314FF4801C20
:100210004CEA113102D0404261EB410113F0004F32
:100220004FEA03334CEA133302D0524263EB4303E9
:1002300094EA050F00F0A780A4F10104D5F1200E87
:100240000DDB02FA0EFC22FA05F2801841F10001E2
:1002500003FA0EF2801843FA05F359410EE0A5F1B6
:1002600020050EF1200E012A03FA0EFC28BF4CF0E7
:10027000020C43FA05F3C01851EBE37101F000459D
:1002800007D54FF0000EDCF1000C7EEB00006EEBAA
:100290000101B1F5801F1BD3B1F5001F0CD3490834
:1002A0005FEA30004FEA3C0C04F101044FEA44528B
:1002B00012F5800F80F09A80BCF1004F08BF5FEA12
:1002C000500C50F1000041EB045141EA050130BDF2
:1002D0005FEA4C0C404141EB0101013C28BFB1F504
:1002E000801FE9D291F0000F04BF01460020B1FA4F
:1002F00081F308BF2033A3F10B03B3F120020CDA22
:100300000C3208DD02F1140CC2F10C0201FA0CF0FF
:1003100021FA02F10CE002F11402D8BFC2F1200C64
:1003200001FA02F120FA0CFCDCBF41EA0C0190401A
:10033000E41AA2BF01EB0451294330BD6FEA040463
:100340001F3C1CDA0C340EDC04F11404C4F120024E
:1003500020FA04F001FA02F340EA030021FA04F360
:1003600045EA030130BDC4F10C04C4F1200220FAB7
:1003700002F001FA04F340EA0300294630BD21FAF5
:1003800004F0294630BD94F0000F83F4801306BFBB
:1003900081F480110134013D4EE77FEA645C18BFAF
:1003A0007FEA655C29D094EA050F08BF90EA020F46
:1003B00005D054EA000C04BF1946104630BD91EA3E
:1003C000030F1EBF0021002030BD5FEA545C05D141
:1003D0004000494128BF41F0004130BD14F5800480
:1003E0003CBF01F5801130BD01F0004545F0FE41F4
:1003F00041F470014FF0000030BD7FEA645C1ABF29
:10040000194610467FEA655C1CBF0B46024650EA5F
:10041000013406BF52EA033591EA030F41F400218B
:1004200030BD00BF90F0000F04BF0021704730B511
:100430004FF4806404F132044FF000054FF00001E6
:1004400050E700BF90F0000F04BF0021704730B5A7
:100450004FF4806404F1320410F0004548BF40427C
:100460004FF000013EE700BF42004FEAE2014FEAD1
:1004700031014FEA02701FBF12F07F4393F07F4FAC
:1004800081F06051704732F07F4208BF704793F0AF
:100490007F4F04BF41F40021704730B54FF46074C2
:1004A00001F0004521F000411CE700BF50EA0102C5
:1004B00008BF704730B54FF000050AE050EA01026E
:1004C00008BF704730B511F0004502D5404261EBDE
:1004D00041014FF4806404F132045FEA915C3FF41F
:1004E000D8AE4FF003025FEADC0C18BF03325FEABC
:1004F000DC0C18BF033202EBDC02C2F1200300FA6D
:1005000003FC20FA02F001FA03FE40EA0E0021FA91
:1005100002F11444BDE600BF70B54FF0FF0C4CF47F
:10052000E06C1CEA11541DBF1CEA135594EA0C0F31
:1005300095EA0C0F00F0DEF82C4481EA030621EA6C
:100540004C5123EA4C5350EA013518BF52EA0335A7
:1005500041F4801143F4801338D0A0FB02CE4FF059
:100560000005E1FB02E506F00042E0FB03E54FF089
:100570000006E1FB03569CF0000F18BF4EF0010E81
:10058000A4F1FF04B6F5007F64F5407404D25FEA7D
:100590004E0E6D4146EB060642EAC62141EA555130
:1005A0004FEAC52040EA5E504FEACE2EB4F1FD0C72
:1005B00088BFBCF5E06F1ED8BEF1004F08BF5FEAF0
:1005C000500E50F1000041EB045170BD06F00046A2
:1005D00046EA010140EA020081EA0301B4EB5C044F
:1005E000C2BFD4EB0C0541EA045170BD41F4801147
:1005F0004FF0000E013C00F3AB8014F1360FDEBF6C
:10060000002001F0004170BDC4F10004203C35DA47
:100610000C341BDC04F11404C4F1200500FA05F3CA
:1006200020FA04F001FA05F240EA020001F000426B
:1006300021F0004110EBD37021FA04F642EB0601E1
:100640005EEA430E08BF20EAD37070BDC4F10C040B
:10065000C4F1200500FA04F320FA05F001FA04F2CF
:1006600040EA020001F0004110EBD37041F10001BB
:100670005EEA430E08BF20EAD37070BDC4F12005C6
:1006800000FA05F24EEA020E20FA04F301FA05F22E
:1006900043EA020321FA04F001F0004121FA04F2D6
:1006A00020EA020000EBD3705EEA430E08BF20EAA6
:1006B000D37070BD94F0000F0FD101F000464000E0
:1006C00041EB010111F4801F08BF013CF7D041EA62
:1006D000060195F0000F18BF704703F00046520066
:1006E00043EB030313F4801F08BF013DF7D043EA37
:1006F0000603704794EA0C0F0CEA135518BF95EAED
:100700000C0F0CD050EA410618BF52EA4306D1D173
:1007100081EA030101F000414FF0000070BD50EA92
:10072000410606BF1046194652EA430619D094EA1C
:100730000C0F02D150EA013613D195EA0C0F05D106
:1007400052EA03361CBF104619460AD181EA03015A
:1007500001F0004141F0FE4141F470014FF0000012
:1007600070BD41F0FE4141F4780170BD70B54FF0AD
:10077000FF0C4CF4E06C1CEA11541DBF1CEA13552D
:1007800094EA0C0F95EA0C0F00F0A7F8A4EB05040F
:1007900081EA030E52EA03354FEA013100F0888006
:1007A0004FEA03334FF0805545EA131343EA1263CF
:1007B0004FEA022245EA111545EA10654FEA002684
:1007C0000EF000419D4208BF964244F1FD0404F53D
:1007D000407402D25B084FEA3202B61A65EB030599
:1007E0005B084FEA32024FF480104FF4002CB6EB56
:1007F000020E75EB030E22BFB61A754640EA0C00D6
:100800005B084FEA3202B6EB020E75EB030E22BF15
:10081000B61A754640EA5C005B084FEA3202B6EB56
:10082000020E75EB030E22BFB61A754640EA9C0015
:100830005B084FEA3202B6EB020E75EB030E22BFE5
:10084000B61A754640EADC0055EA060E18D04FEAA3
:10085000051545EA16754FEA06164FEAC30343EA43
:1008600052734FEAC2025FEA1C1CC0D111F4801F10
:100870000BD141EA00014FF000004FF0004CB6E709
:1008800011F4801F04BF01430020B4F1FD0C88BFA8
:10089000BCF5E06F3FF6AFAEB5EB030C04BFB6EBB3
:1008A000020C5FEA500C50F1000041EB045170BDA6
:1008B0000EF0004E4EEA113114EB5C04C2BFD4EBD3
:1008C0000C0541EA045170BD41F480114FF0000E57
:1008D000013C90E645EA060E8DE60CEA135594EAD3
:1008E0000C0F08BF95EA0C0F3FF43BAF94EA0C0FD6
:1008F0000AD150EA01347FF434AF95EA0C0F7FF44B
:1009000025AF104619462CE795EA0C0F06D152EA9E
:1009100003353FF4FDAE1046194622E750EA410682
:1009200018BF52EA43067FF4C5AE50EA41047FF493
:100930000DAF52EA43057FF4EBAE12E77BB972B913
:100940000029BEBF00204FF0004106E008BF00288C
:100950001CBF6FF000414FF0FF3000F057B8ADF111
:10096000080C6DE904CE002909DB002B1ADB00F02E
:100970004FF8DDF804E0DDE9022304B0704740429F
:1009800061EB4101002B1BDB00F042F8DDF804E0D5
:10099000DDE9022304B0404261EB4101524263EBC6
:1009A00043037047524263EB430300F031F8DDF834
:1009B00004E0DDE9022304B0404261EB41017047ED
:1009C000524263EB430300F023F8DDF804E0DDE975
:1009D000022304B0524263EB4303704753B94AB950
:1009E000002908BF00281CBF4FF0FF314FF0FF3037
:1009F00000F00CB8ADF1080C6DE904CE00F008F879
:100A0000DDF804E0DDE9022304B07047704700BF61
:100A10002DE9F04786468C460846089E15467446E2
:100A20001946002B40F0C2808542B2FA82F245D9C5
:100A30004AB1C2F1200300FA02FC2EFA03F39540FA
:100A400043EA0C0C94404FEA154EA8B2BCFBFEF8EA
:100A5000230C0EFB18CC08FB00F943EA0C43994524
:100A600028D9EB1808F1FF3704D2994502D9A8F12B
:100A700002072B44A3EB0903A4B2B3FBFEFC0EFB5D
:100A80001C330CFB00F044EA0344A04214D92C1997
:100A90000CF1FF3304D2A04202D9ACF102032C4482
:100AA000241A43EA07401EB1D44000233460736027
:100AB000BDE8F0874746DDE76346F1E792BB431B9D
:100AC00001214FEA154EAFB2B3FBFEFC200C0EFB2A
:100AD0001C330CFB07F840EA0343984562D9EB1836
:100AE0000CF1FF3004D2984502D9ACF102002B443E
:100AF000A3EB0803A4B2B3FBFEFC0EFB1C330CFB00
:100B000007F744EA0344A7424ED92C190CF1FF33EE
:100B100004D2A74202D9ACF102032C44E41B43EAFD
:100B20000040C0E7C2F1200320FA03F19540904055
:100B30002EFA03F303434FEA154EAFB2B1FBFEFCAE
:100B40000EFB1C10190C0CFB07F841EA004188450C
:100B500004FA02F422D969180CF1FF3004D2884556
:100B600002D9ACF102002944A1EB08019BB2B1FB10
:100B7000FEFC0EFB1C110CFB07F743EA01439F42EE
:100B80000ED9EB180CF1FF3104D29F4202D9ACF11F
:100B900002012B44DB1B41EA004192E76046E3E798
:100BA0006146F7E76046A3E76346B7E7834206D9A5
:100BB00016B9002108467BE7C6E900E0F9E7B3FA79
:100BC00083F78FB9834201D3724508D8BEEB020484
:100BD00060EB030301209C461EB9002168E73846FC
:100BE000FAE7C6E9004CF8E7C7F1200CBB4022FA4F
:100BF0000CF41C432EFA0CF120FA0CF3B84001431C
:100C00004FEA14490EFA07F5B3FBF9F81FFA84FE10
:100C100009FB18300B0C08FB0EFA43EA00439A4517
:100C200002FA07F240D9E31808F1FF3004D29A45DE
:100C300002D9A8F102002344A3EB0A0389B2B3FB53
:100C4000F9F809FB183308FB0EFE41EA03418E4513
:100C50002CD9611808F1FF3304D28E4502D9A8F1CE
:100C60000203214443EA0040A0FB0298A1EB0E01DD
:100C70004145CE46434602D306D14D4504D2B9EB99
:100C8000020E68EB04030138002EA6D0B5EB0E026D
:100C900061EB030101FA0CFC22FA07F34CEA0303AF
:100CA000F940C6E9003198E74046C5E74346D9E731
:100CB00010F8012B11F8013B012A28BF9A42F7D006
:100CC000D01A7047034613F8012B002AFBD1181ADB
:100CD00001387047000000002DE9F04FDFF8E0A078
:100CE000DFF8E0B089B0914698463A229DF8483046
:100CF000059304460F464846514616F0B5FB0F22B1
:100D000005465946404616F0AFFB00239D42CDE90B
:100D10000633064608DA2C4A4B460121204615F0D8
:100D2000C5FA09B0BDE8F08F002802DA274A434629
:100D3000F3E7A9B282B2BB68D3F80480B8F1000F20
:100D400015D006AB3846C047A0B110F1160F02D13E
:100D5000059B002BE5D001905BF8263000935AF8F4
:100D600025301B4A0121204615F0A0FAD9E76FF083
:100D70005700F0E70798FFF765FB0FA3D3E90023BF
:100D8000FFF7F4FC804606988946FFF75BFB0246B6
:100D90000B4640464946FFF709FACDE902015BF8E8
:100DA000263001935AF8253000933B68094A022106
:100DB000204615F07BFAB4E70000000080842E4145
:100DC000D001002094010020BDD90100D3D9010039
:100DD000EBD9010018DA0100F8B5214E00AF0FF091
:100DE00047FD336803F00703022B044630D96D46F4
:100DF00088B06A461B4B53611B4B93614FF40073E1
:100E000093831A4B42F8103F00234FF4E6513046CB
:100E100005F070FA336803F00703022BAD4617D9CB
:100E20008AB06A46124B536101239361230ED3614A
:100E3000C4F307431362C4F307240623546242F841
:100E4000103F00234FF44351304605F053FAAD46AE
:100E500000F010F801F018FA01F09CFBFCE700BF6D
:100E6000E0040020B4970100BE97010003000001D8
:100E7000D1970100F0B585B05A4D5B48A86200AF2C
:100E80000023C7E90133FB6016F07FFE60B95749C4
:100E9000574A58481C2314F079FC574814F076FC44
:100EA0001C21534814F06BFC4FF47821A86A296088
:100EB0003A1D16F0FAF9044658B14D4A4F494D48CB
:100EC000202314F063FC21464D4814F05FFC2021E0
:100ED000E7E74C4C236803F00703022B12D96E4658
:100EE00088B0BB686A464849C2E905134FF400431D
:100EF000D361042342F8103F4FF40351204614F00D
:100F000030F9B546BA683748AA814FF40043B3FBBD
:100F1000F2F3EB8104F076F950B13849344A3548A0
:100F2000282314F033FC394814F030FC2821B8E7AA
:100F3000386004232B483A46012114F09DFF2368B2
:100F4000002803F0070334DD022B0FD96D4688B06B
:100F50003B686A462E4951619361032342F8103F72
:100F600028484FF4C65114F0FCF8AD463B681D48C4
:100F700001333B603A460423012104F04DFB042871
:100F800023681FD103F00703022B0FD96C4688B0EA
:100F90003B686A461F49C2E90513032342F8103F24
:100FA0004FF4C651174814F0DCF8A5461437BD4677
:100FB000F0BD022BDAD96D4688B06A46164B5361F4
:100FC0000123C9E75B07F1D06C4688B03B686A46ED
:100FD0001249C2E90513032342F8103F4FF4C251EE
:100FE000E0E700BF7818002028850100159801006F
:100FF000F5970100209801003D9801004F980100ED
:101000005A980100F40400207B9801009B9801008D
:10101000B0980100EB980100C1980100059901000A
:1010200030B5044687B060B91F49204A20483D23A7
:1010300014F0ACFB1F4814F0A9FB1C483D2114F030
:101040009EFB024634231C48022114F015FF0028A1
:1010500028DC1A4D2B6813F0060F09D0184B0593A6
:1010600004AA02234FF484512846049314F079F81B
:1010700034220021204616F04BFF0F48342322462D
:10108000022104F0C9FA34280CD02B685B0709D080
:101090000C4B05930948022304AA4FF48251049390
:1010A00014F05FF807B030BD1E990100F5970100FC
:1010B000209801003899010078180020F4040020DD
:1010C0004E9901006D9901007FB5024660B914493F
:1010D000144A15484E2314F059FB144814F056FBDB
:1010E00010484E2114F04BFB11483423022104F028
:1010F00093FA342812D00F4803685B0704D16FF0CD
:10110000040007B05DF804FB0B4B059304AA02230F
:101110004FF48251049314F024F8F0E70020F0E734
:101120001E990100F59701002098010038990100EF
:1011300078180020F40400208699010030B5044698
:1011400087B060B91E491F4A1F485C2314F01EFB7C
:101150001E4814F01BFB1B485C2114F010FB0246D8
:1011600008231B48032114F087FE002826DC194DB4
:101170002B6813F0060F09D0174B059304AA02231E
:101180004FF484512846049313F0EBFF00232360AF
:1011900063600F4808232246032104F03DFA082823
:1011A0000CD02B685B0709D00C4B05930948022330
:1011B00004AA4FF48251049313F0D3FF07B030BD5B
:1011C0009D990100F59701002098010038990100D0
:1011D00078180020F4040020B8990100D599010086
:1011E0007FB5024660B91449144A15486E2314F0BD
:1011F000CDFA144814F0CAFA10486E2114F0BFFA60
:1012000011480823032104F007FA082812D00F48D8
:1012100003685B0704D16FF0040007B05DF804FBBE
:101220000B4B059304AA02234FF48251049313F04D
:1012300098FFF0E70020F0E79D990100F597010085
:10124000209801003899010078180020F40400204B
:10125000F199010030B5044687B060B91F49204AB2
:1012600020487D2314F092FA1F4814F08FFA1C488E
:101270007D2114F084FA024608231C48042114F04E
:10128000FBFD002827DC1A4D2B6813F0060F09D050
:10129000184B059304AA02234FF484512846049363
:1012A00013F05FFF4FF05833236063600F4808234B
:1012B0002246042104F0B0F908280CD02B685B0703
:1012C00009D00D4B05930A48022304AA4FF482511A
:1012D000049313F046FF07B030BD00BF0B9A010026
:1012E000F597010020980100389901007818002036
:1012F000F4040020279A0100D59901007FB5024629
:1013000060B91449144A15488F2314F03FFA144861
:1013100014F03CFA10488F2114F031FA11480823D8
:10132000042104F079F9082812D00F4803685B07FC
:1013300004D16FF0040007B05DF804FB0B4B05937C
:1013400004AA02234FF48251049313F00AFFF0E73A
:101350000020F0E70B9A0100F597010020980100AA
:101360003899010078180020F4040020F199010058
:1013700010B5064A0446082114F098FF2046044A96
:10138000082114F093FF002010BD00BF529A010005
:10139000689A010010B594B004460021342207A8D1
:1013A00016F0B6FD0022002307A8CDE90223CDE9FF
:1013B0000423FFF735FE02A8FFF7C0FE04A8FFF7DD
:1013C00049FF07AB20460F4A082114F06FFF139B1B
:1013D0000D4A2046082114F069FFDDE9022320466A
:1013E000CDE900230821094A14F060FFDDE9042358
:1013F0002046CDE900230821054A14F057FF0020BC
:1014000014B010BD719A0100849A0100939A0100F2
:10141000A49A0100DFB502294FF000064FF0000743
:10142000CDE902670446134606D0104A082114F09D
:101430003DFF002004B0D0BD58681022002112F0FA
:10144000CFFCCDE9020102A8FFF7CAFE60B9DDE9D1
:1014500002230821CDE900232046054A14F026FF87
:10146000044A08212046E2E7034AFAE7C19A01004C
:10147000939A0100D59A0100DB9A01000129F8B581
:101480000C46164616D90E48012100F0A9FE01258A
:1014900056F825703846FFF715FC013501463846E9
:1014A00000F09EFEA542F3D10548012100F098FE10
:1014B0000020F8BD034A082114F0F8FEF8E700BF49
:1014C00029ED0100C19A010030B503298FB004460F
:1014D000154606D0164A082114F0E8FE00200FB089
:1014E00030BD3422002101A816F012FD69683022B7
:1014F00001A816F058FDA8680A22002112F0CCFBC2
:101500000D9001A8FFF7E0FD78B90A4A01AB082168
:10151000204614F0CBFE084A0D9B0821204614F00B
:10152000C5FE064A08212046D6E7054AFAE700BF6D
:10153000C19A0100E59A0100F49A0100D59A0100D0
:10154000DB9A010002291FB50446134606D0104A53
:10155000082114F0ABFE002004B010BD58680A2228
:10156000002112F01DFBCDE9020102A8FFF7C6FE23
:1015700060B9DDE902230821CDE900232046054AB0
:1015800014F094FE044A08212046E2E7034AFAE7F1
:10159000C19A0100FF9A0100D59A0100DB9A01006F
:1015A0002DE9F04F93B00E46054600AF1C4690461D
:1015B00013F062FE3146284600F012FE13F0D8FD0B
:1015C000DFF8ACA0064689464FEAE47B224640217C
:1015D00007F1080013F05EFE054678B933194BEBAE
:1015E00009057B6013F0C4FD7B689842A941EDDBDF
:1015F000002528464C37BD46BDE8F08FDAF80030AC
:1016000003F00703022B15D9C7F804D08AB06A4645
:10161000184B536107F10803C2E90638164B1362F1
:10162000164B42F8103F4FF42351504613F0AEFDD5
:10163000D7F804D0414607F1080016F0D3FC002883
:10164000D7D10F4907F1080016F0CCFC0028CFD104
:101650000C4907F1080016F0C5FC0028C8D10A495A
:1016600007F1080016F0BEFC0028B7D0C0E700BFA5
:10167000FC040020029E010000020103040000029D
:101680000A9E0100109E01001A9E01007FB51A48B3
:1016900016F07BFA60B9194803685A0708D0184B4E
:1016A000059304AA02234FF48251049313F06EFDB4
:1016B0001148436881681B6802695B050ED41149B3
:1016C000114A12484FF4797314F060F8104814F07E
:1016D0005DF80D484FF4797114F051F8136823F454
:1016E000806313600B680B4A0A21984707B05DF8C6
:1016F00004EB13F090BD00BFEC840100FC0400205B
:10170000219E0100689E0100379E01002098010083
:10171000A69E010010000A002DE9F043204D87B07D
:101720002B6803F00703022B00AF0AD91D4B7B6126
:1017300002233B6107F110024FF48651284613F053
:1017400025FDDFF8648098F804901826D8F800008A
:101750003860164A87F804904FF47A7305213846AA
:10176000FFF71EFF044608B9013EEFD12B6803F0D6
:101770000703022B0ED96D4688B06A460C4B084809
:10178000C2E90534032342F8103F4FF4C65113F069
:10179000FDFCAD4620461C37BD46BDE8F08300BFCA
:1017A000FC040020B89E0100EC9E0100529F010045
:1017B000CD9E0100F0B5224D87B02B6803F00703E2
:1017C000022B00AF0AD91F4B7B6102233B6107F15B
:1017D00010024FF48651284613F0D8FC1A4B3A46B3
:1017E00003F1080C3E4618685968144603C40833D0
:1017F00063452246F7D118689B882060A380134A6E
:101800004FF47A730E213046FFF7CAFE2B6803F0BF
:101810000703022B04460ED96D4688B06A460C4B6E
:10182000C2E90530032342F8103F05484FF4C65182
:1018300013F0ACFCAD4620461C37BD46F0BD00BFE2
:10184000FC040020F19E0100279F0100529F01002F
:10185000079F01002DE9F04F8DB000AF904605467F
:101860000E4613F009FD374B07F1080203F1080C8F
:10187000914618685968144603C4083363452246E4
:10188000F7D118681B79206023712F4C236803F06F
:101890000703022B13D9EA4688B06A462B4B5361E3
:1018A00007F1090393614FF400739383284B42F8C7
:1018B000103F4FF4E651204613F068FCD5464846E9
:1018C0000C2100F08DFC13F053FC002381468A4666
:1018D000FB7141F63F7B0A21F81D00F059FC10B165
:1018E000FB793E2B08D013F043FC19EB0B024AF1B5
:1018F000000382428B41EEDA13F0BEFCFB793E2BF3
:1019000012D023685A070AD0124BFB6202230E48FA
:10191000BB6207F128024FF4825113F037FC00201C
:101920003437BD46BDE8F08F0B4A43463146284662
:10193000FFF736FE0028F3D123685B07EFD0074B93
:10194000E3E700BF679F0100FC040020359F010012
:10195000030000013A9F01004D9F0100559F0100C7
:10196000F0B5424D91B02B6803F00703022B00AF96
:101970000AD93F4BFB630223BB6307F138024FF4E4
:101980008651284613F002FC3A4B3B4A18681B79F3
:1019900078603B7205214FF47A73381DFFF700FE23
:1019A000C0B900242B6803F00703022B0ED96D4643
:1019B00088B06A46314B2D48C2E90534032342F80A
:1019C000103F4FF4C65113F0E1FBAD4620464437BB
:1019D000BD46F0BD2A4B18689A889B79F8603A8218
:1019E000BB74254A6423072107F10C00FFF7D8FDDB
:1019F0000028D6D0234A1068516807F11C0303C39E
:101A0000906818601C4A4FF47A730C2107F11C008F
:101A1000FFF7C6FD0028C4D01B4B07F1280203F1D5
:101A2000100C164618685968144603C408336345F9
:101A30002246F7D11B7823700F4A4FF47A73112195
:101A40003046FFF7ADFD0028ABD0104B18689A88E0
:101A50009B7978613A83BB76074A4FF47A73072102
:101A600007F11400FFF79CFD04469BE7FC040020EF
:101A7000749F0100EC9E0100529F01008B9F0100AA
:101A8000AC9F0100B39F0100BF9F0100D09F0100E8
:101A90001FB5084A1068516801AB03C3906818600D
:101AA000054A4FF4FA530C2101A8FFF779FD05B060
:101AB0005DF804FBD79F0100529F01001FB5084A43
:101AC0001068516801AB03C390681860054A4FF471
:101AD0007A730C2101A8FFF763FD05B05DF804FBE4
:101AE000E39F0100529F01002DE9F047B94DAAB0D4
:101AF0002B6803F00703022B02AF0CD9B64BC7F8D3
:101B000094300223C7F8903007F190024FF48651C9
:101B1000284613F03BFBDFF8C4827826B04B07F170
:101B2000800203F1080C18685968144603C408338E
:101B300063452246F7D118681B792060237142461D
:101B40004FF47A730D2107F18000FFF729FD00BBE8
:101B50004FF40040002110F029F9013EDED10024AD
:101B60002B6803F00703022B0ED96D4688B002AA3A
:101B70009C4B9848C2E90534032342F8103F4FF4C8
:101B8000C65113F003FBAD462046A037BD46BDE865
:101B9000F087954B07F1380203F1080C16461868D8
:101BA0005968144603C4083363452246F7D11868C0
:101BB0001B79206023718D4A4FF4FA630D21304662
:101BC000FFF7EEFC0028CAD0894B07F1580203F159
:101BD000080C164618685968144603C40833634550
:101BE0002246F7D1186899889B792060A180A3715B
:101BF000804A64230F213046FFF7D2FC0028AED084
:101C00007D4B07F1480203F1080C16461868596825
:101C1000144603C4083363452246F7D118689B88ED
:101C20002060A3806D4A64230E213046FFF7B8FC84
:101C3000002894D0714B07F1680203F1100C16468E
:101C400018685968144603C4083363452246F7D11F
:101C500018681B7920602371604A6423152130467F
:101C6000FFF79EFC00283FF47AAF654A1068516880
:101C700007F1140303C31189927A19809A700B211A
:101C8000564A4FF47A6307F11400FFF789FC0028E5
:101C90003FF465AF5B4A1068516807F1200303C346
:101CA0001189927A19809A700B21574A4FF4FA637E
:101CB00007F12000FFF774FC00283FF450AF534AAF
:101CC0001068516807F12C0303C31189927A1980B7
:101CD0009A7013F0D1FA0B2107F12C0000F080FA72
:101CE00013F046FA2B6803F00703022B06468846DA
:101CF00013D96C4688B002AA454B536107F12D03F6
:101D000093614FF400739383424B42F8103F314884
:101D10004FF4E65113F03AFAA546DFF8FC9064223E
:101D2000202107F1800013F0B5FA0446002846D0C0
:101D30002B6803F00703022B13D9EA4688B002AAE6
:101D4000364B536107F1800393614FF40073938323
:101D5000304B42F8103F1F484FF4E65113F016FA8B
:101D6000D54607F11003019307F10C0300933A1DC8
:101D700007F10803494607F1800011F0CBFD042864
:101D8000CDD12B6803F00703022B7FF6E9AE6E4638
:101D90008AB0D7E901C0D7E9031302AADFF880E0CF
:101DA00053620623C2E90701C2E905EC094842F87B
:101DB000103F4FF4435113F0E9F9B546D0E613F064
:101DC000D7F940F69F73F31848F1000283428A4125
:101DD000A5DBC4E6FC040020EF9F0100529F010038
:101DE0006EA001004AA001007BA0010009A0010033
:101DF00088A0010011A0010097A00100A5A001008A
:101E0000BAA00100C5A0010023A00100D0A00100DC
:101E1000359F0100030000013EA001002DA001003C
:101E200032A00100F0B59DB0434C444B02AFCDE968
:101E300000014022002107F1280016F071F8236804
:101E400003F00703022B054613D96E4688B002AA99
:101E50003B4B536107F1290393614FF40073938364
:101E6000384B42F8103F4FF4E651204613F08EF9FC
:101E7000B546354A41F27073294607F12800FFF74D
:101E80008FFB90B9236858070AD0304B7B6202233E
:101E900029483B6207F120024FF4825113F076F992
:101EA000002528466C37BD46F0BD2949294BC7E9B6
:101EB0000A13294B3B630023BB864FF47A621A2333
:101EC0000F2107F1280087F83630FFF7C3FC20B94F
:101ED00023685A07E4D0214BD8E74FF47A620521F2
:101EE00007F1080013F098F9054620B923685B074D
:101EF000D6D01B4BCAE71B4B186838601B793B7167
:101F00000522394607F1080015F0B7FF236803F0F2
:101F1000070318B1002BC3D0134BB7E7022BC0D96E
:101F2000124B7B62022304483B6207F120024FF40C
:101F3000865113F02BF9B4E7FC040020DBA001006C
:101F4000359F010003000001F9A0010004A1010078
:101F5000100C00044D5154540402003C14A1010023
:101F600023A10100EC8801003DA101004FA1010067
:101F70002DE9F0416A4A6B4DB2B0516806AF044694
:101F8000106807F1240303C31189927A19809A70AB
:101F900013F072F90B2107F1240000F021F92B68EE
:101FA00003F00703022B13D96E4688B006AA5E4BD6
:101FB000536107F1250393614FF4007393835B4BE7
:101FC00042F8103F4FF4E651284613F0DFF8B546CB
:101FD00007F170064FF47A724021304613F05AF937
:101FE00020B90120B037BD46BDE8F0812B6803F071
:101FF0000703022B11D9E84688B006AA4C4B494882
:10200000C2E905364FF400739383484B42F8103F02
:102010004FF4E65113F0BAF8C5464649304615F07C
:10202000E1FF78B92B6858070AD0434BFB650223C0
:10203000BB6507F158023B484FF4825113F0A6F8F4
:102040000020CFE73D49304615F0CCFF20B12B688A
:102050005907F5D03A4BE9E707F120030593FB1D3B
:10206000049307F11C03039307F11803029307F18C
:102070001403019307F110030093324907F10C0395
:1020800007F10802304611F045FC082837D1BB683B
:102090006433FB65FB68013BBB653B697B657B6922
:1020A0003B65BB69FB64FB69BB644FF0FF33BB66F8
:1020B00007F1480011F0B0F9B1F1FF3F08BFB0F1EE
:1020C000FF3F12D03B6AFD794FF4617253432B2DD1
:1020D0004FEAE37205D1C31A61EB0201C4E9003192
:1020E0007FE71B1842EB0101F8E72B685A07A7D0DE
:1020F000154B7B6402233B6407F140029BE72B688E
:102100005B073FF46EAF114BFB6502230548BB65CF
:1021100007F158024FF4825113F038F861E700BF1D
:1021200005A20100FC040020359F0100030000010E
:102130002DA0010072A1010078A101008BA1010076
:1021400094A10100ADA10100CCA10100ECA101000E
:102150007FB50D4B6A4603F10806154618685968A5
:10216000144603C40833B3422246F7D118689B884B
:102170002060A380054A4FF47A730E212846FFF7AA
:102180000FFA04B070BD00BF10A20100529F010001
:102190002DE9F74F0C46114F064613F02EF8BB6899
:1021A0000193054688464FEAE47A019B1B686BB9A8
:1021B00014EB050948EB0A0B13F01FF8484571EBC7
:1021C0000B01F2DB002003B0BDE8F08F314638464A
:1021D00098470028ECD10120F5E700BF00850100F9
:1021E00070B5064E04464518AC4200D170BD14F8D7
:1021F000011BB36801485B689847F5E7008501005B
:1022000008B515F057FD4FF47A72A0FB020302FBEC
:102210000131C00B4FF47A72002340EA4140C90BF0
:10222000FEF78CFB064AD2E90032C01A61EB0201CC
:10223000044AD2E90032C01841EB020108BD00BFD8
:1022400098060020A006002038B50D48FFF790FE44
:10225000054698B115F02EFD4FF47A72A0FB0243AB
:1022600002FB0131E40B002344EA41404FF47A724F
:10227000C90BFEF763FB034BC3E90001284638BDD9
:10228000A0060020980600202DE9F04786B000AF98
:10229000A64DA74C284615F078FCA8B923685A0724
:1022A00012D02B686D4688B06A46A249C2E9051370
:1022B0004FF400739383A04B42F8103F4FF4E25168
:1022C000204613F021F8AD469C4EDFF874A2DFF8EB
:1022D00074823046FEF7BEFF336870683C21A3FB72
:1022E000013201FB00225046C6E90032FEF726FF0C
:1022F0004046FEF795FE236803F00703022B52D9F0
:102300006D4688B0D6E900016A468F4B53614FF0A5
:102310000409C2E9060142F8109F85484FF40351B1
:1023200012F0F2FF236803F00703022BAD463AD9FF
:1023300088B0DAE900016A46844B5361C2E90601BC
:1023400042F8109F7A484FF4035112F0DDFF2368E2
:1023500003F00703022BAD4625D988B06A467C4BB3
:102360007348C2E905384FF400739383724B42F807
:10237000103F4FF4E65112F0C7FF236803F0070344
:10238000022BAD460FD988B0D8F830306A46714973
:102390006748C2E90513032342F8103F4FF4C651C2
:1023A00012F0B2FFAD466C4815F0EFFB68B9236838
:1023B0005B070AD0694B7B6102235D483B6107F1F3
:1023C00010024FF4825112F09FFF63484368816806
:1023D0001B6802699D040ED46149624A62484FF449
:1023E000797313F0D3F9614813F0D0F95D484FF4D5
:1023F000797113F0C4F91368DFF874814C4DDFF87C
:10240000749123F4005313600B685B4A0D219847C5
:10241000FFF73CF9FFF780F970B923685A07F9D044
:10242000C7F8149002233B6107F110024FF4825168
:10243000284612F069FFEDE7FFF792FA28B9236802
:102440005B07E7D0C7F81480ECE7FFF7B3F960B992
:1024500023685807DED0494B7B61022334483B6137
:1024600007F110024FF48251E3E7FFF755F920B965
:1024700023685907CED03F4BEEE7FFF735FB20B975
:1024800023685A07C6D03E4BE6E7FFF72DFB00282E
:10249000F6D0FFF7D9FE20B923685B07BAD0394BD5
:1024A000DAE7FFF70BFBFFF7ABFED6E900230446A4
:1024B0000D46FEF743FAA01A334A65EB0303334D8A
:1024C00000244FF0FF31C2E900036FF07F067F2246
:1024D0002C726C72AC72EC722C736C73AC73EC7308
:1024E000AC70EE7029706A702C716C71AC71EC710B
:1024F00029766A7628616B61254D2C726C72AC72FC
:10250000EC722C736C73AC73EC73AC701837EE70A8
:1025100029706A702C716C71AC71EC7129766A76D5
:1025200028616B61BD46BDE8F08700BF50850100A2
:10253000000500202BA2010003000001B0060020CE
:1025400090060020A818002043A2010059A2010013
:1025500066A201007DA20100EC84010092A20100AC
:10256000689E0100379E010020980100A69E010090
:10257000CEA20100B2A2010010000A00E5A20100F3
:10258000F8A201000AA30100A8060020865000203E
:102590006C5000202DE9F04F002497B0254600AF85
:1025A000C84EDFF82483D6F808903A21D9F80C30C9
:1025B000304698478246002840F006810D21D9F820
:1025C000103007F10802304698471021D9F8103032
:1025D00007F1100230469847BB68BC4AFC6894FB80
:1025E000F2F403EB830304EB43043B697D6995FB41
:1025F000F2F503EB830305EB4305D8F8003003F055
:102600000703022B24B22DB20FD96E4688B06A465A
:10261000AF4BD561C2E90534042342F8103F4FF4B3
:102620000351404612F070FEB546FFF7E9FDDFF8B2
:10263000A4920646A848D9E900328B46D0E900109A
:102640005B1842EB00029E427BEB02027FDBA34B56
:10265000DA687A60002A22DD2522002107F13000A5
:1026600015F056FC9E4A117841B1126B32B19D4A69
:102670009A4BD2E90010084340F0B780D8F80030F8
:1026800058070AD0984BFB6202238F48BB6207F1C0
:1026900028024FF4825112F037FEFFF70FFADFF8ED
:1026A0003882FFF7ADFDD8E90023D9F800C0D9F88A
:1026B00004E012EB0C0C43EB0E0E604571EB0E0EBA
:1026C000C0F2578130465946FEF738F98348B21AAE
:1026D0004FF000014FF0FF3E4FF07F0C6BEB030318
:1026E0006FF07F08017241728172C1720173417390
:1026F0008173C173817080F8038080F800E080F8F6
:1027000001C0017141718171C17180F818E080F8D8
:1027100019C0026143617548C9E900230172417221
:102720008172C172017341738173C173817080F8CA
:10273000038080F800E080F801C00171417181716F
:10274000C17180F818E080F819C002614361BAF1E4
:10275000000F30D1614BB3F902201C83A242BFBFEE
:102760001A695C80B21A9A80B3F90020A242C1BFF4
:102770001A691C80B21ADA809A6822449A60DA6870
:102780000132DA60594BB3F902201D83AA42BFBF60
:102790001A695D80B21A9A80B3F90020AA42C2BFBA
:1027A0001A691D80B61A9A68C8BFDE802A449A60EA
:1027B000DA680132DA6000214FF420200FF0F6FAD7
:1027C0005C37BD46BDE8F08FD8F800305E073FF4B7
:1027D0002CAF6E4688B06A46454BC2E905300323EC
:1027E00042F8103F4FF4C2511BE7012087F8300038
:1027F0009288D3F810C05869A7F835203B4AC7F82B
:102800003B00C7F837C0C7F83110B2F918100A20DA
:1028100091FBF0F187F84B109168D2F80CC091FB56
:10282000FCF191FBF0F187F84C10B2F9021091FB2A
:10283000F0F187F84D10B2F9001091FBF0F187F834
:102840004E10B2F90610A7F85110B2F90420A7F8FB
:102850004F20B3F91820A7F83F209A68796892FBB7
:10286000F1F2A7F84120B3F90220A7F84320B3F909
:102870000020A7F84520B3F90620A7F84920B3F9AE
:102880000430A7F84730FFF703F930B9D8F8003023
:1028900059073FF402AF174BF5E6FEF73DFF30B99D
:1028A000D8F800305A073FF4F8AE134BEBE6FFF7C9
:1028B00057F828BBD8F800305B073FF4EEAE0F4B5B
:1028C000E1E600BF5085010000050020A086010060
:1028D0001BA30100A8060020B0060020865000209F
:1028E000A81800209006002048A301006C5000208A
:1028F00034A301005EA30100B2A20100CEA2010038
:10290000FFF7F2F830B9D8F8003058073FF4C5AEF9
:102910001B4BB8E6FFF798FC30B9D8F800305907E0
:102920003FF4BBAE174BAEE61748016BFFF77AFAE0
:1029300030B9D8F800305A073FF4AFAE134BA2E6D7
:102940001348252207F1300112F023FC70B9D8F8A2
:1029500000305B070AD00F4BFB6202230E48BB62BC
:1029600007F128024FF4825112F0CEFCFFF7F0FB82
:1029700093E600214FF400400FF018FA91E600BFF3
:10298000F8A201000AA30100A818002075A3010005
:102990008CA3010098A301000005002010B5094C8C
:1029A0000A44914200D110BD11F8013B584003097F
:1029B0000001E35CC0B2434018091B01205CDBB29C
:1029C0005840EEE7B4A301002DE9F84300AF81467B
:1029D0008846154600F0BAF8C36804461BB9436937
:1029E0001A78002A55D10023E36063684B4558F8F4
:1029F000232009DB444B6361204600F08DF84FF043
:102A0000FF30BD46BDE8F883511C616116782D2E5C
:102A1000F0D1911C61615178A1602D2904D1927887
:102A200062B901336360E5E741B9374B6361314611
:102A3000284615F091FA0028DED0A660A668284640
:102A4000314615F089FA3A2E626900D030BB13780E
:102A500013B96368013363602368ABB12B783A2BF9
:102A600012D02A48036859070ED06D4688B06A46CE
:102A7000274BC2E90536032342F8103F00234FF4E9
:102A8000C25103F037FCAD46204600F045F83F2028
:102A9000B7E75A1C42611B788360CFE743783A2B33
:102AA0000BD000232361137813B96368013363608B
:102AB000204600F031F8A068A3E713786168124857
:102AC0002BB901318945616004DD58F82120C4E942
:102AD0000420EAE760612D783A2D04D1204600F009
:102AE0001BF828468DE72268002ACDD007480268E7
:102AF0005207C9D06D4688B06A460649C2E9051634
:102B0000032142F8101FBAE72AED01001805002042
:102B1000C4A30100D9A30100074B02681A60074B48
:102B200042681A60064B82681A60064BC2681A60D7
:102B3000054B02691A607047740000207000002085
:102B4000E4180020E0180020DC180020004870473E
:102B5000580000202DE9F04F91B08407009302F057
:102B600004030293C2F3C20303F10103DDF868809A
:102B7000039205460E46059340F0F581041D30B1E1
:102B8000072909D86FF01B0011B0BDE8F08F01F0E4
:102B90000706341DC6F10806009B4FF00009013BF3
:102BA0004FF0040B0193CDF810904F464B464FF079
:102BB000FF32DA460DB1009921600598002800F334
:102BC000D78098480099814203D397488142C0F04A
:102BD000CF800399A4EB050E89074FEA9E0040F1D0
:102BE000E2804FF0000CCCE07A285AD84B280CD861
:102BF000472856D829282AD8252851D051D8202806
:102C000077D023384342434173E04C382E2848D8CC
:102C1000DFE800F06F474747474747474747474781
:102C200049474747474747474759474949595959E6
:102C30006F496C476F471849184747807D49474798
:102C400049477D00002000234FF0040B39E02A386B
:102C5000C0B2012101FA00F010EA0E0F49D110F0C4
:102C6000625C30D110EA010343D06046013C5C4411
:102C7000B4FBFBF40BFB04F4002D60D0AAEB050CB5
:102C8000A4446645FFF47EAF00286AD1BAF1040F70
:102C900045D158F8040B206004344FF0040A28E0B2
:102CA000013A002325E0019B13F8013C6C2B33D142
:102CB000019B13F8023C00206C2B0346C4D14FF05B
:102CC000080BDA46D2E708F1070828F007080734AE
:102CD000F8E802AB24F0070435B106982044B0426E
:102CE0003FF650AFC4E900AB083400234FF0080BA7
:102CF000DA46019911F8010F0191002800F0BB801C
:102D0000002B7FF471AF2528F3D1013201234FF05E
:102D1000040BEDE7184696E700200346A6E7BAF154
:102D2000080F40F09A8008F1070828F00708F8E833
:102D30000201C4E9000108344FF0080AD9E780B95C
:102D4000BAF1040F02D108F10408A5E7BAF1080F9F
:102D500040F0838008F1070828F0070808F1080808
:102D6000E9E705990139059158F8041B009121E71D
:102D7000039988074AD5A4EB050E4FEA9E004FF051
:102D8000010CBEF5007F1ED32849294A294840F28C
:102D90007B2312F0FBFC284812F0F8FC40F27B2168
:102DA000234812F0ECFC0F2F0FD8002D48D007F16C
:102DB00040010DEB010C0CF8200C0CF8102C0498C1
:102DC0000130049021E00F2F0CD91849184A1948F6
:102DD0004FF4207312F0DAFC184812F0D7FC4FF4CD
:102DE0002071DDE7CDB107F140010DEB010EC0B25E
:102DF0000EF8200C0EF8102CBCF1000FDFD060F0A4
:102E00007F000EF8200C09F101090137C5F1080116
:102E1000043406914FF6DA7E6BE7BCF1000F0FD059
:102E20000136F2E71484010030F50100DDA5010050
:102E300002A401002098010030A4010051A4010067
:102E4000029802360028E0D10098CDE90632FDF75D
:102E500039FFDDE906320644D7E7444A444945488C
:102E600040F2C52312F092FC5146434812F08EFC0A
:102E700040F2C52194E7631BB3F5806F0CD33C4946
:102E80003A4A3C4840F2D12312F080FC3B4812F011
:102E90007DFC40F2D12183E71DB9A6F10804E018BA
:102EA00072E6029A28609B082B709DF81030C2B120
:102EB000EB7085F80290B9F1000F05D008A8002248
:102EC000C5F1010C97420ED1C5F101030DF12008A7
:102ED0004FF0000A01930DF1300B574512D1601BE2
:102EE00052E66B70E5E710F8013B190608D504EBD4
:102EF0000C0E764503F07F03FFF444AE04F8013B6B
:102F00000132DFE7B9F1000F03D098F90020002A61
:102F100017DB029BD3B11AF80B2004F8012B002217
:102F2000019B981820448642FFF42CAE98F80000CC
:102F300004F8010B00990392204614F0AEFF039AA7
:102F400014440AF1010A08F10108C6E798F80020C4
:102F500055F822300093029B45F822300098FDF787
:102F6000B1FE421CDCE76FF00D000DE602A401008B
:102F7000DDA50100209801006BA4010080A40100E0
:102F80002DE9F04F95B000AF8A467A62BB610446E6
:102F900058B9A549A54AA6484FF4657312F0F6FB47
:102FA0004FF46571A14812F0EAFBBB6F90F802B0D4
:102FB000C3F3C003FB6041B9457800780BEB800098
:102FC0002044554517D8A0EB040AE3787B61BBF198
:102FD000000F02D0BB6FD80716D47B6953BB7B6A46
:102FE0001BB1BA6951462046984755462846543782
:102FF000BD46BDE8F08F461C3046FDF763FE01304C
:1030000030440AF1010ADCE723783B629B003B6114
:103010003B6A6268FA6104EB83097B6A002B40F02B
:1030200013815546C84609EB0B0A0026C24555D107
:10303000D94413E0BB6F9907D1D523783B629946F9
:103040009B003B616368FB617B6A04EB8909002B91
:103050007ED15546BBF1000F53D15E46BB6F13F0D6
:10306000050F7B6909EB430ABB6F03F002030CBF3A
:103070004FF0020B4FF0010B7B62D145B6D019F82F
:10308000021B19F8013C54F823806A4B984502D37F
:10309000694B98453CD3FB68002B46D0F86912F089
:1030A00091F9002841D06548036813F0060F13D04A
:1030B000E8468AB06A46624B5361FB69C2E9063151
:1030C0004FF4007313845F4B42F8103F00234FF41A
:1030D000125103F00FF9C546023DCEE718F8013B47
:1030E00054F82300FDF7EEFDFB6F01303BB1D7F83C
:1030F00080309E423EBFFB6F23F816000136054428
:1031000094E7BB6F13F004061CBF7E6AD944A5E7A1
:10311000FB6823B1F86912F055F90028C3D1BB6FE1
:10312000DA0705D4A5EB0B05A7E77B6A002BA4D033
:103130004046FDF7C7FDFB6F43B1D7F880309E4294
:103140003FBFFA6F431C22F816300136054494E75E
:10315000BBF1000F7ED0BB6F13F004067DD0D846C4
:10316000002607F140005A46494614F096FE7B6956
:103170005B007B607B69D94409EB4303BB60BB6F99
:1031800003F002033B60BB68994568D1B96F63786F
:10319000B86F890706EB030254BF4FEA58010021BC
:1031A000C507D2B200F1DE8010F0040F14BF404614
:1031B0000020FB616270A070E170BA6939697B6AB6
:1031C00020469847051EFFF611AF3B6A2370FB6946
:1031D00063707B69E3704146BA697B6A84F802B028
:1031E00007F140009847B0F10008C0F2E8803B6961
:1031F000BA69AAEB0B01C91A7B684846C91A7B6AEF
:1032000098470028C0F2DD80A84408EB00054FF085
:10321000000B07F1300AB345C0F0A6800021BA695F
:103220007B6A08469847E1E697A4010002A40100E2
:10323000209801001484010030F5010004050020ED
:10324000B2A40100040000015E464FF0000807F13F
:10325000300088E75E46D84689E7B04687E719F828
:10326000021B594B19F8015C54F82500984202D30F
:10327000564B984215D3FB6823B1F86912F0A2F8B7
:10328000002880D13B68002B4AD00F2E3ED95049F0
:10329000504A51484FF4896312F078FA4FF489612B
:1032A00080E6FB682BB1F86912F08CF800287FF4F7
:1032B0006AAFBB6FDB070BD50F2E27D94449454AB0
:1032C000454840F23E4312F061FA40F23E4169E661
:1032D000BB6F58077FF557AFB8F10F0F09D93F49BA
:1032E0003C4A3D4840F2414312F050FA40F241411D
:1032F00058E608F1280307F1280208F1010103EB61
:10330000020808F8105C5FFA81F83CE706F1280330
:1033100007F12802711C9E1806F8205CCEB232E735
:10332000B8F10F0F09D92D492A4A2B4840F24B43D7
:1033300012F02CFA40F24B4134E608F1280307F171
:10334000280208F1010003EB020C07F1500353FAC5
:1033500080F008F102080CF8101C5FFA88F800F8F9
:10336000105C10E7002024E71BF80A3087F82F30A4
:1033700054F82390FB6FFBB133F81B80BA697B6A6A
:10338000012107F12F00984700281ADB0544B8F106
:10339000000F06D14846FDF795FC00F101081FFA21
:1033A00088F8BA697B6A414648469847002808DB96
:1033B00005440BF1010B2EE7D7F87C80DEE745468C
:1033C00014E6054612E600BF1484010030F5010042
:1033D00055A5010002A401002098010074A5010078
:1033E000014B1860704700BF7800002030B587B0EF
:1033F0000025CDE903010446009503A9054805957C
:1034000000F024FDDDE904309842B8BF255407B030
:1034100030BD00BF13540100F8B50646DDE90605CE
:103420001C4612F02FF8D0E900139942B6680269E1
:1034300014D156F8213004B9DB4332EA03002BD013
:1034400022EA03025DB362BB1A491B481B4A96235A
:1034500012F09CF91948962112F091F956F8217052
:1034600004B9FF4332EA070C02D022EA0702E9E777
:1034700056F8237004B9FF43426932EA070008D0C6
:1034800022EA07021946DDE756F8212004B1D243AB
:1034900022B901318B42F7D8012001E00DB900209B
:1034A000F8BD92FAA2F2B2FA82F202EB41122A605D
:1034B000F5E700BFCAA5010020980100A5A50100FD
:1034C0002DE9F04F0D468BB09146044658B9464958
:1034D000464A47484FF4C57312F058F94FF4C57186
:1034E000424812F04CF903684BB942493F4A404800
:1034F00040F28B1312F04AF940F28B11F0E700F121
:103500000C064FF02003EFF3118A83F31288BFF308
:103510006F8F30460CF04AFF60B9374A374934485C
:10352000722312F033F93146354812F02FF9722127
:103530003148D6E730460CF057FFB9F1000F48D0BC
:10354000002D46D02068A84243D3676800229742E6
:103550004FEA421B0DD0A36853F82230591C01D109
:103560000132F4E72BB1DB4393FAA3F3B3FA83F30D
:103570009B44A0EB050804AFC34502D96FF01B04C0
:1035800013E003ABCDE900732A46002359462046D9
:10359000FFF742FFC8B12046009701232A4659464B
:1035A00011F08DFF0024C9F800B030460CF00CFF7C
:1035B00090B9114A13490E48F02312F0E7F831464A
:1035C000114812F0E3F8F021B2E7039901F1010B81
:1035D000D2E76FF01504E8E78AF31188BFF36F8F25
:1035E00020460BB0BDE8F08F37A60100A5A501006D
:1035F000209801004FA60100DFA501000CA60100E4
:1036000021A6010066A601007DA601002DE9F04774
:103610004C1E88B00E4690461444054658B93749AA
:10362000374A38484FF4E87312F0B0F84FF4E871B5
:10363000334812F0A4F803684BB93349304A314893
:1036400040F2D11312F0A2F840F2D111F0E700F1EC
:103650000C094FF02003EFF3118A83F31288BFF3B4
:103660006F8F48460CF0A2FE60B9284A28492548C9
:10367000722312F08BF84946264812F087F872211F
:103680002248D6E748460CF0AFFE46B32B68B3425B
:1036900025D3434523D9A34221D9002402AF019465
:1036A00000970123324641462846FFF7B5FEC8B1D0
:1036B0000097234632464146284611F000FF48460F
:1036C0000CF082FE88B9114A13490E48F02312F01B
:1036D0005DF84946114812F059F8F021D0E76FF033
:1036E0001504ECE76FF00D04E9E78AF31188BFF3E6
:1036F0006F8F204608B0BDE8F08700BF37A60100F5
:10370000A5A50100209801004FA60100DFA501003A
:103710000CA6010021A6010066A601007DA60100FD
:103720002DE9F84F04460846A38B1907154612D415
:10373000022803F0070164D1204611F008FF88B188
:103740000138042800F23481DFE810F05B00320118
:103750008100D100010101280CBF43F0100143F0AA
:103760002001A183143420460CF02EFE002840F0E6
:103770009B819849984A9948F02312F007F821460E
:10378000B0E003F00702501F01281ED80020062ACF
:103790002768C4E9000014D13A4603E0E08B013009
:1037A000E0831268002AF9D123F0070343F00202F4
:1037B000A283204611F0CBFE90B342F02002A283F8
:1037C0002EE023F007039AB2F2E7042A33D123F064
:1037D00007039AB2A283204611F0B9FE10B142F05D
:1037E0002002A283A38B03F00709894540F0EA80F9
:1037F000A18BCA0640F14F8121F01003A38301F091
:103800000701D4F81880A38BB8F1000FB9DA0022B1
:10381000276823F00703C4E9002243F00103A383D0
:10382000A38B03F00709894540F0CD80002FDFD03E
:103830000026B24644E06A496A4A684840F21B13CF
:1038400011F0A4FF40F21B11664811F098FF49B136
:103850006549644A61484FF4AB7311F097FF4FF428
:10386000AB71F1E723684BB960495E4A5B4840F2AF
:10387000571311F08BFF40F25711E5E723691E68DB
:103880004EB95B49574A55484FF4AD7311F07EFF6E
:103890004FF4AD71D8E7A38B23F0070343F0060381
:1038A0009BB2A3830F4688464FF00609A268002A00
:1038B00040F08B80002F40F08B80002E98D0BA46CD
:1038C00043F0080304F1140BA38358460CF07CFD6D
:1038D000002840F097803F493F4A4048F02311F0CC
:1038E00055FF5946434811F051FFF021AEE002293F
:1038F00009D041493B4A394840F25D1311F046FF77
:1039000040F25D11A0E7E78B4FB13C49354A33489F
:103910004FF4AF7311F03AFF4FF4AF7194E723699E
:103920005E684EB932492F4A2C4840F2611311F0BB
:103930002DFF40F2611187E7A38B23F0070343F0CB
:1039400004039BB2A383B8464FF00409AEE70129F4
:1039500009D02B49234A21484FF4B27311F016FFC6
:103960004FF4B27170E723684BB920491D4A1B48D8
:1039700040F2651311F00AFF40F2651164E7236914
:103980009E684EB91A49174A14484FF4B47311F09F
:10399000FDFE4FF4B47157E7A38B23F0070343F008
:1039A00005039BB20027A383B8464FF005097DE7C6
:1039B0000B490C4A094840F26B1311F0E7FE40F244
:1039C0006B1141E70027002670E74FF0010A77E707
:1039D000924675E766A60100DFA501002098010068
:1039E000DDA5010092A60100B4A60100C0A6010059
:1039F000E3A601007DA60100FAA6010010A70100C0
:103A00001FA7010085F31188BFF36F8FBAF1000F74
:103A10001ED1002F2FD116B126492046B0474FF0B6
:103A20002003EFF3118583F31288BFF36F8F58469D
:103A30000CF0BCFC38BB204A20492148722311F00D
:103A4000A5FE59461F4811F0A1FE72211A48FCE656
:103A5000A1680029DDD00D680029DAD0D1F804A0D2
:103A600043464A462046D0471DB12B6829461D468D
:103A7000F2E72B46FAE7394643464A4620463F6876
:103A800011F091FDC5E758460CF0AEFCA38B23F076
:103A90000803A383ACE68B067FF564AE21F0200318
:103AA000A38301F0070147E685F31188BFF36F8F09
:103AB000BDE8F88FC93A0000DFA501000CA601009F
:103AC0002098010021A60100F8B504460D4600F13A
:103AD00014064FF02003EFF3118783F31288BFF32E
:103AE0006F8F30460CF062FC68B90C4A0C490D48E7
:103AF000722311F04BFE0C48314611F047FE074887
:103B0000722111F03CFE30460CF06EFCA5613A4685
:103B100020460121BDE8F840FFF702BEDFA5010005
:103B20000CA601002098010021A601002DE9F04714
:103B300004460F4611F027FD051E67DB04F114094A
:103B40004FF02003EFF3118A83F31288BFF36F8FD6
:103B500048460CF02BFC804660B9384A3849394851
:103B6000722311F013FE4946374811F00FFE7221FF
:103B7000324840E048460CF037FCE38BA68B4FF60A
:103B8000FF72934206F0070643D0022E13D1013391
:103B9000E383354648460CF017FC00283FD1274AFE
:103BA0002A492848F02311F0F1FD4946284811F030
:103BB000EDFDF021DCE7062E13D8DFE806F0092D35
:103BC0001212090409006FF085054FF00008E1E7C3
:103BD00000233B60636883B9C4E9007786B135464A
:103BE000F3E71C4917481C4A4FF4E47311F0CEFD6B
:103BF00019484FF4E47111F0C2FD1F606760EDE7F2
:103C0000524602212046FFF78BFD35462846BDE887
:103C1000F0876FF00A05D8E76FF00405D5E78AF35F
:103C20001188BFF36F8FB8F1000FEFD00023324639
:103C30003946204611F0B7FCE8E700BFDFA50100D8
:103C40000CA601002098010021A6010066A6010033
:103C50007DA601001FA7010092A60100F8B5054648
:103C600000F114064FF02003EFF3118783F312885D
:103C7000BFF36F8F30460CF099FB60B9244A254999
:103C80002548722311F082FD3146244811F07EFD53
:103C900072211F4829E030460CF0A6FBAC8B04F0E3
:103CA0000704022C15D0012C0CBF6FF004046FF038
:103CB000850430460CF088FB28BB154A1849164885
:103CC000F02311F063FD3146164811F05FFDF0213D
:103CD000DFE7EB8B5BB914490F48144A40F2EF134E
:103CE00011F054FD114840F2EF1111F048FD013B75
:103CF0009BB2EB83002BDCD13A4621462846FFF7E6
:103D00000FFD2046F8BD87F31188BFF36F8FF8E7EA
:103D1000DFA501000CA601002098010021A60100EA
:103D200066A601007DA6010035A7010092A601004C
:103D300008B54268816002F00302022A03460AD0F5
:103D4000032A4FF0000103D0012A0AD1596006E08E
:103D50001868596008BD186800225A6058B90020D8
:103D6000F8E706490648074A452311F00FFD0548C4
:103D7000452111F004FD0EF0D1FFF0E7DDA50100B3
:103D80002098010043A70100F0B5094E01680246E2
:103D90000A2700200B4601311C78355D6D0701D4E0
:103DA0001360F0BD07FB0043A3F13000F2E700BF52
:103DB000A8F301002DE9F84F15469A46D378224A18
:103DC00012F803B06F2B80460F460BF0030B29D07F
:103DD00024D8582B0CBF10260A26DDF8289032462E
:103DE000002340463946FCF7F9FD092AD4B21ED813
:103DF0003034B045E4B277F1000709F8014D01D342
:103E0000D14511D82B789B0605D5082E15D1AB7856
:103E100043F00803AB704846BDE8F88F03F0F703A2
:103E2000702BD7E70826D8E780460F46D7E7BBF1C7
:103E3000010F0CBF37345734DBE7102EEBD1AB78D2
:103E400043F01003E6E700BFA8F301002DE9F04FAF
:103E50009FB08246039116461C460025307810B963
:103E6000284600F087BD731C2528069306D00399C9
:103E7000D0470028C0F27E8501351FE218220021BC
:103E800010A814F045F87378252B00F0BC800023AF
:103E9000711C98469E469C4618460F4611F8012B09
:103EA0002B2A00F0DF8000F2D680202A00F0DD808F
:103EB000232A00F0DD802BB19DF8483043F0400309
:103EC0008DF84830B8F1000F05D09DF8483043F028
:103ED00020038DF84830BEF1000F05D09DF8483022
:103EE00043F010038DF84830BCF1000F05D09DF869
:103EF000483043F008038DF8483028B19DF8483029
:103F000043F004038DF848309DF8483003F0440135
:103F1000442903D16FF386138DF848309DF848305B
:103F20000E9743F080032A2A8DF8483040F0A58090
:103F30009DF8493043F001038DF849307B1C1A7815
:103F40002E2A9DF849200CBF0121002161F3410276
:103F50008DF849200CD15A1C0E925A782A2A40F02A
:103F60009C809DF8492042F004028DF849200233DC
:103F70001A786C2A00F0BD8000F29F80682A00F059
:103F8000A5806A2A00F0BE804C2A00F0C38013F896
:103F9000012B0693782A8DF84B2000F205816D2ABB
:103FA00000F2C580692A00F2FF80572A00F2DE8005
:103FB000412A04D0A2F14503022B00F2F5809DF8BE
:103FC0004A3002F0DF020421A2F1410861F302034A
:103FD000D8F100029DF849108DF84A3042EB0802F2
:103FE00062F3C7110A068DF84910CBB200F11B81AC
:103FF00003F07802182A40F005816FF3C6038DF8AC
:1040000049300023F4E0B21C06928DF84B309DF845
:104010004930DF0740F1098154F8042B0492002A4B
:1040200008DA9DF8482042F004028DF84820049AEE
:1040300052420492580740F1008154F8047B002F4B
:1040400080F2FF809DF849306FF341038DF84930CD
:104050004FF0FF37F5E02D2A0DD0302A7FF42BAF3B
:1040600001231AE74FF0010C17E74FF0010E14E798
:104070004FF0010811E701200FE70EA8FFF784FEBB
:104080000E9BBB423FF45BAF9DF848201390C00FDE
:1040900060F341028DF8482051E70EA8FFF774FE47
:1040A0009DF848301490C3F3400242EAD07262F3A4
:1040B00041038DF848300E9B5AE7742A26D07A2A9D
:1040C0007FF465AF9DF8492006210CE05A78682AF4
:1040D0009DF8492006D1012161F3C6028DF84920DF
:1040E000023354E7022161F3C6028DF849200133FF
:1040F0004DE75A786C2A9DF8492001D10421EBE75D
:104100000321F0E79DF849200521ECE79DF84920BF
:104110000721E8E7BDF8482022F4F04222F002022D
:1041200042F4804242F00202ADF84820DFE76E3AE6
:10413000D3B201229A4040F282431A429DF849309C
:1041400039D112F0240F61D1D1072DD59DF84A2025
:1041500003F07803A3F1400C032161F30202DCF1C8
:1041600000038DF84A2043EB0C0341E0A2F1580113
:10417000C9B2012000FA01F111F4624F7FF41FAFC0
:1041800040F6010319429DF849301AD111F4043F59
:104190000AD09DF84A2060F3020203F07803402B16
:1041A0008DF84A207FF42DAF9DF8483043F001038D
:1041B0008DF8483025E79DF84A20022161F302027C
:1041C000EBE79DF84A10022003F0780360F3020148
:1041D000402B8DF84A1002BF9DF8481041F00101B4
:1041E0008DF84810632A7FF40CAF003B18BF012301
:1041F0009DF84820C2F340010B4363F341028DF860
:10420000482004E713F0380FCED1FAE69DF84A2093
:10421000032113F0780F61F302028DF84A2014BFD6
:1042200001230023E4E70123E2E79DF94820002A67
:10423000B4BF139A4FF0FF32FBE699077FF508AF42
:10424000149F9DF849100023CDE913339DF84A309F
:1042500003F00702042A07D18A0705D49DF94920F3
:10426000002AACBF06270D2703F00703012BC1F37B
:10427000C30133D1CB1E042B04D8DFE803F0214661
:1042800046212100236801294FEAE372CDE910326B
:104290001CD19DF94030DA17CDE9103204349DF875
:1042A000483007939B0750D0069B039932465046EF
:1042B00011F0E5F90028C0F25D830544069ECDE5C6
:1042C00054F8043BDA17CDE91032E8E70229E5D1CA
:1042D0001AB243F3C033CDE91023DFE7022B24D118
:1042E000CB1E042B04D8DFE803F0181010181800B8
:1042F000012954F8043B4FF0000214D00229CDE903
:104300001032CCD19BB21093C9E7073424F00704D4
:10431000F4E80223CDE91023C1E754F8043B1093DD
:1043200000231193BBE7DBB2CDE7042B08D10734A0
:1043300024F00704D4E900230834CDE91023AEE7C4
:10434000032BACD154F8043BDDE79DF84BB0BBF137
:10435000780FB3D8BBF1570F49D8BBF1250F00F048
:104360009180BBF1240FA9D9BBF1410F03D0ABF170
:104370004503022BA2D8DDE91013002BC0F23781D0
:10438000079A100700F13681C2F300194FEA491964
:10439000C3F30A50C3F31303002840F02E8151EAFF
:1043A000030614BF01260026DB0243EA5153C9026B
:1043B000BBF1460F40EA010E43EAE07C08BF4FF034
:1043C000660B5EEA0C0CCDE90C1300F09F81002E09
:1043D00040F04A810D9B43F00043A0F2FE380D935C
:1043E0000020DDE90C1306464FF0050C56E1ABF159
:1043F0005803202B3FF662AF01A050F823F000BF16
:104400008D450000BD420000BD420000BD420000DD
:10441000BD420000BD420000BD420000BD420000A0
:10442000BD42000077430000BD420000114500007E
:1044300025450000774300007743000077430000E4
:10444000BD42000025450000BD420000BD42000005
:10445000BD420000BD420000C74500008D45000080
:1044600093450000BD420000BD4200008B440000A7
:10447000BD4200008D450000BD420000BD4200006D
:104480008D45000003995846F2E4002F109E3BDB57
:104490003946304613F09AFD002E3FF40FAF37181F
:1044A000BB1B4FF000099DF84A2012F01001059146
:1044B00000F05582023312F04002DDF84C80089281
:1044C00018BF149ACDF81C80434418BF9B18049A57
:1044D000002A40F35F82D31A04939DF848305807AE
:1044E000C3F3800B00F15682590640F14682B9F1C0
:1044F000000F07D003994846D0470028C0F23A82FF
:104500000135D946302339E23046FCF7DBFBC6E7FC
:10451000109B8DF85C304FF000090DF15D0717AE70
:104520000123C0E7079B1E0758BFC3F30019DDE94D
:10453000102354BF4FEA49194FF02B09002B06DA1C
:10454000524263EB4303CDE910234FF02D090DF1E7
:1045500075030093DDE9100117AB12AAFFF72AFCDF
:104560000646002F0CDB9DF848200DF175039B1BC0
:104570006FF386129F428DF8482001D9FB1A1393DE
:10458000002E3FF49BAE0DF175075BE04FF0000984
:10459000DDE71098002800F0DD810DF17503009330
:1045A00012AA17AB0021FFF705FCBDF84A3003F053
:1045B000EF0343F4F04343F010030646ADF84A30EE
:1045C0004FF00009CDE7109B07293FF677AEDFE8F3
:1045D00001F00C04060C08080C0C1D706EE61D8022
:1045E0006CE6EA17C3E9005268E61D6066E64FF024
:1045F0002D09CDE64FF02B09CAE640F2FF76B04216
:104600002FD10BF101029E48D2B20B43825C02F023
:1046100003021ED1012A0BBF492369234E216E21BB
:104620000CBF462266228DF85C309DF848308DF82C
:104630005D106FF386138DF85E208DF848300DF114
:104640005F0717AEBB1BB9F1000F3FF42CAF01336E
:1046500029E7012A15BF6E234E23612141211A4605
:10466000E1E70026A0E6013849185B41002BFADAA1
:10467000CDE90C13AEE6490841EAC3715B08B3F11A
:10468000333F404608F10108F5D20CFB03FEA1FBC5
:104690000C1300F102087344013E012018F1020FCF
:1046A000E9DB08B1CDE90C13B8F1000FDDE90C31FD
:1046B0002FDCC8F1040008F11C08A0F1200CC34055
:1046C00021FA00F201FA08F80BF0DF0043EA0803D0
:1046D00021FA0CFC472843EA0C0308923AD1F11C5A
:1046E00001DBB7422BDAABF10202002F5FFA82FB4B
:1046F0007FDD9DF84800820607F1FF3779D43A1E26
:1047000018BF0122059207F101082DE04FF00008C3
:1047100066E6023341F100010CA8CDE90C3110F03E
:104720007FFFDDE90C3108F1FF380136DB18494124
:10473000002908F1FF38F9DACDE90C31B4E79DF82A
:1047400048209006A7EB060751D43A1E18BF012255
:10475000059204E00022BBF1660F0592D3D117EB5E
:1047600006084FF0660B46D4B8F1100FA8BF4FF003
:10477000100810200B904FF000610020CDE90E01D1
:10478000DDE90E02B8F1000F38D1C018089B42EBEA
:104790000303B3F1805F3FD2CDE90C03079BBBF16C
:1047A000660F03F0200340F0B480002E3FDC302180
:1047B0008DF85C10002B65D1002F40F3AE812E23C5
:1047C0008DF85D3086B17342BB42A8BF3B469DF871
:1047D0004A101393002BA7EB0307D4BF0023012338
:1047E00063F345118DF84A100DF15E0837E00022A1
:1047F000AEE7002286E74FF00008BAE7400840EA3B
:10480000C2705208CDE90E020EA8099308F1FF38D4
:1048100010F006FF099BB3E7400840EAC3705B084D
:10482000CDE90C030CA810F0FBFE0136B6E70DF144
:104830005C080B99002909DD0BA90CA8079310F05F
:1048400007FF013E08F8010B079BF2D113969BB9B5
:10485000002F40F360812E2108F8011B0026002F55
:1048600019DD0B9B002B16DD0BA90CA810F0F0FE38
:10487000013F08F8010BF2E72E2308F8013BEDE7B2
:10488000A7F301002E238DF85D30002EACD0002F51
:1048900099DC0DF15E08059B002B4ED1149747461D
:1048A0000BF0DF03452B23D1002EBABF76422D2318
:1048B0002B23632EC8BF64217B70D1BFBA1CB6FB0B
:1048C000F1F3FA1C03F13000C8BF01FB13664FF08F
:1048D0000A01C8BFB87087F800B0B6FBF1F31746FD
:1048E00003F1300001FB1363303307F8020B537000
:1048F000139B002B2CDC149B002BD4BF0023012323
:104900009DF84A2063F3861200238DF84A203B70FD
:1049100097E60BA90CA8079310F09AFE079B8DF859
:104920005C00302818BF06F1FF3613B9002F40F3A2
:10493000F4802E238DF85D3056E7474608F1FF38A6
:1049400017F8013C302BF8D02E2B08BF4746A7E7BD
:104950000123D5E7724F81467E1F0523A3E511078A
:1049600048BF0133A7E5184609930399D0470028AB
:10497000099B05DA1FB0BDE8F08F2023DDF810B0E9
:104980005A46002A0BF1FF3BEDDC049BCDF810B03A
:104990002B449D1AB9F1000F05D003994846D04722
:1049A0000028E7DB0135089B002B79D09DF94930C1
:1049B000002B29DBDFF86C913346187819F80020BA
:1049C00052079B4603F101033FD49DF84A30AE1BCA
:1049D00098065E4407D44246002A08F1FF383BDCC3
:1049E000079B33449E1A9BF800002E280AD1039996
:1049F000D0470028BEDBB8F1000F06F1010631DC1C
:104A00000BF1010B5D4638E0B14699F800007028C3
:104A1000C84609F1010913D1AE1B149D4644354423
:104A2000AB1B002B34DC03993B464246504610F04A
:104A300026FE00289EDB3044049E0546064465E0C1
:104A40000399D0470028E0DA94E705930399D0470B
:104A50000028059BB1DA8DE703993020D047002864
:104A6000B9DA87E703993020D04708F1FF38C0E76B
:104A70000399D0470028FFF67DAF287819F8003059
:104A80005907A84605F10105F2D4A6EB0B06C4E7C9
:104A900003993020D0470028FFF66CAF0136BFE7FE
:104AA0009DF84A30DA0601D41B0706D50399302059
:104AB000D0470028FFF65EAF0135059B3BB1039957
:104AC0009DF84B00D0470028FFF654AF0135A844AD
:104AD00006E003993020D0470028FFF64BAF0135A0
:104AE000A8EB0503002BF4DC03993B463246504605
:104AF00010F0C5FD0028FFF63DAF28449CE7039960
:104B00002020D0470028FFF635AF0135731B002B5E
:104B1000F5DCFFF7D3BB1E46BDE60DF15D08BAE636
:104B20006BA70100A8F301002DE9F34180460E4672
:104B3000154600272A4601A9404610F0B7FD314628
:104B400004460246019813F0A8F92D1B2744264479
:104B500001D0002CEED13946404610F0C6FD48B1D8
:104B600006490748074A492310F010FE0548492125
:104B700010F005FE384602B0BDE8F08194A70100B0
:104B8000209801006CA701002DE9F34180460D46F5
:104B900016460027324601A9404610F0BBFD0446E8
:104BA0002DB102460199284613F077F92544361BAA
:104BB000274401D0002CEDD13946404610F0CAFD03
:104BC00048B107490748084A8E2310F0DFFD064820
:104BD0008E2110F0D4FD384602B0BDE8F08100BF50
:104BE00094A70100209801006CA7010038B50D467C
:104BF00004462022002113F08BF9EB68E361AB68D7
:104C0000A3612B6823626B6863620022A2622A6937
:104C100023B1591E194208BF42F00102226101224C
:104C2000002104F12C0013F00EF848B105490648A4
:104C3000064A2E2310F0AAFD04482E2110F09FFDF5
:104C400038BD00BF94A70100209801009DA7010076
:104C50002DE9F04F89B0CDE90123436A00278B424B
:104C60000446884605970797BA4653D300F11406C1
:104C70004FF02003EFF3118B83F31288BFF36F8F94
:104C80003046D9460BF092FB58B94B4A4B494C4839
:104C9000722310F07BFD31464A4810F077FD7221F7
:104CA0005EE030460BF0A0FB079A2AB13946204659
:104CB00010F04BFE0023079306A9204610F073FD69
:104CC0000699414505462ED32268236A13F822101F
:104CD00021F0030103F8221003EB820A2168424607
:104CE000204610F084FDE3682060984216D000252D
:104CF00030460BF069FB40B389F31188BFF36F8F27
:104D0000059929B1A2690AB120469047002305936D
:104D1000002DADD1504609B0BDE8F08F236943F0B6
:104D200008032361E3E718B1204610F07AFDDFE7BE
:104D3000DDE90132134336D0039112F05AFF039993
:104D400088BB30460BF040FB68B91B4A1E491C4823
:104D5000F02310F01BFD31461C4810F017FDF02128
:104D6000154810F00CFD8BF31188BFF36F8FDDE950
:104D7000012304F12C000BF045FF05464FF0200302
:104D8000EFF3118983F31288BFF36F8F30460BF076
:104D90000DFB00283FF479AF3046B5FA85F50BF0EE
:104DA00023FB6D09A4E707AB05AA2046276810F08E
:104DB00055FD05469CE700BFDFA501000CA60100DC
:104DC0002098010021A6010066A601007DA6010031
:104DD0002DE9F0410446C36908460E46984704F1A0
:104DE000140507464FF02003EFF3118883F3128870
:104DF000BFF36F8F28460BF0D9FA68B9194A1A49E0
:104E00001A48722310F0C2FC2946194810F0BEFC63
:104E10007221144810F0B3FC28460BF0E5FA337801
:104E200043F00103337061683A46204610F0DFFC1E
:104E30006060204610F0A4FD28460BF0C5FA58B972
:104E4000084A0C490948F02310F0A0FC29460A48FA
:104E500010F09CFCF021DCE788F31188BFF36F8F22
:104E6000BDE8F081DFA501000CA60100209801003B
:104E700021A6010066A601007DA601002DE9F843E8
:104E8000044600F114074FF02003EFF3118883F379
:104E90001288BFF36F8F38460BF088FA054668B961
:104EA000344A35493548722310F070FC394634488D
:104EB00010F06CFC72212F4810F061FC38460BF0AA
:104EC00093FA2369A26813F0080F02D163689A422B
:104ED00000D9636A9B1A002B3DD0216A11F8223059
:104EE00013F0030001EB820938D0022803D151F8F6
:104EF0002260B60805D1D8071DD4E3694846984713
:104F00000646A1683246204610F071FC3146A0608A
:104F1000204610F07AFC38460BF056FA00BB154AD2
:104F200018491648F02310F031FC3946164810F0A5
:104F30002DFCF021BFE743F0020301F82230484680
:104F4000E369A568984729460246204610F04FFCC1
:104F50000025A060DFE71D46A946DCE70546FBE724
:104F600088F31188BFF36F8F002D8CD14846BDE8C0
:104F7000F88300BFDFA501000CA601002098010006
:104F800021A6010066A601007DA601002DE9F041E1
:104F90000446C36908460D46984704F114060746BF
:104FA0004FF02003EFF3118883F31288BFF36F8F64
:104FB00030460BF0FBF968B9264A27492748722387
:104FC00010F0E4FB3146264810F0E0FB7221214846
:104FD00010F0D5FB30460BF007FA2B786FF3000387
:104FE0002B7023699B0705D5E268236A03EB8203D4
:104FF0009D4220D12B786FF341032B70D4E902310D
:10500000994204D13A46204610F0F1FBA06039469F
:10501000204610F0FAFB30460BF0D6F980B90D4A65
:1050200010490E48F02310F0B1FB31460E4810F045
:10503000ADFBF021CBE72B6867F39F032B60EAE71A
:1050400088F31188BFF36F8F04F12C00BDE8F041A5
:105050000BF094BDDFA501000CA601002098010013
:1050600021A6010066A601007DA6010008B5044640
:105070004FF02002EFF3118382F31288BFF36F8F9A
:1050800009F0C6F9204605F0DBFB034810F0D6F91D
:1050900004F0F4FDFCE700BFC3A7010037B50B46E1
:1050A0001546044648B91449144A1548592310F0C6
:1050B0006DFB5921114810F062FB3AB911490F4AB2
:1050C0000F485A2310F062FB5A21F3E789B10268B6
:1050D0008A4204D3C06801AAFEF7F2F918B16FF052
:1050E0000B0003B030BD2379019A9A40A3689B1846
:1050F000F5D02B600020F4E713A80100ECA7010015
:10510000209801002CA8010038B50B460446114632
:1051100058B91D491D4A1E4840F2231310F036FBB2
:1051200040F22311194810F02AFBC06848B9194908
:10513000164A17484FF4927310F028FB4FF49271FF
:10514000F0E7A2684AB91449104A114840F2251301
:1051500010F01CFB40F22511E4E769B125688D428F
:105160000CD39A420DD89A1A23791A41954208D93C
:10517000BDE83840FEF74ABA084638BD6FF0150062
:10518000FBE76FF00D00F8E713A80100ECA70100A2
:105190002098010045A8010066A8010009F082B925
:1051A0002DE9F7430F4606460821C06ADFF8509004
:1051B00010F0A7FC3C68241A80463C6004EA09050C
:1051C000AC4203D8002003B0BDE8F08308236A4650
:1051D0002146304610F005FC0028F4D169463046DF
:1051E00010F099FC40B1BDF80230BDF804203C60DD
:1051F00005EA090513441D44A4EB0804E0E700BFD9
:105200000000FFFF2DE9F04F8FB0044600AF00F122
:105210001408404612F010FDA06A8368DB689847C6
:10522000E06280B9A84803685D0709D0A74B7B639B
:1052300002233B6307F130024FF4825110F05EFC11
:105240006FF015054FE0A06A8368DB689847036834
:10525000013B1F2B05D99C4803685C07F0D09C4B91
:10526000E5E7A06A216807F1140212F01EF828B1E0
:10527000954803685907E3D0964BD8E7A5892DB127
:10528000BB69B5FBF3F203FB12552DB18E480368E1
:105290005A07D5D0904BCAE7E389012B05D88A4835
:1052A00003685B07CCD08D4BC1E7E36A3D6093F8A0
:1052B00004A04FF0FF334FF0FF3240460BF000FBED
:1052C000E06A082110F01DFCA9460646E3891FFA92
:1052D00085FB5B450CD8E3894B4527D140460BF055
:1052E000BFFB6FF02C0528463C37BD46BDE8F08F6C
:1052F000A1892B04891B13FA81F152460823204609
:10530000396010F0BCFB78B13946204610F077FBCD
:1053100009F1010939680823524620461FFA89F924
:1053200010F0ADFB0028D6D00135CFE75B450BD19F
:10533000396808235246891B204610F0A0FB18B993
:105340003946204610F05BFB39462046FFF728FF20
:10535000054618B140460BF083FBC4E73B68636029
:105360004FEA13494FEA0949C4F80890D4E90113F8
:1053700099420FD308233A1D204610F032FB054610
:105380000028E7D13B1D13F8012B924545D101358B
:10539000082DF8D163681B0C1B04394620463B607E
:1053A00010F02DFBA38939685246204610F067FBA8
:1053B000051ECFDB636800F0A78003EB06094FF6FC
:1053C000FF7AA389C7F800901FFA89F29B1B9A42C3
:1053D0003DD300223C48036803F00703002A50D065
:1053E000022B09D93E4B7B6302233B6307F130025A
:1053F0004FF4865110F082FB63681B0C1B04394686
:1054000020463B6010F0FBFA3968204610F05CFB48
:105410000546002D00F096809CE7391D204610F0CF
:105420007AFB626810B9921B62609FE73D89F98838
:10543000E06AC4F80890294410F063FB48449042A5
:10544000A060F0D1002DEED06FF01C05D3E0082352
:1054500007F10C024946204610F0C3FA0546002821
:105460007FF478AF07F10C01204610F054FB20B117
:10547000BB89534501D13B8A0BB1B144A1E701225D
:10548000A8E7022B09D9174B7B6302233B6307F183
:1054900030024FF4865110F031FB6168204610F065
:1054A00013FB054600287FF455AF63680E4AA189B7
:1054B00013400B44A3EB460363601340A3602046F4
:1054C00010F00DFCA4E700BF14050020C3A80100E4
:1054D000E5A8010002A901001AA901002EA90100F6
:1054E00051A9010066A901000000FFFF5B1A5246A6
:1054F000204610F0C4FA051EFFF62CAF08D0E26A71
:10550000A36812681344A360D4E901318B42EDD83B
:105510006168A38901EB46029A427FF47AAFDFF813
:10552000E490A36801EA090293423FF472AF204677
:1055300010F0CAFA054600287FF40CAF636803EA4E
:105540000903A360A389A288A3EB46039A424ED025
:1055500040460BF085FADFF8B08001232374D8F8B9
:10556000003003F00703022B3FD96D4688B0E18974
:10557000A3896A462548D3610426C2E9050142F899
:10558000106F4FF40351404610F0B8FAD8F80030CD
:1055900003F00703022BAD4627D988B063686A463B
:1055A0001B495161190C9BB29161D3614FF40351B6
:1055B00042F8106F404610F0A1FAD8F8003003F01E
:1055C0000703022BAD4610D988B0A3686A4611497B
:1055D0005161190C9BB29161D3614FF4035142F8B0
:1055E000106F404610F08AFAAD4600257BE6204653
:1055F00010F05EFB054640460BF032FA002DAAD0B3
:1056000071E600BF0000FFFF140500208DA9010016
:10561000A4A90100B6A901002DE9F04F1D46037CA5
:105620008DB004468946904693B9694803685B0784
:1056300008D0684B0B930AAA02234FF482510A93B5
:1056400010F05CFA6FF00C0630460DB0BDE8F08F3C
:10565000C26A0821104610F054FA294682461046C4
:1056600010F04FFAA389A3EB8A03AB420746C0F0C0
:10567000AB801DB1B8F1000F00F0A6806368039302
:1056800004AA03A92046DDF80CB010F07CFA064607
:105690000028D9D1BDF810304B4505D06268039B76
:1056A0009A42EDD1E5B9CFE704A9204610F033FACC
:1056B0000028F3D0BDF81200BDF8143075B1AB422C
:1056C0000ED14FEA1B41090401442B4642462046B5
:1056D00010F0A2F9002803DC0646B5E7002BB3D092
:1056E000002F3ED104F1140301934FF0FF324FF02D
:1056F000FF3304F114000BF0E3F8DFF8DCB0E389CA
:105700009E425ED0D4E90123F9188A422CD3ADF829
:105710001A3006A8FF238DF81E30ADF81890ADF8AA
:105720001C5010F0A3F9A1682B464246204610F009
:1057300074FA29468246E06A10F0E3F9A26802444E
:10574000A260BAF1000F07D106A9204610F09FFA17
:10575000002814BF8246AA4601980BF081F95646EC
:1057600072E75744BFB2BDE7E06A082110F0C9F9FB
:105770004FF6FF73ADF8183000218DF81E30A38965
:10578000ADF81C10111802EA0B021A44101A6060DE
:1057900006A8ADF81A1010F069F906A9204610F015
:1057A00076FA211D204610F02AF9636803EA0B03FC
:1057B000A360204610F093FA82460028CCD101362F
:1057C0009DE76FF01B0AC7E76FF015063CE700BFC7
:1057D00014050020AFA801000000FFFF2DE9F047ED
:1057E0001E4688B0037CBDF8409004460F469046A4
:1057F0008BB9314803685B0708D0304B079306AA82
:1058000002234FF48251069310F078F96FF00C00E8
:1058100008B0BDE8F087C06A082110F072F9A389CA
:10582000A3EB4003B34243D3D4F804A0CDF804A0C3
:1058300000254D455146DDF804A009D9636853455C
:105840001ED1BDF80830BB421AD06FF00100DFE76F
:1058500002AA01A9204610F096F90028D8D1BDF877
:105860000830BB4206D102A9204610F054F908B115
:105870000135ADB26268019B9A42DAD15146E0E748
:10588000BDF80C30002BE0D0A945DED8BDF80A00E9
:10589000090CB3424FEA014128BF33460144424656
:1058A000204610F09EF80028B2D1BDF80C00AFE7FA
:1058B0006FF01500ACE700BF14050020AFA8010091
:1058C00030B51049104889B0002212F0F5F90F4D9B
:1058D0000F4900220023CDE9062300240E23CDE941
:1058E0000334CDE901440B4B00944FF40062284689
:1058F0000AF0F4FE084928460AF0FAFC204609B0EE
:1059000030BD00BF615A0000780B0020B8060020AF
:1059100080560020915D000092B001002DE9F04713
:10592000DFF85880044607464FF0010914B938469D
:10593000BDE8F08794FAA4F5B5FA85F509FA05F300
:105940002E0108EB05156FEA030A24EA03042B7BFA
:10595000002BEBD058F806301B694BB946440322A4
:1059600073682846196807EA0A0700F043FCDDE778
:10597000284698470028D9D1F0E700BFF0870100FA
:105980002DE9F047DFF8B8902E4CA9EB04039F2BCC
:1059900080460F460BD92C492C4A2D4840F219134A
:1059A0000FF0F4FE40F2191128480FF0E8FE2948E4
:1059B00010F07DFA064660B300252846BDE8F08762
:1059C000237B73B12368DB680BB1204698472368BB
:1059D0001B69B3B9636803221968204600F00AFC0A
:1059E000013610344C4518D91B49184A18484FF451
:1059F00093730FF0CBFE19480FF0C8FE4FF493716C
:105A0000D2E7204698470028E4D00AFA06F31D435F
:105A1000E6E705464FF0010AE4E7D1D3B8F1000FFD
:105A2000CBD0002DC8D02846FFF778FF0546002FC1
:105A3000F7D000214FF4A4700CF0B8F9F1E700BFE3
:105A400010880100F0870100FBA90100CEA9010028
:105A500020980100FC18002061AB01001FAA010082
:105A600001480BF08BB800BF10060020014B53F823
:105A700020007047D889010008B5034608462BB1BD
:105A8000044A136000F05EFF002008BD6FF01500AF
:105A9000FBE700BF7C00002010B5044C237813B94D
:105AA00003480BF06BF80123237010BDA0500020B9
:105AB0001006002010B50446084810F0F8F95CB153
:105AC000BFF35B8F064B53E8001F013943E8001218
:105AD000002AF8D1BFF35B8F10BD00BFF41800207F
