:10000000404600202D960000A747010019960000E9
:1000100019960000199600001996000000000000D3
:100020000000000000000000000000001598000023
:100030001996000000000000E197000019960000EA
:10004000FD990000FD990000FD990000FD99000058
:10005000FD990000FD990000FD990000FD99000048
:10006000FD990000FD990000FD990000FD99000038
:10007000FD990000FD990000FD990000FD99000028
:10008000FD990000FD990000FD990000FD99000018
:10009000FD990000FD990000FD990000FD99000008
:1000A000FD990000FD990000FD990000FD990000F8
:1000B000FD990000FD990000FD990000FD990000E8
:1000C000FD990000FD990000FD990000FD990000D8
:1000D000FD990000FD990000FD990000FD990000C8
:1000E000FD990000FD990000FD990000FD990000B8
:1000F000FD990000FD990000FD990000FD990000A8
:1001000001F0FF01102A2BDB10F0070F08D010F8C8
:10011000013B013A8B422DD010F0070F42B3F6D1CC
:10012000F0B441EA012141EA014122F007047FF0E5
:1001300000070023F0E80256083C85EA010586EA3C
:10014000010685FA47F5A3FA87F586FA47F6A5FA78
:1001500087F68EB9EED1F0BC01F0FF0102F0070284
:1001600032B110F8013B013A83EA010313B1F8D12F
:100170000020704701387047002D06BF3546033810
:10018000073815F0010F07D1013015F4807F02BF49
:10019000013015F4C03F0130F0BC0138704700BF9A
:1001A0007BB972B90029BEBF00204FF0004106E0C4
:1001B00008BF00281CBF6FF000414FF0FF3000F077
:1001C00057B8ADF1080C6DE904CE002909DB002B0E
:1001D0001ADB00F04FF8DDF804E0DDE9022304B09B
:1001E0007047404261EB4101002B1BDB00F042F8FD
:1001F000DDF804E0DDE9022304B0404261EB410197
:10020000524263EB43037047524263EB430300F0F7
:1002100031F8DDF804E0DDE9022304B0404261EB8F
:1002200041017047524263EB430300F023F8DDF8CD
:1002300004E0DDE9022304B0524263EB430370475C
:1002400053B94AB9002908BF00281CBF4FF0FF313D
:100250004FF0FF3000F00CB8ADF1080C6DE904CEA2
:1002600000F008F8DDF804E0DDE9022304B070478F
:10027000704700BF2DE9F04786468C460846089E29
:10028000154674461946002B40F0C2808542B2FAEA
:1002900082F245D94AB1C2F1200300FA02FC2EFADB
:1002A00003F3954043EA0C0C94404FEA154EA8B274
:1002B000BCFBFEF8230C0EFB18CC08FB00F943EA4C
:1002C0000C43994528D9EB1808F1FF3704D299451A
:1002D00002D9A8F102072B44A3EB0903A4B2B3FB94
:1002E000FEFC0EFB1C330CFB00F044EA0344A0426E
:1002F00014D92C190CF1FF3304D2A04202D9ACF16D
:1003000002032C44241A43EA07401EB1D4400023C0
:1003100034607360BDE8F0874746DDE76346F1E788
:1003200092BB431B01214FEA154EAFB2B3FBFEFC5B
:10033000200C0EFB1C330CFB07F840EA03439845E6
:1003400062D9EB180CF1FF3004D2984502D9ACF118
:1003500002002B44A3EB0803A4B2B3FBFEFC0EFB8C
:100360001C330CFB07F744EA0344A7424ED92C196F
:100370000CF1FF3304D2A74202D9ACF102032C44A2
:10038000E41B43EA0040C0E7C2F1200320FA03F176
:10039000954090402EFA03F303434FEA154EAFB257
:1003A000B1FBFEFC0EFB1C10190C0CFB07F841EA1C
:1003B0000041884504FA02F422D969180CF1FF3093
:1003C00004D2884502D9ACF102002944A1EB08010E
:1003D0009BB2B1FBFEFC0EFB1C110CFB07F743EAC2
:1003E00001439F420ED9EB180CF1FF3104D29F421A
:1003F00002D9ACF102012B44DB1B41EA004192E738
:100400006046E3E76146F7E76046A3E76346B7E780
:10041000834206D916B9002108467BE7C6E900E009
:10042000F9E7B3FA83F78FB9834201D3724508D84D
:10043000BEEB020460EB030301209C461EB90021C1
:1004400068E73846FAE7C6E9004CF8E7C7F1200C40
:10045000BB4022FA0CF41C432EFA0CF120FA0CF3E8
:10046000B84001434FEA14490EFA07F5B3FBF9F817
:100470001FFA84FE09FB18300B0C08FB0EFA43EA46
:1004800000439A4502FA07F240D9E31808F1FF3019
:1004900004D29A4502D9A8F102002344A3EB0A032F
:1004A00089B2B3FBF9F809FB183308FB0EFE41EAE9
:1004B00003418E452CD9611808F1FF3304D28E45D3
:1004C00002D9A8F10203214443EA0040A0FB0298AC
:1004D000A1EB0E014145CE46434602D306D14D4520
:1004E00004D2B9EB020E68EB04030138002EA6D04B
:1004F000B5EB0E0261EB030101FA0CFC22FA07F3E3
:100500004CEA0303F940C6E9003198E74046C5E7E5
:100510004346D9E710F8012B11F8013B012A28BF07
:100520009A42F7D0D01A7047034613F8012B002ADD
:10053000FBD1181A013870472DE9F04706468AB0FA
:100540000F46904614F0BEFF4FF47A73A0FB0345AC
:1005500003FB0155E40B012F44EA45444FEAD5352E
:1005600008D1CDE900452A4A0821304613F048FB5E
:10057000002013E0D8F8047026483946FFF7CAFF78
:1005800078B125483946FFF7C5FF50B13046234AB8
:100590003B46012113F034FB6FF004000AB0BDE8C4
:1005A000F0872046294618A3D3E90023FFF7F8FD7A
:1005B00005460C4610461946194A0023FFF7F0FD80
:1005C00080460F46104619464EF660220023FFF77C
:1005D000E7FD82468946104619464FF47A72002399
:1005E000FFF7DEFDCDE904A9CDE90601CDE9082339
:1005F000CDE90287CDE900540A4A0821304613F0BC
:10060000FFFAB5E7AFF30080005C260500000000AC
:100610003B8001004C8001004F80010058800100A8
:1006200080EE36006F8001002DE9F74F0C46114F28
:10063000064612F070FABB680193054688464FEAF9
:10064000E47A019B1B686BB914EB050948EB0A0BB4
:1006500012F061FA484571EB0B01F2DB002003B0A8
:10066000BDE8F08F3146384698470028ECD101208C
:10067000F5E700BF145C010070B5064E044645184E
:10068000AC4200D170BD14F8011BB36801485B682F
:100690009847F5E7145C010010B5164814F043FEC6
:1006A00038B9154803685A0703D0144A012113F0DA
:1006B00005F91048436881681B6802695B050ED420
:1006C0000F49104A104840F2ED3312F039FC0F4840
:1006D00012F036FC0B4840F2ED3112F028FC1368A2
:1006E00023F4806313600B68094ABDE810400A21B7
:1006F000184700BF005C0100F80300203B6B0100BD
:10070000CE6A01009D6A01000C6B0100296B01009B
:1007100010000A0010B5012303FA01F143680469CF
:100720001B6819420ED10E490E4A0F484FF4CB6395
:1007300012F006FC0D4812F003FC0A484FF4CB619E
:1007400012F0F5FB2368194218BF82F0010222B1B2
:100750008368DB68BDE81040184783681B69F9E7C8
:10076000CE6A01009D6A01000C6B0100296B01003B
:1007700010B51048436881681B6802691B040ED4D9
:100780000D490E4A0E4840F2ED3312F0D9FB0D48E8
:1007900012F0D6FB094840F2ED3112F0C8FB1368A5
:1007A00043F4004313600B68074ABDE810400F2173
:1007B000184700BF005C0100CE6A01009D6A01007D
:1007C0000C6B0100296B010001000A0020B100221E
:1007D00002480F21FFF79EBF0122F9E7005C0100EC
:1007E00037B5154B1D6825B3144843681B689B003B
:1007F0000ED41349134A144840F2FF5312F0A0FBE1
:10080000124812F09DFB0F4840F2FF5112F08FFB8F
:100810000469836801A95B68984720B92368019837
:100820005840C0F34070C0B22B4603B0BDE8304022
:10083000184703B030BD00BF08110020005C010064
:10084000CE6A01009D6A01000C6B0100296B01005A
:100850002DE9F041234C6768A5683B68226999003F
:100860000ED42149214A224840F2ED3312F068FBB0
:10087000204812F065FB40F2ED311C4812F057FBA6
:10088000136843F0005313602B681B4A1D21204658
:100890009847AE69B6B13B689B000CD41249134A25
:1008A000134840F28B3312F04BFB124812F048FB16
:1008B00040F28B31E1E74FF0C0634FF0A0721D2191
:1008C0002046B0470D490E4B4B604FF000538B60F4
:1008D000EB6923B1BDE8F041024801221847BDE8A9
:1008E000F08100BF005C0100CE6A01009D6A01003A
:1008F0000C6B0100296B0100110001000C1100209C
:10090000E1070000F8B500AF164C204614F00BFDCF
:100910000346A8B914480268510711D06D4688B043
:1009200021686A46114EC2E905614FF40071918356
:100930000F4942F8101F4FF4E25105F067F8AD4639
:10094000A3680C491B6807489847031E07DA064846
:100950000268520703D0084A012112F0B8FFBD46D1
:10096000F8BD00BF3C5C0100F00300206A6B010091
:10097000030000010E6001008E6B010070B588B0AD
:100980001422002103A814F095FE0DF1060305932F
:10099000022501240C23069504948DF81C30194877
:1009A000866803A973689847031E0BDA1648026825
:1009B000520703D0154A214612F089FF0024204631
:1009C00008B070BDBDF90640338902A96343002019
:1009D000029309F0F5FA002809D1029C24134FF480
:1009E000D2635C434FF47A7394FBF3F4E7E7F6DAEF
:1009F0000548036813F0060FE1D0054A294612F0B6
:100A00005DFFDCE73C5C0100F0030020AB6B010004
:100A1000BF6B0100F8B5214E00AF0DF0D3F833687D
:100A200003F00703022B044630D96D4688B06A46AE
:100A30001B4B53611B4B93614FF4007393831A4B11
:100A400042F8103F00234FF4E651304604F0DEFF39
:100A5000336803F00703022BAD4617D98AB06A4604
:100A6000124B536102239361230ED361C4F30743F6
:100A70001362C4F307240623546242F8103F002394
:100A80004FF44351304604F0C1FFAD4600F010F87A
:100A900001F0F8F901F066FBFCE700BF000400205C
:100AA000E56B0100EF6B010003000001026C010027
:100AB00030B5444D4448A86287B00023CDE90333E4
:100AC000059314F030FC60B94049414A41481C2369
:100AD00012F036FA404812F033FA1C213C4812F06A
:100AE00026FA4FF47821A86A296003AA14F079F84D
:100AF000044658B1364A39493648202312F020FAC4
:100B00002146374812F01CFA2021E7E7354C2368CC
:100B100003F00703022B08D9049B4FF40042009214
:100B20000321314A204612F0DCFE049A2548AA81AE
:100B30004FF40043B3FBF2F3EB8103F05DFF50B1E0
:100B40002649234A2348282312F0FAF9274812F0AD
:100B5000F7F92821C2E7029004231A4802AA0121CA
:100B600012F0FAFD2368002803F007031FDD022BB3
:100B700005D9029B1E4A1B48032112F0A8FE029BC6
:100B800010480133029302AA0423012104F00CF956
:100B90000428236810D103F00703022B05D9029B18
:100BA000144A03210F4812F092FE07B030BD022B09
:100BB000E5D9114A0123DEE75B07F6D0029B0F4A15
:100BC0000121EFE718110020505C0100466C010084
:100BD000266C01000C6B0100516C0100636C01007C
:100BE0006E6C0100040400208F6C0100AF6C0100EA
:100BF000C46C0100FF6C0100D56C0100196D01008F
:100C000038B5044660B91D491D4A1E483F2312F0FD
:100C100097F91D4812F094F919483F2112F087F90D
:100C2000024648231948052112F096FD002824DCCD
:100C3000174D2B6813F0060F04D0164A02212846E0
:100C400011F0F0FF48220021204614F033FD124934
:100C5000204614F046FD0D4848232246052104F0A5
:100C6000A3F8482809D02B685B0706D0BDE83840B8
:100C70000A4A0748012111F0D5BF38BD326D010085
:100C8000266C01000C6B01004B6D01001811002057
:100C900004040020616D01007F6D0100826D010080
:100CA00008B5024660B91149114A1248512312F0A1
:100CB00047F9114812F044F90D48512112F037F963
:100CC0000E484823052104F06FF848280BD00C4843
:100CD00003685B0702D16FF0040008BD094A0121D7
:100CE00011F0A0FFF7E70020F7E700BF326D010029
:100CF000266C01000C6B01004B6D010018110020E7
:100D0000040400209A6D010038B5044660B91B49FF
:100D10001B4A1C485F2312F013F91B4812F010F90C
:100D200017485F2112F003F90246342317480221C5
:100D300012F012FD002820DC154D2B6813F0060F71
:100D400004D0144A0221284611F06CFF34220021FD
:100D5000204614F0AFFC0D4834232246022104F053
:100D600023F8342809D02B685B0706D0BDE838404B
:100D7000094A0748012111F055BF38BDB06D010087
:100D8000266C01000C6B01004B6D01001811002056
:100D900004040020CA6D0100E96D010008B5024697
:100DA00060B91149114A1248702312F0C9F811486C
:100DB00012F0C6F80D48702112F0B9F80E4834232D
:100DC000022103F0F1FF34280BD00C4803685B07C5
:100DD00002D16FF0040008BD094A012111F022FF81
:100DE000F7E70020F7E700BFB06D0100266C0100B7
:100DF0000C6B01004B6D0100181100200404002051
:100E0000026E010038B5044660B91A491A4A1B48F7
:100E10007E2312F095F81A4812F092F816487E21B7
:100E200012F085F8024608231648032112F094FCBC
:100E300000281EDC144D2B6813F0060F04D0134A53
:100E40000221284611F0EEFE0023236063600D4866
:100E500008232246032103F0A7FF082809D02B68A6
:100E60005B0706D0BDE83840094A0748012111F068
:100E7000D9BE38BD196E0100266C01000C6B010053
:100E80004B6D01001811002004040020346E010095
:100E9000516E010008B5024660B91149114A124865
:100EA000902312F04DF8114812F04AF80D489021A5
:100EB00012F03DF80E480823032103F075FF0828BF
:100EC0000BD00C4803685B0702D16FF0040008BD2B
:100ED000094A012111F0A6FEF7E70020F7E700BF5D
:100EE000196E0100266C01000C6B01004B6D0100B6
:100EF00018110020040400206D6E010038B504466E
:100F000060B91B491B4A1C489F2312F019F81B4863
:100F100012F016F817489F2112F009F8024608232C
:100F20001748042112F018FC00281FDC154D2B680F
:100F300013F0060F04D0144A0221284611F072FE65
:100F40004FF00A33236063600D48082322460421D2
:100F500003F02AFF082809D02B685B0706D0BDE8FC
:100F600038400A4A0748012111F05CBE38BD00BF75
:100F7000876E0100266C01000C6B01004B6D0100B7
:100F80001811002004040020A36E0100516E01001E
:100F900008B5024660B91149114A1248B12311F04F
:100FA000CFFF114811F0CCFF0D48B12111F0BFFF68
:100FB0000E480823042103F0F7FE08280BD00C4844
:100FC00003685B0702D16FF0040008BD094A0121E4
:100FD00011F028FEF7E70020F7E700BF876E010059
:100FE000266C01000C6B01004B6D010018110020F4
:100FF000040400206D6E010010B5064A0446082165
:1010000012F0FEFD2046044A082112F0F9FD0020EE
:1010100010BD00BFCE6E0100E46E010010B50229C4
:1010200092B0144614D1182200210CA814F042FBEF
:10103000182200210DEB020014F03CFB61686846A9
:1010400014F04FFB6846FFF72BFE002012B010BDD6
:1010500003290BD1182200210CA814F02BFB616886
:10106000684614F03EFBA16806A8E9E704290AD106
:101070005168684614F035FBA16806A814F031FBEE
:10108000E1680CA8DCE7024A082112F0B9FDDCE7B0
:10109000ED6E010010B5A6B004463422002107A869
:1010A00014F008FB00230022CDE90223CDE904233C
:1010B0000021482214A814F0FDFA07A8FFF724FE27
:1010C00002A8FFF79FFE04A8FFF718FF14A8FFF778
:1010D00097FD07AB2046144A082112F091FD139B9F
:1010E000124A2046082112F08BFDDDE9022320463A
:1010F000CDE9002308210E4A12F082FDDDE9042328
:101100002046CDE9002308210A4A12F079FD20ABE0
:1011100001931AAB00932046074A14AB082112F042
:101120006FFD002026B010BD016F0100146F01009B
:10113000236F0100346F0100516F0100DFB50229F8
:101140004FF000064FF00007CDE902670446134652
:1011500006D0104A082112F053FD002004B0D0BD83
:1011600058681022002110F043FBCDE9020102A8CB
:10117000FFF790FE60B9DDE902230821CDE90023E5
:101180002046054A12F03CFD044A08212046E2E7C9
:10119000034AFAE7ED6E0100236F01006F6F010053
:1011A000756F01000129F8B50C46164616D90E4890
:1011B0000121FFF761FA012556F825703846FFF73F
:1011C000B3F9013501463846FFF756FAA542F3D187
:1011D00005480121FFF750FA0020F8BD034A082115
:1011E00012F00EFDF8E700BF94AA0100ED6E0100B9
:1011F00030B503298FB00446154606D0164A08219B
:1012000012F0FEFC00200FB030BD3422002101A8F6
:1012100014F050FA6968302201A814F07CFAA8682A
:101220000A22002110F040FA0D9001A8FFF7B6FD48
:1012300078B90A4A01AB0821204612F0E1FC084ABD
:101240000D9B0821204612F0DBFC064A08212046AF
:10125000D6E7054AFAE700BFED6E01007F6F010097
:101260008E6F01006F6F0100756F010002291FB5BD
:101270000446134606D0104A082112F0C1FC002093
:1012800004B010BD58680A22002110F091F9CDE990
:10129000020102A8FFF77CFE60B9DDE90223082104
:1012A000CDE900232046054A12F0AAFC044A082191
:1012B0002046E2E7034AFAE7ED6E0100996F01006C
:1012C0006F6F0100756F01002DE9F04F93B00E466E
:1012D000054600AF1C46904611F05CFC314628469E
:1012E000FFF7CAF911F0A6FCDFF8ACA00646894664
:1012F0004FEAE47B2246402107F1080011F058FC38
:10130000054678B933194BEB09057B6011F092FC67
:101310007B689842A941EDDB002528464C37BD4645
:10132000BDE8F08FDAF8003003F00703022B15D97F
:10133000C7F804D08AB06A46184B536107F1080316
:10134000C2E90638164B1362164B42F8103F4FF4B1
:101350002351504611F07CFCD7F804D0414607F1E8
:10136000080014F0F7F90028D7D10F4907F1080059
:1013700014F0F0F90028CFD10C4907F1080014F05F
:10138000E9F90028C8D10A4907F1080014F0E2F988
:101390000028B7D0C0E700BF0C0400201A7301007A
:1013A00000020103040000022273010028730100FF
:1013B00032730100F7B5164B164D18681B798DF87E
:1013C00004302B68009003F00703022B04D9124A63
:1013D0000321284611F02CFC104F18264FF47A7385
:1013E0003A4604216846FFF76FFF044608B9013EFC
:1013F000F4D12B6803F00703022B05D9084A0548EE
:101400002346032112F063FA204603B0F0BD00BF6B
:101410006D7301000C04002039730100D3730100C7
:101420004E730100F0B5194D2B6803F00703022B32
:1014300085B004D9164A0321284611F0F9FB154B53
:101440006A4603F10807164618685968144603C42B
:101450000833BB422246F7D118689B882060A380DE
:101460000D4A4FF47A730D213046FFF72DFF2B689C
:1014700003F00703022B044605D9084A034603215B
:10148000024812F024FA204605B0F0BD0C040020FA
:1014900072730100A8730100D37301008873010007
:1014A0002DE9F04F87B000AF904605460E4611F08B
:1014B00071FB344B07F1080203F1080C91461868E0
:1014C0005968144603C4083363452246F7D11868A7
:1014D0001B79206023712C4C236803F00703022B37
:1014E00013D9EA4688B06A46284B536107F10903CD
:1014F00093614FF400739383254B42F8103F4FF4F0
:10150000E651204611F0A4FBD54648460C21FFF7D2
:10151000B3F811F08FFB002381468A46FB7141F638
:101520003F7B0A21F81DFFF77FF810B1FB793E2BB6
:1015300008D011F07FFB19EB0B024AF10003824245
:101540008B41EEDA11F026FBFB793E2B0CD02368A1
:101550005A0704D00F4A0C48012111F069FB002002
:101560001C37BD46BDE8F08F0B4A4346314628463E
:10157000FFF7AAFE0028F3D123685B07EFD0074AE4
:10158000E9E700BFE87301000C040020B673010016
:1015900003000001BB730100CE730100D67301008C
:1015A000F0B53A4D2B6803F00703022B8FB004D936
:1015B000374A0321284611F03BFB364B364A186860
:1015C0001B7900908DF8043004214FF47A7368463B
:1015D000FFF77AFE70B900242B6803F00703022B93
:1015E00005D92E4A29482346032112F070F92046D6
:1015F0000FB0F0BD2A4B18689A889B790290ADF81D
:101600000C208DF80E30244A6423062102A8FFF72F
:101610005BFE0028DFD0234A1068516806AB03C385
:10162000906818601C4A4FF47A730B2106A8FFF7E4
:101630004BFE0028CFD01C4B09AA03F11007164619
:1016400018685968144603C40833BB422246F7D1D0
:101650001B782370104A4FF47A7310213046FFF73D
:1016600033FE0028B7D0114B18689A889B790490F4
:10167000ADF814208DF81630074A4FF47A7306211E
:1016800004A8FFF721FE0446A6E700BF0C040020D3
:10169000F57301006D730100D37301000C74010038
:1016A0002D74010034740100407401005174010074
:1016B0001FB5084A1068516801AB03C390681860F1
:1016C000054A4FF4FA530B2101A8FFF7FDFD05B0C1
:1016D0005DF804FB58740100D37301001FB5084A7C
:1016E0001068516801AB03C390681860054A4FF455
:1016F0007A730B2101A8FFF7E7FD05B05DF804FB45
:1017000064740100D37301002DE9F04F234CBFB086
:10171000236803F00703022B02AF064604D9204AD0
:101720000321204611F084FADFF878904FF05A0830
:101730001D4B07F1880203F1080E15461868596819
:101740009446ACE80300083373456246F6D1186846
:101750001B79CCF800008CF804304A464FF47A73B9
:101760000C212846FFF7B0FD10BB4FF400400021CC
:101770000DF0DCFDB8F10108DAD10025236803F093
:101780000703022B05D9094A04482B46032112F00E
:101790009EF82846F437BD46BDE8F08F0C040020C3
:1017A00070740100D373010008750100E474010036
:1017B000B64B07F1380203F10808964618685968D5
:1017C0009446ACE80300083343456246F6D11868F6
:1017D0001B79CCF800008CF80430AD4A4FF4FA6362
:1017E0000C217046FFF770FD0028C6D0A94B07F109
:1017F000580203F108089646186859689446ACE800
:101800000300083343456246F6D1186899889B79EE
:10181000CCF80000ACF804108CF806309E4A642323
:101820000E217046FFF750FD0028A6D09B4B07F114
:10183000480203F108089646186859689446ACE8CF
:101840000300083343456246F6D118689B88CCF8FC
:101850000000ACF80430924A64230D217046FFF773
:1018600033FD002889D006F130030093324606F19B
:1018700018038C4928460FF035FD236803F0070351
:10188000022B064613D9E84688B002AA864B53615C
:1018900007F1890393614FF400739383834B42F8FC
:1018A000103F83484FF4E65111F0D2F9C5467C4A07
:1018B000642331462846FFF707FD00283FF45DAF5B
:1018C0007C4A5168106807F1140303C31189927AA6
:1018D00019809A70236803F00703022B13D96D4611
:1018E00088B002AA704B536107F1150393614FF45E
:1018F000007393836D4B42F8103F6D484FF4E651EF
:1019000011F0A6F9AD46664A4FF47A630A2107F151
:101910001400FFF7D9FC00283FF42FAF664A516846
:10192000106807F1200303C31189927A19809A7015
:10193000236803F00703022B13D96D4688B002AA6F
:10194000594B536107F1210393614FF40073938363
:10195000564B42F8103F56484FF4E65111F078F9D3
:10196000AD46564A4FF4FA630A2107F12000FFF70B
:10197000ABFC00283FF401AF514A1068516807F1F1
:101980002C0303C31189927A19809A7011F002F91D
:101990000A2107F12C00FEF76FFE11F04BF92368C6
:1019A00003F00703022B0646884613D96D4688B01C
:1019B00002AA3D4B536107F12D0393614FF400736D
:1019C00093833A4B42F8103F39484FF4E65111F0F7
:1019D0003FF9AD46DFF8ECA007F168096422202149
:1019E000484611F0E5F80546002843D0236803F087
:1019F0000703022B11D9EB4688B002AA324B2C48C0
:101A0000C2E905394FF400739383284B42F8103F25
:101A10004FF4E65111F01CF9DD4607F11003019374
:101A200007F10C0300933A1D07F10803514648469D
:101A30000FF078FC0428D1D1236803F00703022BB0
:101A40007FF69CAE6E468AB0D7E901C0D7E9031392
:101A500002AADFF878E053620623C2E90701C2E96F
:101A600005EC134842F8103F4FF4435111F0F0F8E1
:101A7000B54683E611F0DEF840F69F73F31848F19F
:101A8000000283428A41A9DB77E600BF1575010099
:101A90008A74010022750100927401003175010001
:101AA000D3730100A4740100B673010003000001A8
:101AB0000C0400203F7501004A750100BD7401004F
:101AC00055750100D8740100C7740100CC74010081
:101AD000F0B595B03C4C00AF0B4602463B4907F1D0
:101AE00010000FF0FFFB236803F00703022B0546ED
:101AF00013D96E4688B06A46354B536107F111031E
:101B000093614FF400739383324B42F8103F4FF4CC
:101B1000E651204611F09CF8B5462F4A41F2707309
:101B2000294607F11000FFF7CFFB60B9236858077B
:101B300004D02A4A2448012111F07AF800252846C9
:101B40005437BD46F0BD2649264BC7E90413264B42
:101B5000BB610023BB834FF47A621A230F2107F184
:101B60001000BB77FFF79CFC20B923685A07E5D02B
:101B70001E4ADFE74FF47A62052107F1080010F0F2
:101B8000D9FF054620B923685B07D7D0184AD1E7AB
:101B9000184B186838601B793B710522394607F1EC
:101BA000080013F04FFD236803F0070318B1002B62
:101BB000C4D0114ABEE7022BC1D9104A0248032102
:101BC00011F036F8BBE700BF0C040020607501007F
:101BD000B6730100030000017E75010089750100E4
:101BE000100C00044D5154540402003C997501003E
:101BF000A8750100B45F0100C2750100D475010031
:101C00002DE9F041614A624DAAB0516806AF044621
:101C1000106807F1200303C31189927A19809A7022
:101C200010F0B8FF0A2107F12000FEF725FD2B6810
:101C300003F00703022B13D96E4688B006AA554B52
:101C4000536107F1210393614FF400739383524B67
:101C500042F8103F4FF4E651284610F0F9FFB54620
:101C600007F150064FF47A724021304610F0A0FF81
:101C700020B901209037BD46BDE8F0812B6803F004
:101C80000703022B11D9E84688B006AA434B404807
:101C9000C2E905364FF4007393833F4B42F8103F7F
:101CA0004FF4E65110F0D4FFC5463D49304613F0DD
:101CB00051FD48B92B68580704D03A4A34480121ED
:101CC00010F0B6FF0020D5E73749304613F042FD4B
:101CD00020B12B685907F5D0344AEFE707F11C0310
:101CE0000593FB1C049307F11803039307F11403F6
:101CF000029307F11003019307F10C0300932C49A1
:101D000007F108033A1D30460FF00CFB082832D1CA
:101D10007B6864333B64BB68013BFB63FB68BB636C
:101D20003B697B637B693B63BB69FB6207F12C000A
:101D30004FF0FF33FB640FF057F8B1F1FF3F08BFDE
:101D4000B0F1FF3F12D0FB69FD784FF4617253434D
:101D50002B2D4FEAE37205D1C31A61EB0201C4E9EE
:101D6000003186E71B1842EB0101F8E72B685A07A0
:101D7000A8D0104AA2E72B685B073FF47AAF0E4A5F
:101D80000348012110F054FF73E700BF8A76010079
:101D90000C040020B673010003000001C7740100A9
:101DA000F7750100FD75010010760100197601003C
:101DB0003276010051760100717601007FB50D4B3E
:101DC0006A4603F10806154618685968144603C4A4
:101DD0000833B3422246F7D118689B882060A3805D
:101DE000054A4FF47A730D212846FFF76DFA04B0C7
:101DF00070BD00BF95760100D373010008B513F0E4
:101E000061FB4FF47A72A0FB020302FB0131C00BAD
:101E10004FF47A72002340EA4140C90BFEF7C0F943
:101E2000064AD2E90032C01A61EB0201044AD2E943
:101E30000032C01841EB020108BD00BF20050020A0
:101E40002805002038B50D48FFF7DAFE054698B1A1
:101E500013F038FB4FF47A72A0FB024302FB01310E
:101E6000E40B002344EA41404FF47A72C90BFEF7B9
:101E700097F9034BC3E90001284638BD2805002027
:101E8000200500202DE9F04F83B000AF9E4D9F4C00
:101E9000284613F048FA0346A8B92268510712D021
:101EA00029686D4688B06A469948C2E905014FF431
:101EB00000719183974942F8101F4FF4E251204678
:101EC00003F0A4FDAD46944DDFF850B2DFF8509218
:101ED000DFF850822846FFF711F82B6868683C212C
:101EE000A3FB013201FB00225846C5E90032FEF790
:101EF00089FF4846FEF708FF4046FEF781FE23684B
:101F000003F00703022B71D96E4688B0D5E90001B2
:101F10006A46854B53614FF0040AC2E9060142F854
:101F200010AF002379484FF4035103F06FFD23688D
:101F300003F00703022BB54658D988B0DBE900014E
:101F40006A467A4B5361C2E9060142F810AF00239A
:101F50006E484FF4035103F059FD236803F0070363
:101F6000022BB54642D988B06A46714BC2E90539A1
:101F70004FF400739383674B42F8103F002363488C
:101F80004FF4E65103F042FD236803F00703022BF0
:101F9000B5462BD9D9F83030664A5C48032111F098
:101FA00096FC236803F00703022B1FD98CB06A4606
:101FB000614BC2E9053808F11803D3615F4B3B6000
:101FC00040F20243BB8008F13003136207F10803BB
:101FD00013E903005A4B5062118542F8103F4B48F9
:101FE00000234FF4535103F011FDB546FEF7C0FB3B
:101FF0000020FEF7EBFB10F02EFEFEF729FCFEF7AB
:1020000081FC484EDFF83C81DFF80091FFF7D2F900
:1020100048B923685A0703D04146484610F055FE98
:1020200010F066FEF2E7FFF7BBFA20B923685B0702
:10203000F6D045490EE0FFF7F5F920B923685807B7
:10204000EED0424906E0FFF7B5F928B923685907F1
:10205000E6D03C492D48E1E73046FFF755FB20B973
:1020600023685A07DCD03A49F4E7FFF7EBFE20B9C2
:1020700023685B07D4D03749ECE7FFF72FFB10F05C
:102080002AFEFFF7BBFED5E9002304460E46FEF705
:1020900087F8A01A304A314D66EB030300244FF055
:1020A000FF31C2E900036FF07F067F222C726C7251
:1020B000AC72EC722C736C73AC73EC73AC70EE702E
:1020C00029706A702C716C71AC71EC7129766A762A
:1020D00028616B61224D2C726C72AC72EC722C73A5
:1020E0006C73AC73EC73AC700C37EE7029706A7063
:1020F0002C716C71AC71EC7129766A7628616B6118
:10210000BD46BDE8F08F00BF8C5C010010040020CC
:10211000A376010003000001380500201805002007
:1021200048110020B41E0020BA760100D0760100CC
:10213000DD760100F4760100097701000002010359
:10214000050000033677010052770100697701002E
:102150007C7701008E77010030050020161F0020DB
:10216000FC1E00202DE9F04F002693B0CB4DCC4C47
:10217000AF683B21FB68284698478146002840F01D
:1021800026810D213B6904AA2846984710213B6906
:1021900006AA28469847049BC249059E96FBF1F67D
:1021A00003EB830306EB4306236803F00703022BCC
:1021B00036B20FD9069A079B93FBF1F302EB82022A
:1021C00003EB42031BB2B84A009303213346204677
:1021D00011F087FB10F07FFDFEF7D0FB236803F0C2
:1021E0000703022B804605D9B04A03460321AC48B9
:1021F00011F06DFBFFF702FEDFF8B4A20746AD4811
:10220000DAE900328B46D0E900105B1842EB00029D
:102210009F427BEB0202C0F29180A74DEB680393D3
:10222000002B3EDD2522002108A813F043FAA34A23
:10223000117841B1126B32B1A14A039BD2E900106F
:10224000084340F0D58023685A0740F0CC80FFF760
:1022500045FA0120FEF7BAFA0021842010F039FD7A
:102260000020FEF7B3FA00214FF4004010F031FDDA
:102270000120FEF7ABFA0021842010F02AFD002097
:10228000FEF7A4FA00214FF4004010F022FD0120D7
:10229000FEF79CFA8420002110F01BFD0020FEF7C1
:1022A00095FA844CFFF7AAFDD4E90023DAE900C5CA
:1022B00012EB0C0C43EB0505604571EB0505C0F214
:1022C0004E8138465946FDF76BFF7B4DBA1A4FF0E9
:1022D00000044FF0FF304FF07F016BEB03036FF012
:1022E0007F0C2C726C72AC72EC722C736C73AC73CE
:1022F000EC73AC7085F803C0287069702C716C7138
:10230000AC71EC71287669762A616B616D4DCAE912
:1023100000232C726C72AC72EC722C736C73AC7305
:10232000EC73AC7085F803C0287069702C716C7107
:10233000AC71EC71287669762A616B61B9F1000F96
:102340003DD15D4AB2F9023090681683B342BFBFF7
:1023500013695680FB1A9380B2F900303044B342BF
:10236000C8BF13699060D068C4BF1680FB1A00F123
:102370000100C8BFD380D060524A4FF47A73B2F9DB
:10238000020098FBF3F103FB11810BB29842BFBF2F
:1023900010695380381A9080B2F900001383984274
:1023A000C8BF13809368C8BF10690B449360D3689B
:1023B000C8BF3F1A03F10103C8BFD780D3604FF4F1
:1023C000A020002110F085FC13B0BDE8F08F236839
:1023D000590705D03C4A03460121204611F077FAFF
:1023E00010F086FCF8E639492D4810F06EFC2EE717
:1023F00001208DF820009288D5F810C06869ADF8EA
:102400002520304ACDF82B00CDF827C0CDF821107B
:10241000B2F918100A2091FBF0F18DF83B10916889
:10242000D2F80CC091FBFCF191FBF0F18DF83C105F
:10243000B2F9021091FBF0F18DF83D10B2F90010E5
:1024400091FBF0F18DF83E10B2F90610ADF8411095
:10245000B2F90420ADF83F20B5F91820ADF82F20CF
:10246000AA6892FBF3F3ADF83130B5F90230ADF85C
:102470003330B5F90030ADF83530B5F90630ADF888
:102480003930B5F90430ADF83730FFF711F908BB32
:1024900023685B073FF4DBAE0D49A5E78C5C0100C8
:1024A00010040020A08601009F770100CC77010076
:1024B0003005002038050020161F0020481100209C
:1024C00018050020FC1E0020B8770100E477010009
:1024D000FA770100FEF76EFF28B923685D073FF425
:1024E000B6AE224980E7FFF75BF828B923685C079E
:1024F0003FF4ADAE1E4977E71E48FFF705F928B94E
:10250000236858073FF4A3AE1B496DE7FFF79AFC19
:1025100028B9236859073FF49AAE184964E7184868
:10252000016BFFF7D5FA28B923685A073FF48FAE3D
:10253000144959E71448252208A910F093FB48B91B
:1025400023685B0703D01149114810F0BEFBFFF769
:1025500035FC7CE6FFF732FCFFF7C0F8A1E64FF44C
:102560000040002110F0B5FB9CE600BF367701006B
:1025700052770100B41E00207C7701008E770100A5
:1025800048110020117801002878010034780100FA
:102590001004002010B5094C0A44914200D110BD2E
:1025A00011F8013B584003090001E35CC0B243400D
:1025B00018091B01205CDBB25840EEE7507801009F
:1025C00008B500F0B7F80A4941610A490122C0E99B
:1025D00000220A6008490A60084A00231360084A7A
:1025E00003611360C0E90233064A136008BD00BFEF
:1025F00095AA01001C010020180100208411002070
:10260000801100207C1100202DE9F04107460E4684
:10261000154600F08FF8C36804461BB943691A7861
:10262000002A41D10023E3606368BB4256F82320AF
:1026300008DB324B6361204600F062F84FF0FF3058
:10264000BDE8F081511C616192F80080B8F12D0F56
:10265000EFD1911C61615178A1602D2904D192784C
:102660006AB901336360E4E749B9244B63614146C9
:10267000284613F029F80028DDD0C4F80880D4F8E3
:1026800008802846414613F01FF8B8F13A0F6369F5
:1026900000D070B91B7813B96368013363602046BA
:1026A00000F02EF83F20CBE75A1C42611B78836074
:1026B000E5E742783A2A0BD0002222611B7813B951
:1026C000636801336360204600F01AF8A068B7E73A
:1026D00018786268094928B901329742626004DDBE
:1026E00056F82230C4E90431EAE761612D783A2DC9
:1026F0002046D5D100F004F82846A1E795AA0100AC
:10270000074B02681A60074B42681A60064B8268E2
:102710001A60064BC2681A60054B02691A6070475E
:102720001C010020180100208411002080110020CD
:102730007C11002000487047000100202DE9F04F77
:1027400091B08407009302F004030293C2F3C20322
:1027500003F10103DDF86880039205460E460593F8
:1027600040F0F581041D30B1072909D86FF01B0036
:1027700011B0BDE8F08F01F00706341DC6F1080660
:10278000009B4FF00009013B4FF0040B0193CDF883
:1027900010904F464B464FF0FF32DA460DB100998C
:1027A00021600598002800F3D7809848009981425D
:1027B00003D397488142C0F0CF800399A4EB050E64
:1027C00089074FEA9E0040F1E2804FF0000CCCE018
:1027D0007A285AD84B280CD8472856D829282AD8DE
:1027E000252851D051D8202877D02338434243415F
:1027F00073E04C382E2848D8DFE800F06F47474791
:102800004747474747474747494747474747474756
:1028100047594749495959596F496C476F471849B2
:10282000184747807D49474749477D0000200023DE
:102830004FF0040B39E02A38C0B2012101FA00F050
:1028400010EA0E0F49D110F0625C30D110EA01039A
:1028500043D06046013C5C44B4FBFBF40BFB04F446
:10286000002D60D0AAEB050CA444B4453FF67EAF22
:1028700000286AD1BAF1040F45D158F8040B206042
:1028800004344FF0040A28E0013A002325E0019BBC
:1028900013F8013C6C2B33D1019B13F8023C002050
:1028A0006C2B0346C4D14FF0080BDA46D2E708F18F
:1028B000070828F007080734F8E802AB24F00704FB
:1028C00035B106982044B0423FF650AFC4E900ABA2
:1028D000083400234FF0080BDA46019911F8010F74
:1028E0000191002800F0BB80002B7FF471AF2528F8
:1028F000F3D1013201234FF0040BEDE7184696E7C0
:1029000000200346A6E7BAF1080F40F09A8008F1CC
:10291000070828F00708F8E80201C4E900010834B4
:102920004FF0080AD9E780B9BAF1040F02D108F1D3
:102930000408A5E7BAF1080F40F0838008F1070802
:1029400028F0070808F10808E9E705990139059119
:1029500058F8041B009121E7039988074AD5A4EB96
:10296000050E4FEA9E004FF0010CBEF5007F1ED30E
:102970002849294A294840F27B2310F0E1FA2848E7
:1029800010F0DEFA40F27B21234810F0D0FA0F2F2E
:102990000FD8002D48D007F140010DEB010C0CF8C9
:1029A000200C0CF8102C04980130049021E00F2F1B
:1029B0000CD91849184A19484FF4207310F0C0FA7E
:1029C000184810F0BDFA4FF42071DDE7CDB107F1E2
:1029D00040010DEB010EC0B20EF8200C0EF8102CC9
:1029E000BCF1000FDFD060F07F000EF8200C09F181
:1029F00001090137C5F10801043406914FF6DA7E6A
:102A00006BE7BCF1000F0FD00136F2E7305B01003D
:102A100090B40100ACA50100677801000C6B0100C7
:102A200095780100B6780100029802360028E0D1BE
:102A30000098CDE90632FDF777FDDDE90632064460
:102A4000D7E7444A4449454840F2C52310F078FA94
:102A50005146434810F074FA40F2C52194E7631BD5
:102A6000B3F5806F0CD33C493A4A3C4840F2D1233D
:102A700010F066FA3B4810F063FA40F2D12183E788
:102A80001DB9A6F10804E01872E6029A28609B08B6
:102A90002B709DF81030C2B1EB7085F80290B9F13F
:102AA000000F05D008A80022C5F1010C97420ED1F5
:102AB000C5F101030DF120084FF0000A01930DF15B
:102AC000300B574512D1601B52E66B70E5E710F8EA
:102AD000013B190608D504EB0C0EB64503F07F0345
:102AE0003FF644AE04F8013B0132DFE7B9F1000FD5
:102AF00003D098F90020002A17DB029BD3B11AF803
:102B00000B2004F8012B0022019B98182044B042AE
:102B10003FF62CAE98F8000004F8010B00990392E0
:102B2000204612F09FFD039A14440AF1010A08F1AD
:102B30000108C6E798F8002055F822300093029B60
:102B400045F822300098FDF7EFFC421CDCE76FF0FF
:102B50000D000DE667780100ACA501000C6B0100CB
:102B6000D0780100E57801002DE9F04F97B000AF73
:102B70008946D7F880B0FA623B62044658B9AA4940
:102B8000AA4AAB484FF4657310F0DAF94FF4657157
:102B9000A64810F0CCF9CBF3C00390F802A07B61FB
:102BA00041B9457800780AEB800020444D4517D89C
:102BB000A0EB0409E378FB61BAF1000F02D01BF02F
:102BC000010F16D1FB6953BBFB6A1BB13A6A494638
:102BD000204698474D4628465C37BD46BDE8F08FF5
:102BE000461C3046FDF7A0FC0130304409F10109D4
:102BF000DCE7237862687A62FA6A9900B96104EBCB
:102C00008301002A40F005814D460E4601EB0A097A
:102C10004FF000084E4550D101EB0A0610E01BF0C2
:102C2000020FD1D023789A00BA6162687A62FA6A98
:102C300004EB8301002A7BD14D4601EB0A06904646
:102C40001BF0050F0CBF02230123FB62FB6906EB9F
:102C5000430A0BF00203BB625645BCD016F8021BB8
:102C600016F8013C54F82390724B994502D3724BED
:102C700099453AD37B69002B44D0786A10F0B1F8BB
:102C800000283FD06D48036813F0060F13D0E946C3
:102C90008AB06A466A4B53617B6AC2E906314FF4D7
:102CA00000731384674B42F8103F00234FF4125116
:102CB00002F0ACFECD46023DCEE716F8013BF962CC
:102CC00054F82300FDF730FCD7F88430F96A01305E
:102CD0004BB1D7F8883098453EBFD7F8843023F8F9
:102CE000180008F10108054494E77B6923B1786A6C
:102CF00010F077F80028C5D11BF0010F05D1FB6A51
:102D0000ED1AA9E7BB6A002BA6D04846FDF70CFCDC
:102D1000D7F8843053B1D7F8883098453FBFD7F8FB
:102D20008420431C22F8183008F10108054493E779
:102D3000BAF1000F73D01BF0040673D0D046002602
:102D400007F1480052463B61B96212F08BFCB96A48
:102D50003B6901EB0A02BA62FA69F9695200FA604A
:102D6000BA6A02EB41023A610BF00202BA60BA6A37
:102D700039698A4268D162787A621BF0020F324464
:102D80000CBF4FEA580100211BF0010FD2B240F0F6
:102D9000E4801BF0040F14BF404600207B6162708A
:102DA000A070E1703A6AB969FB6A20469847051E2F
:102DB000FFF611AF7B6923707B6A6370FB69E37078
:102DC00041463A6AFB6A84F802A007F14800984736
:102DD000B0F10008C0F2EF80BB693A6AA9EB0A01C2
:102DE000C91AFB68C91AD7E90A0398470028C0F234
:102DF000E480A84408EB00054FF0000B07F1380A07
:102E0000B345C0F0AC8000213A6AFB6A0846984797
:102E1000E1E656464FF0000807F1380092E75646C3
:102E2000D04696E7B04694E7FC7801006778010049
:102E30000C6B0100305B010090B40100180400200D
:102E40001779010004000001BA6A12F8021BBA6285
:102E500012F8015C5A4A54F82500904202D3594AAC
:102E6000904218D37A693AB1786A7B600FF0B9FF63
:102E70007B6800287FF47BAFBA68002A4CD00F2E05
:102E800040D95149514A52484FF4896310F058F8DB
:102E90004FF489617CE67A693AB1786A7B600FF019
:102EA000A0FF7B6800287FF462AF1BF0010F0BD0FE
:102EB0000F2E27D94449454A454840F23E4310F079
:102EC0003FF840F23E4163E61BF0040F3FF44FAF82
:102ED000B8F10F0F09D93F493C4A3D4840F2414300
:102EE00010F02EF840F2414152E608F1280207F1B5
:102EF000300008F1010102EB000808F8105C5FFAED
:102F000081F834E706F1280207F13000711C161829
:102F100006F8205CCEB22AE7B8F10F0F09D92D4987
:102F20002A4A2B4840F24B4310F00AF840F24B413A
:102F30002EE608F1280207F1300C08F10100944454
:102F400007F1580252FA80F008F102080CF8101C40
:102F50005FFA88F800F8105C09E700201EE71BF80C
:102F60000A3087F8373054F82390D7F88430FBB113
:102F700033F81B803A6AFB6A012107F13700984752
:102F800000281ADB0544B8F1000F06D14846FDF7CA
:102F9000CBFA00F101081FFA88F83A6AFB6A414649
:102FA00048469847002808DB05440BF1010B27E74A
:102FB000D7F88480DEE745460DE605460BE600BF00
:102FC000305B010090B40100BA790100677801001C
:102FD0000C6B0100D9790100014B1860704700BFEC
:102FE0002001002030B587B00025CDE9030104465B
:102FF000009503A90548059500F06CF8DDE904305B
:103000009842B8BF255407B030BD00BF312E010033
:10301000F0B5094E016802460A2700200B4601312F
:103020001C78355D6D0701D41360F0BD07FB0043CC
:10303000A3F13000F2E700BF06B301002DE9F84F1D
:1030400015469A46D378224A12F803B06F2B804671
:103050000F460BF0030B29D024D8582B0CBF102699
:103060000A26DDF828903246002340463946FDF70F
:10307000E7F8092AD4B21ED83034B045E4B277F16B
:10308000000709F8014D01D3D14511D82B789B06D3
:1030900005D5082E15D1AB7843F00803AB70484630
:1030A000BDE8F88F03F0F703702BD7E70826D8E7C1
:1030B00080460F46D7E7BBF1010F0CBF37345734BA
:1030C000DBE7102EEBD1AB7843F01003E6E700BF4F
:1030D00006B301002DE9F04F9FB0824603911646DA
:1030E0001C460025307810B9284600F083BD731CBB
:1030F0002528069306D00399D0470028C0F27A8588
:1031000001351BE21822002110A812F0D3FA7378BF
:10311000252B00F0BA800023711C98469E469C46E1
:1031200018460F4611F8012B2B2A00F0E18000F21F
:10313000D880202A00F0DF80232A00F0DF802BB126
:103140009DF8483043F040038DF84830B8F1000F47
:1031500005D09DF8483043F020038DF84830BEF18B
:10316000000F05D09DF8483043F010038DF848302B
:10317000BCF1000F05D09DF8483043F008038DF8EE
:10318000483028B19DF8483043F004038DF84830AA
:103190009DF8483003F04401442903D16FF38613AE
:1031A0008DF848309DF848300E9743F080032A2A66
:1031B0008DF8483040F0A7809DF8493043F0010376
:1031C0008DF849307B1C1A782E2A9DF849200CBFB7
:1031D0000121002161F341028DF849200CD15A1CD4
:1031E0000E925A782A2A40F09E809DF8492042F09B
:1031F00004028DF8492002331A786C2A00F0BF804F
:1032000000F2A180682A00F0A7806A2A00F0C0803E
:103210004C2A00F0C58013F8012B0693782A8DF80C
:103220004B2000F205816D2A00F2C780692A00F266
:10323000FF80572A00F2DE80412A04D0A2F1450324
:10324000022B00F2F5809DF84A3002F0DF020421E3
:10325000A2F1410761F302037A429DF849108DF80B
:103260004A307A4162F3C7110A068DF84910CBB291
:1032700000F11D8103F07802182A40F007816FF3F6
:10328000C6038DF849300023F6E0B21C06928DF893
:103290004B309DF849209DF84A30D10703F00700D4
:1032A00040F1078154F8041B0491002908DA9DF8C5
:1032B000481041F004018DF84810049949420491E6
:1032C000570740F1FE8054F8047B002F80F2FD8008
:1032D0009DF849206FF341028DF849204FF0FF37E8
:1032E000F3E02D2A0DD0302A7FF429AF012318E70F
:1032F0004FF0010C15E74FF0010E12E74FF00108F7
:103300000FE701200DE70EA8FFF782FE0E9BBB42E0
:103310003FF459AF9DF848201390C00F60F341026D
:103320008DF848204FE70EA8FFF772FE9DF8483051
:103330001490C3F3400242EAD07262F341038DF865
:1033400048300E9B58E7742A26D07A2A7FF463AF60
:103350009DF8492006210CE05A78682A9DF84920FA
:1033600006D1012161F3C6028DF84920023352E7EC
:10337000022161F3C6028DF8492001334BE75A78E8
:103380006C2A9DF8492001D10421EBE70321F0E7E5
:103390009DF849200521ECE79DF849200721E8E741
:1033A000BDF8482022F4F04222F0020242F48042AA
:1033B00042F00202ADF84820DFE76E3AD3B20122B4
:1033C0009A4040F282431A429DF8493037D112F0B8
:1033D000240F5FD1D1072BD59DF84A2003F0780345
:1033E000A3F14000032161F3020243428DF84A2019
:1033F000434141E0A2F15801C9B2012000FA01F1B4
:1034000011F4624F7FF41FAF40F6010319429DF89B
:1034100049301AD111F4043F0AD09DF84A2060F3D4
:10342000020203F07803402B8DF84A207FF42BAF83
:103430009DF8483043F001038DF8483023E79DF8AC
:103440004A20022161F30202EBE79DF84A100220B4
:1034500003F0780360F30201402B8DF84A1002BF9D
:103460009DF8481041F001018DF84810632A7FF45F
:103470000AAF003B18BF01239DF84820C2F340016A
:103480000B4363F341028DF8482002E713F0380F35
:10349000CED1F8E69DF84A20032113F0780F61F3AE
:1034A00002028DF84A2014BF01230023E4E7012320
:1034B000E2E79DF948100029B4BF13994FF0FF319E
:1034C000FDE691077FF50AAF149F9DF84910002291
:1034D0000428CDE9132207D18A0705D49DF9492094
:1034E000002AACBF06270D2703F00703012BC1F309
:1034F000C30133D1CB1E042B04D8DFE803F02146EF
:1035000046212100236801294FEAE372CDE91032F8
:103510001CD19DF94030DA17CDE9103204349DF802
:10352000483007939B0750D0069B0399324650467C
:103530000FF0E6FC0028C0F25D830544069ED1E54D
:1035400054F8043BDA17CDE91032E8E70229E5D157
:103550001AB243F3C033CDE91023DFE7022B24D1A5
:10356000CB1E042B04D8DFE803F018101018180045
:10357000012954F8043B4FF0000214D00229CDE990
:103580001032CCD19BB21093C9E7073424F0070462
:10359000F4E80223CDE91023C1E754F8043B10936B
:1035A00000231193BBE7DBB2CDE7042B08D107342E
:1035B00024F00704D4E900230834CDE91023AEE752
:1035C000032BACD154F8043BDDE79DF84BB0BBF1C5
:1035D000780FB3D8BBF1570F49D8BBF1250F00F0D6
:1035E0009180BBF1240FA9D9BBF1410F03D0ABF1FE
:1035F0004503022BA2D8DDE91013002BC0F237815E
:10360000079A100700F13681C2F300194FEA4919F1
:10361000C3F30A50C3F31303002840F02E8151EA8C
:10362000030614BF01260026DB0243EA5153C902F8
:10363000BBF1460F40EA010E43EAE07C08BF4FF0C1
:10364000660B5EEA0C0CCDE90C1300F09F81002E96
:1036500040F04A810D9B43F00043A0F2FE380D93E9
:103660000020DDE90C1306464FF0050C56E1ABF1E6
:103670005803202B3FF662AF01A050F823F000BFA3
:103680000D3800003D3500003D3500003D3500009F
:103690003D3500003D3500003D3500003D35000062
:1036A0003D350000F73500003D3500009137000042
:1036B000A5370000F7350000F7350000F7350000AA
:1036C0003D350000A53700003D3500003D350000C8
:1036D0003D3500003D350000473800000D38000042
:1036E000133800003D3500003D3500000B37000069
:1036F0003D3500000D3800003D3500003D3500002F
:103700000D38000003995846F6E4002F109E3BDB6D
:103710003946304612F012F8002E3FF40FAF37183A
:10372000BB1B4FF000099DF84A2012F010010591D3
:1037300000F05582023312F04002DDF84C8008920E
:1037400018BF149ACDF81C80434418BF9B18049AE4
:10375000002A40F35F82D31A04939DF8483058073B
:10376000C3F3800B00F15682590640F14682B9F14D
:10377000000F07D003994846D0470028C0F23A828C
:103780000135D946302339E23046FCF7CDFEC6E795
:10379000109B8DF85C304FF000090DF15D0717AEFE
:1037A0000123C0E7079B1E0758BFC3F30019DDE9DB
:1037B000102354BF4FEA49194FF02B09002B06DAAA
:1037C000524263EB4303CDE910234FF02D090DF175
:1037D00075030093DDE9100117AB12AAFFF72EFC69
:1037E0000646002F0CDB9DF848200DF175039B1B4E
:1037F0006FF386129F428DF8482001D9FB1A13936C
:10380000002E3FF49BAE0DF175075BE04FF0000911
:10381000DDE71098002800F0DD810DF175030093BD
:1038200012AA17AB0021FFF709FCBDF84A3003F0DC
:10383000EF0343F4F04343F010030646ADF84A307B
:103840004FF00009CDE7109B07293FF677AEDFE880
:1038500001F00C04060C08080C0C1D706EE61D80AF
:103860006CE6EA17C3E9005268E61D6066E64FF0B1
:103870002D09CDE64FF02B09CAE640F2FF76B042A3
:103880002FD10BF101029E48D2B20B43825C02F0B1
:1038900003021ED1012A0BBF492369234E216E2149
:1038A0000CBF462266228DF85C309DF848308DF8BA
:1038B0005D106FF386138DF85E208DF848300DF1A2
:1038C0005F0717AEBB1BB9F1000F3FF42CAF0133FC
:1038D00029E7012A15BF6E234E23612141211A4693
:1038E000E1E70026A0E6013849185B41002BFADA2F
:1038F000CDE90C13AEE6490841EAC3715B08B3F1A8
:10390000333F404608F10108F5D20CFB03FEA1FB52
:103910000C1300F102087344013E012018F1020F5C
:10392000E9DB08B1CDE90C13B8F1000FDDE90C318A
:103930002FDCC8F1040008F11C08A0F1200CC340E2
:1039400021FA00F201FA08F80BF0DF0043EA08035D
:1039500021FA0CFC472843EA0C0308923AD1F11CE7
:1039600001DBB7422BDAABF10202002F5FFA82FBD8
:103970007FDD9DF84800820607F1FF3779D43A1EB3
:1039800018BF0122059207F101082DE04FF0000851
:1039900066E6023341F100010CA8CDE90C310FF0CD
:1039A00080FADDE90C3108F1FF380136DB184941B6
:1039B000002908F1FF38F9DACDE90C31B4E79DF8B8
:1039C00048209006A7EB060751D43A1E18BF0122E3
:1039D000059204E00022BBF1660F0592D3D117EBEC
:1039E00006084FF0660B46D4B8F1100FA8BF4FF091
:1039F000100810200B904FF000610020CDE90E015F
:103A0000DDE90E02B8F1000F38D1C018089B42EB77
:103A10000303B3F1805F3FD2CDE90C03079BBBF1F9
:103A2000660F03F0200340F0B480002E3FDC30210D
:103A30008DF85C10002B65D1002F40F3AE812E2352
:103A40008DF85D3086B17342BB42A8BF3B469DF8FE
:103A50004A101393002BA7EB0307D4BF00230123C5
:103A600063F345118DF84A100DF15E0837E000222E
:103A7000AEE7002286E74FF00008BAE7400840EAC8
:103A8000C2705208CDE90E020EA8099308F1FF3862
:103A90000FF007FA099BB3E7400840EAC3705B08E0
:103AA000CDE90C030CA80FF0FCF90136B6E70DF1D7
:103AB0005C080B99002909DD0BA90CA807930FF0EE
:103AC00008FA013E08F8010B079BF2D113969BB947
:103AD000002F40F360812E2108F8011B0026002FE3
:103AE00019DD0B9B002B16DD0BA90CA80FF0F1F9CB
:103AF000013F08F8010BF2E72E2308F8013BEDE740
:103B000005B301002E238DF85D30002EACD0002FC0
:103B100099DC0DF15E08059B002B4ED114974746AA
:103B20000BF0DF03452B23D1002EBABF76422D23A5
:103B30002B23632EC8BF64217B70D1BFBA1CB6FB98
:103B4000F1F3FA1C03F13000C8BF01FB13664FF01C
:103B50000A01C8BFB87087F800B0B6FBF1F317468A
:103B600003F1300001FB1363303307F8020B53708D
:103B7000139B002B2CDC149B002BD4BF00230123B0
:103B80009DF84A2063F3861200238DF84A203B708B
:103B900097E60BA90CA807930FF09BF9079B8DF8EC
:103BA0005C00302818BF06F1FF3613B9002F40F330
:103BB000F4802E238DF85D3056E7474608F1FF3834
:103BC00017F8013C302BF8D02E2B08BF4746A7E74B
:103BD0000123D5E7724F81467E1F0523A3E5110718
:103BE00048BF0133A7E5184609930399D047002839
:103BF000099B05DA1FB0BDE8F08F2023DDF810B077
:103C00005A46002A0BF1FF3BEDDC049BCDF810B0C7
:103C10002B449D1AB9F1000F05D003994846D047AF
:103C20000028E7DB0135089B002B79D09DF949304E
:103C3000002B29DBDFF86C913346187819F8002047
:103C400052079B4603F101033FD49DF84A30AE1B57
:103C500098065E4407D44246002A08F1FF383BDC50
:103C6000079B33449E1A9BF800002E280AD1039923
:103C7000D0470028BEDBB8F1000F06F1010631DCA9
:103C80000BF1010B5D4638E0B14699F80000702851
:103C9000C84609F1010913D1AE1B149D46443544B1
:103CA000AB1B002B34DC03993B46424650460FF0D9
:103CB00027F900289EDB3044049E0546064465E053
:103CC0000399D0470028E0DA94E705930399D04799
:103CD0000028059BB1DA8DE703993020D0470028F2
:103CE000B9DA87E703993020D04708F1FF38C0E7F9
:103CF0000399D0470028FFF67DAF287819F80030E7
:103D00005907A84605F10105F2D4A6EB0B06C4E756
:103D100003993020D0470028FFF66CAF0136BFE78B
:103D20009DF84A30DA0601D41B0706D503993020E6
:103D3000D0470028FFF65EAF0135059B3BB10399E4
:103D40009DF84B00D0470028FFF654AF0135A8443A
:103D500006E003993020D0470028FFF64BAF01352D
:103D6000A8EB0503002BF4DC03993B463246504692
:103D70000FF0C6F80028FFF63DAF28449CE70399F2
:103D80002020D0470028FFF635AF0135731B002BEC
:103D9000F5DCFFF7D3BB1E46BDE60DF15D08BAE6C4
:103DA0000F7A010006B3010038B50D460446202203
:103DB000002111F07FFCEB68E361AB68A3612B6825
:103DC00023626B6863620022A2622A6923B1591ED2
:103DD000194208BF42F0010222610122002104F1D0
:103DE0002C0011F003FB48B105490648064A2E2372
:103DF0000FF0A6F804482E210FF099F838BD00BF47
:103E0000367A01000C6B0100107A01002DE9F04FA9
:103E100089B0CDE90123436A00278B4204468846D6
:103E200005970797BA4655D300F114064FF0200BBB
:103E3000EFF3118300938BF31288BFF36F8F30463B
:103E4000DDF800900BF064FC58B94B4A4B494C48E4
:103E500088230FF075F831464A480FF071F8882131
:103E600060E030460BF078FC079A2AB139462046CC
:103E70000FF045F90023079306A920460FF06DF8CF
:103E80000699414505462ED32268236A13F822106D
:103E900021F0030103F8221003EB820A2168424655
:103EA00020460FF07EF8E3682060984216D0002587
:103EB00030460BF03BFC40B389F31188BFF36F8FA2
:103EC000059929B1A2690AB12046904700230593BC
:103ED000002DADD1504609B0BDE8F08F236943F005
:103EE00008032361E3E718B120460FF074F8DFE719
:103EF000DDE90132134337D0039111F087FA0399BA
:103F000090BB30460BF012FC78B91B4A1E491C4886
:103F100040F231130FF014F831461C480FF010F83E
:103F200040F2311114480FF002F8009B83F311881E
:103F3000BFF36F8FDDE9012304F12C000AF00EF8C6
:103F40000546EFF311898BF31288BFF36F8F30466C
:103F50000BF0DEFB00283FF478AF3046B5FA85F56C
:103F60000BF0FAFB6D09A3E707AB05AA204627680B
:103F70000FF04EF805469BE73F7A01006C7A01008E
:103F80000C6B0100817A0100977A0100AE7A010082
:103F90002DE9F0410446C36908460E46984704F1EE
:103FA00014050746EFF31188202383F31288BFF32B
:103FB0006F8F28460BF0ACFB68B91B4A1B491C48A5
:103FC00088230EF0BDFF29461A480EF0B9FF88215C
:103FD00015480EF0ACFF28460BF0BEFB337843F0DB
:103FE0000103337061683A4620460EF0DAFF6060E4
:103FF00020460FF09FF828460BF098FB68B90A4A54
:104000000D490B4840F231130EF09AFF29460B4838
:104010000EF096FF40F23111DAE788F31188BFF312
:104020006F8FBDE8F08100BF3F7A01006C7A01001C
:104030000C6B0100817A0100977A0100AE7A0100D1
:104040002DE9F843044600F11407EFF3118820230B
:1040500083F31288BFF36F8F38460BF059FB054688
:1040600068B9354A3549364888230EF069FF394624
:1040700034480EF065FF88212F480EF058FF38466F
:104080000BF06AFB2369A26813F0080F02D1636882
:104090009A4200D9636A9B1A002B3FD0216A11F81B
:1040A000223013F0030001EB82093AD0022803D139
:1040B00051F82260B60805D1D8071FD4E3694846F5
:1040C00098470646A168324620460EF06AFF314600
:1040D000A06020460EF073FF38460BF027FB10BBA4
:1040E000154A1949164840F231130EF029FF394696
:1040F00016480EF025FF40F23111BDE743F00203F0
:1041000001F822304846E369A568984729460246E7
:1041100020460EF046FF0025A060DDE71D46A946BB
:10412000DAE70546FBE788F31188BFF36F8F002DB0
:104130008BD14846BDE8F8833F7A01006C7A0100D4
:104140000C6B0100817A0100977A0100AE7A0100C0
:104150002DE9F0410446C36908460D46984704F12D
:1041600014060746EFF31188202383F31288BFF368
:104170006F8F30460BF0CCFA68B9284A2849294895
:1041800088230EF0DDFE314627480EF0D9FE882147
:1041900022480EF0CCFE30460BF0DEFA2B786FF39F
:1041A00000032B7023699B0705D5E268236A03EBA4
:1041B00082039D4222D12B786FF341032B70D4E907
:1041C0000231994204D13A4620460EF0EAFEA06040
:1041D000394620460EF0F3FE30460BF0A7FA90B9B0
:1041E0000E4A12490F4840F231130EF0A9FE314633
:1041F0000F480EF0A5FE40F23111C9E72B6867F3B6
:104200009F032B60E8E788F31188BFF36F8F04F1F9
:104210002C00BDE8F04109F05DBE00BF3F7A01000F
:104220006C7A01000C6B0100817A0100977A010021
:10423000AE7A010008B50446EFF31183202383F31F
:104240001288BFF36F8F07F021FD204605F020FA9A
:1042500002480EF002FE10F0BCFAFCE7C37A01003F
:104260002DE9F84F04460846A38B1907154612D4CA
:10427000022803F0070165D120460EF075FF88B1D2
:104280000138042800F23781DFE810F05C003501C6
:104290008200D400040101280CBF43F0100143F058
:1042A0002001A183143420460BF040FA002840F08E
:1042B0009D819A499A4A9B4840F231130EF040FE84
:1042C0002146B1E003F00702501F01281ED800204C
:1042D000062A2768C4E9000014D13A4603E0E08BBF
:1042E0000130E0831268002AF9D123F0070343F07C
:1042F0000202A28320460EF037FF90B342F0200264
:10430000A2832EE023F007039AB2F2E7042A33D106
:1043100023F007039AB2A28320460EF025FF10B1C6
:1043200042F02002A283A38B03F00709894540F0E5
:10433000EC80A18BCA0640F1508121F01003A383C9
:1043400001F00701D4F81880A38BB8F1000FB9DA97
:104350000022276823F00703C4E9002243F0010389
:10436000A383A38B03F00709894540F0CF80002F7A
:10437000DFD00026B24644E06B496C4A694840F2FF
:104380001B130EF0DDFD40F21B1168480EF0CFFD4F
:1043900049B16749654A63484FF4AB730EF0D0FDED
:1043A0004FF4AB71F1E723684BB962495F4A5D484E
:1043B00040F257130EF0C4FD40F25711E5E72369B0
:1043C0001E684EB95C49594A56484FF4AD730EF019
:1043D000B7FD4FF4AD71D8E7A38B23F0070343F08B
:1043E00006039BB2A3830F4688464FF00609A268D6
:1043F000002A40F08D80002F40F08D80002E98D054
:10440000BA4643F0080304F1140BA38358460BF09B
:104410008DF9002840F09A804049414A414840F2D5
:1044200031130EF08DFD594644480EF089FD40F2DF
:104430003111ADE0022909D041493C4A394840F2E6
:104440005D130EF07DFD40F25D119EE7E78B4FB1ED
:104450003C49364A33484FF4AF730EF071FD4FF4C8
:10446000AF7192E723695E684EB933492F4A2D48F0
:1044700040F261130EF064FD40F2611185E7A38BF9
:1044800023F0070343F004039BB2A383B8464FF025
:104490000409ACE7012909D02B49244A21484FF4EB
:1044A000B2730EF04DFD4FF4B2716EE723684BB955
:1044B00020491E4A1B4840F265130EF041FD40F2B0
:1044C000651162E723699E684EB91B49174A154872
:1044D0004FF4B4730EF034FD4FF4B47155E7A38B71
:1044E00023F0070343F005039BB20027A383B846DC
:1044F0004FF005097BE70C490C4A0A4840F26B1360
:104500000EF01EFD40F26B113FE7002700266EE71C
:104510004FF0010A75E7924673E700BF977A0100F2
:104520003F7A01000C6B0100ACA50100EC7A0100A0
:10453000117B01001D7B0100407B0100AE7A010070
:10454000577B01006D7B01007C7B010085F31188A6
:10455000BFF36F8FBAF1000F1CD177BB16B126499C
:104560002046B047EFF31185202383F31288BFF371
:104570006F8F58460BF0CCF838BB204A20492148B1
:1045800088230EF0DDFC59461F480EF0D9FC882127
:104590001A48FBE6A1680029DFD00D680029DCD0AD
:1045A000D1F804A043464A462046D0471DB12B68A7
:1045B00029461D46F2E72B46FAE7394643464A4666
:1045C00020463F680EF0FCFDC7E758460BF0C4F8E4
:1045D000A38B23F00803A383ABE68B067FF562AEC3
:1045E00021F02003A38301F0070145E685F311883C
:1045F000BFF36F8FBDE8F88F0D4600003F7A0100D2
:104600006C7A01000C6B0100817A0100F8B5044658
:104610000D4600F11406EFF31187202383F312886F
:10462000BFF36F8F30460BF073F868B90C4A0D4931
:104630000D4888230EF084FC0C4831460EF080FCB7
:10464000074888210EF073FC30460BF085F8A56111
:104650003A4620460121BDE8F840FFF701BE00BF01
:104660003F7A01006C7A01000C6B0100817A010035
:104670002DE9F04704460F460EF092FD051E68DB5B
:1046800004F11409EFF3118A202383F31288BFF396
:104690006F8F48460BF03CF8804660B9384A39497C
:1046A000394888230EF04CFC494638480EF048FC47
:1046B0008821334842E048460BF04EF8E38BA68B46
:1046C0004FF6FF72934206F0070645D0022E15D131
:1046D0000133E383354648460BF028F8002841D1E2
:1046E000274A2B49284840F231130EF029FC49464D
:1046F00028480EF025FC40F23111DAE7062E13D8D7
:10470000DFE806F0092D1212090409006FF0850593
:104710004FF00008DFE700233B60636883B9C4E91A
:10472000007786B13546F3E71B4917481B4A4FF41B
:10473000E4730EF005FC19484FF4E4710EF0F7FB3A
:104740001F606760EDE7524602212046FFF788FDB3
:1047500035462846BDE8F0876FF00A05D8E76FF0C8
:104760000405D5E78AF31188BFF36F8FB8F1000F06
:10477000EFD000233246394620460EF021FDE8E70F
:104780003F7A01006C7A01000C6B0100817A010014
:10479000977A0100AE7A01007C7B0100EC7A01007F
:1047A000F8B5054600F11406EFF31187202383F3D3
:1047B0001288BFF36F8F30460AF0AAFF60B9264A0D
:1047C0002649274888230EF0BBFB314625480EF0CA
:1047D000B7FB882120482BE030460AF0BDFFAC8BA8
:1047E00004F00704022C17D0012C0CBF6FF0040456
:1047F0006FF0850430460AF099FF38BB164A1A4913
:10480000174840F231130EF09BFB314617480EF06B
:1048100097FB40F23111DDE7EB8B5BB9144910488F
:10482000144A40F2EF130EF08BFB124840F2EF11E6
:104830000EF07DFB013B9BB2EB83002BDAD13A46B5
:1048400021462846FFF70CFD2046F8BD87F3118866
:10485000BFF36F8FF8E700BF3F7A01006C7A010069
:104860000C6B0100817A0100977A0100AE7A010099
:10487000927B0100EC7A010008B54268816002F089
:104880000302022A03460AD0032A4FF0000103D094
:10489000012A0AD1596006E01868596008BD1868F5
:1048A00000225A6058B90020F8E706490648074A2E
:1048B00045230EF045FB054845210EF038FB0BF073
:1048C00005FFF0E7ACA501000C6B0100A07B010027
:1048D0002DE9F34180460E46154600272A4601A9D8
:1048E00040460EF0AAFC314604460246019810F0FC
:1048F000B9FE2D1B2744264401D0002CEED13946A9
:1049000040460EF0B9FC48B106490748074A49231A
:104910000EF016FB054849210EF009FB384602B09F
:10492000BDE8F081367A01000C6B0100C67B010006
:104930002DE9F34180460D4616460027324601A96F
:1049400040460EF0AEFC04462DB1024601992846C1
:1049500010F088FE2544361B274401D0002CEDD1F1
:10496000394640460EF0BDFC48B107490748084AA1
:104970008E230EF0E5FA06488E210EF0D8FA38465E
:1049800002B0BDE8F08100BF367A01000C6B010077
:10499000C67B01002DE9F7430F4606460821C06A91
:1049A000DFF850900EF01EFD3C68241A80463C60F3
:1049B00004EA0905AC4203D8002003B0BDE8F08347
:1049C00008236A46214630460EF0A1FC0028F4D1A7
:1049D000694630460EF010FD40B1BDF80230BDF81A
:1049E00004203C6005EA090513441D44A4EB0804B7
:1049F000E0E700BF0000FFFF2DE9F04704468AB062
:104A000000F11407384610F0EAFCA06A8368DB68FE
:104A10009847E06250B99F4803685D0703D09E4AFB
:104A200001210EF0D4FC6FF015054EE0A06A8368FA
:104A3000DB6898470368013B1F2B05D9954803683D
:104A40005C07F0D0954AEBE7A06A216807AA10F04E
:104A5000C8F828B18F4803685907E4D0904ADFE7C7
:104A6000A5892DB1089BB5FBF3F203FB12552DB1BF
:104A7000884803685A07D6D08A4AD1E7E389012BD0
:104A800005D8844803685B07CDD0874AC8E7E36A46
:104A9000029593F804904FF0FF334FF0FF32384601
:104AA00009F0B8F8E06A08210EF09CFCA84606461A
:104AB000E3891FFA85FA53450BD8E389434526D18C
:104AC000384609F077F96FF02C0528460AB0BDE8A2
:104AD000F087A1892B04891B13FA81F14A46082328
:104AE000204602910EF021FC78B102A920460EF07A
:104AF00061FC08F10108029908234A4620461FFA82
:104B000088F80EF012FC0028D7D00135D0E75345C5
:104B10000BD1029908234A46891B20460EF005FC5A
:104B200018B902A920460EF045FC02A92046FFF75D
:104B300031FF054618B1384609F03CF9C5E7029B3C
:104B400063604FEA13484FEA0848C4F80880D4E984
:104B5000011399420FD3082303AA20460EF0D7FB76
:104B600005460028E7D103AB13F8012B91453FD14F
:104B70000135082DF8D163681B0C1B0402A92046DF
:104B800002930EF017FCA38902994A4620460EF0C4
:104B9000CCFB051ECFDB636800F09C8003EB0608AE
:104BA0004FF6FF79A389CDF808801FFA88F29B1B86
:104BB0009A4239D300223748036803F00703002ADA
:104BC0004CD0022B03D9394A03210EF000FC636854
:104BD0001B0C1B0402A9204602930EF0EBFB02996A
:104BE00020460EF0CDFB0546002D00F09180A2E797
:104BF00003A920460EF000FC626810B9921B6260A7
:104C0000A5E7BDF81050BDF80E10E06AC4F80880A2
:104C100029440EF0E7FB40449042A060EED1002D05
:104C2000ECD06FF01C05AEE0082305AA41462046F3
:104C30000EF06DFB054600287FF47DAF05A92046E8
:104C40000EF0DAFB30B1BDF814304B4502D1BDF89F
:104C500018300BB1B044A5E70122ACE7022B03D911
:104C6000134A03210EF0B3FB616820460EF088FB67
:104C7000054600287FF45FAF63680E4AA1891340A0
:104C80000B44A3EB460363601340A36020460EF081
:104C900096FCA8E724040020057C0100277C010085
:104CA000447C01005C7C0100707C0100937C01006D
:104CB000A87C01000000FFFF5B1A4A4620460EF068
:104CC00034FB051EFFF637AF08D0E26AA36812680E
:104CD0001344A360D4E901318B42EDD86168A38904
:104CE00001EB46029A427FF47FAFDFF8A880A2680A
:104CF00001EA08039A423FF477AF20460EF040FBEA
:104D0000054600287FF417AF636803EA0803A36031
:104D1000A389A288A3EB46039A4230D0384609F013
:104D200049F81D4D012323742B6803F00703022B60
:104D300023D9E389A289032100922846174A0EF05D
:104D4000D0FD2B6803F00703022B16D963689AB2D3
:104D500000921B0C124A032128460EF0C2FD2B685C
:104D600003F00703022B08D9A3689AB200921B0C28
:104D70000C4A032128460EF0B4FD0025A5E6204686
:104D80000EF006FC0546384609F014F8002DC8D090
:104D90009BE600BF0000FFFF24040020CF7C010041
:104DA000E67C0100F87C01002DE9F04F1D4691B032
:104DB000037C0291044600926BB9764803685B0756
:104DC00003D0754A01210EF002FB6FF00C0630464D
:104DD00011B0BDE8F08FC26A082110460EF002FB48
:104DE0002946019010460EF0FDFAA389019AA3EB23
:104DF0008203AB420746C0F0C9801DB1009B002B67
:104E000000F0C4806368059306AA05A92046DDF872
:104E100014A00EF029FB06460028D8D1BDF81830A2
:104E2000029A934206D06268059B9A42ECD1002D0B
:104E300036D1CCE706A920460EF0DEFA0028F2D0E3
:104E4000BDF81A90BDF81C3045B39D4228D1E36AE5
:104E5000DDF800B01B684FEA1A4A5B424FEA0A4A83
:104E600003F02003D1440393AA46DDF80C80D0451B
:104E700028BFD046434608AA494620460EF047FAC6
:104E800000284ED1424608A9584610F0DBFB38B93D
:104E9000BAEB080AC144C344E7D198E7002B96D087
:104EA000002F41D104F114084FF0FF324FF0FF33CF
:104EB000404608F0AFFEDFF8E4B04FF6FF7AE38932
:104EC0009E4260D0D4E901217B189A4230D3029BE4
:104ED000ADF82030FF23009A8DF8263020462B466F
:104EE000ADF82210ADF824500EF008FB294681469B
:104EF000E06A0EF077FAA2680244A260B9F1000FEE
:104F00000AD108A80EF065FA08A920460EF02FFB7A
:104F1000002814BF8146A946404608F04BFF4E4684
:104F200055E7BDDC064652E7019B1F44BFB2B9E717
:104F30000821E06A0EF056FA0023ADF82430131869
:104F4000ADF82230A389ADF820A002EA0B021A4482
:104F5000101A606008A88DF826A00EF03AFA08A989
:104F600020460EF004FB211D20460EF023FA636854
:104F700003EA0B03A36020460EF021FB81460028C4
:104F8000CAD101369BE76FF01B09C5E76FF0150624
:104F90001DE700BF24040020F17B01000000FFFF9B
:104FA0002DE9FF471E46037CBDF8309004460F46AE
:104FB000904663B92E4803685B0703D02D4A012150
:104FC0000EF005FA6FF00C0004B0BDE8F087C06A7F
:104FD00008210EF007FAA389A3EB4003B34243D3A1
:104FE000D4F804A0CDF804A000254D455146DDF8C5
:104FF00004A009D9636853451ED1BDF80830BB42EF
:105000001AD06FF00100DFE702AA01A920460EF0D6
:105010002BFA0028D8D1BDF80830BB4206D102A92E
:1050200020460EF0E9F908B10135ADB26268019B86
:105030009A42DAD15146E0E7BDF80C30002BE0D0BF
:10504000A945DED8BDF80A00090CB3424FEA014178
:1050500028BF33460144424620460EF058F9002846
:10506000B2D1BDF80C00AFE76FF01500ACE700BFA0
:1050700024040020F17B010030B51049104889B0AC
:10508000002210F021FA0F4D0F4900220023CDE934
:10509000062300240E23CDE90334CDE901440B4B54
:1050A00000944FF40062284609F0F2F808492846B7
:1050B00008F0CEFF204609B030BD00BF19520000F5
:1050C000000A002040050020002400204555000073
:1050D000107D01002DE9F047DFF8588004460746AF
:1050E0004FF0010914B93846BDE8F08794FAA4F5E9
:1050F000B5FA85F509FA05F32E0108EB05156FEAF7
:10510000030A24EA03042B7B002BEBD058F806306B
:105110001B694BB94644032273682846196807EA9D
:105120000A0700F0EFFBDDE7284698470028D9D1B1
:10513000F0E700BFF05E01002DE9F047DFF8B8901E
:105140002E4CA9EB04038F2B80460F460BD92C491C
:105150002C4A2D4840F23F130DF0F2FE40F23F1171
:1051600028480DF0E4FE29480EF011FB064660B316
:1051700000252846BDE8F087237B6BB12368DB68F8
:105180000BB12046984723681B69B3B963680322B3
:105190001968204600F0B6FB013610344C4518D98A
:1051A0001B49184A18484FF4A6730DF0C9FE194858
:1051B0000DF0C6FE4FF4A671D2E7204698470028AE
:1051C000E4D00AFA06F31D43E6E705464FF0010A6C
:1051D000E4E7D1D3B8F1000FCBD0002DC8D02846DA
:1051E000FFF778FF0546002FF7D000214FF4A47099
:1051F0000AF09CF8F1E700BF105F0100F05E0100CB
:10520000457D0100187D01000C6B01009C11002000
:10521000757D0100967D0100014808F05BBE00BF6E
:10522000FC040020014B53F820007047D0600100BF
:1052300008B5034608462BB1044A136000F0FEFE91
:10524000002008BD6FF01500FBE700BF240100201F
:1052500010B5044C237813B9034808F03BFE012332
:10526000237010BD301F0020FC04002010B5044640
:1052700008480EF08CFA5CB1BFF35B8F064B53E825
:10528000001F013943E80012002AF8D1BFF35B8FF9
:1052900010BD00BF94110020981100200020064B83
:1052A000BFF35B8F014653E8000F43E80012002A6A
:1052B000F9D1BFF35B8F70479411002070B5FFF7F1
:1052C000EDFF104C104E0546B44219D90F49104A53
:1052D000104840F2FF130DF033FE0F480DF030FE82
:1052E0000B4840F2FF110DF022FE63685B792BB191
:1052F00023685B6813B12946204698471034E3E7DA
:10530000F3D370BDF05E0100105F0100757D0100F8
:10531000187D01000C6B0100967D010010B5044C56
:1053200004492046FEF740FD034B1C6010BD00BF42
:10533000A8030020BC6001008C110020094A0A4823
:1053400008B500231370094A1360094A4FF400415D
:105350001360FFF76DFFFFF7E1FFBDE8084000F0C5
:105360000FBA00BF311F00208B37010094110020BD
:10537000981100200146002201480023FEF746BD97
:10538000A80300200148FEF75BBE00BFA803002071
:10539000024B01461868FEF7DBBE00BF8C110020EF
:1053A00001480DF0D4BE00BFA80300202DE9F04154
:1053B0003D4B1878002875D0FFF7E4FF044600281D
:1053C00045D0BFF35B8F394B53E8001F013943E8E9
:1053D0000012002AF8D1BFF35B8F354DDFF8D4807F
:1053E000454530D93449354A354840F2F3130DF07C
:1053F000A7FD34480DF0A4FD304840F2F3110DF044
:1054000096FD6B685B793BB121784B0706D52B681D
:1054100021461B68284698471035E1E72046268834
:10542000C1F3C20700F0F0FBC6F382160246002E5D
:10543000EDD00028EBDB01233946284600F0AEFA18
:10544000B042E9D3E3E7DCD32046FFF7A1FF1E4BD0
:105450001E4C1B68002B19DD10F034F84FF47A72E3
:10546000A0FB020302FB0131C30BD4E9002043EA95
:1054700041439B1A4FEAD13140F2E93261EB00011E
:10548000934271F1000101D3FFF718FFD4E9003214
:1054900013F57A7342F10002C4E90032BDE8F0412D
:1054A000FFF77EBFBDE8F081301F0020981100207B
:1054B000F05E0100105F0100757D0100187D0100A4
:1054C0000C6B0100967D010094110020F80900206A
:1054D00070B5154D297829BB0120FFF72DFE134C1F
:1054E000134EB44217D91349134A14484FF4DC73CE
:1054F0000DF026FD12480DF023FD0F484FF4DC712E
:105500000DF015FD63685B791BB1236820469B682D
:1055100098471034E5E7F5D3FFF748FF0028FBD1A3
:1055200001232B7070BD00BF311F0020F05E010011
:10553000105F0100757D0100187D01000C6B0100FA
:10554000967D01002DE9F0472F4B304FFB1A1B09C8
:105550000BD12F492F4A304840F28D330DF0F0FC2B
:1055600040F28D312B480DF0E2FC00210846FFF798
:10557000E3FD044640B340F267684FF0000909F0CC
:105580000BFF264B186030B1254B1B68092B02DD41
:10559000244808F09FFCDFF88CA0002544B1204689
:1055A000FFF798FD044618B94FF0FF384FF0FF3968
:1055B000FFF7FCFE064628B95DB942464B46504609
:1055C00008F0CCFC3546E9E74FF0FF384FF0FF39E3
:1055D000D5E70D4D08E0F0D22B689B691BB1002286
:1055E0001146284698471035BD42F4D90E49094A5C
:1055F000094840F281330DF0A3FC0C480DF0A0FCEB
:1056000040F28131AEE700BFF05E0100105F0100A3
:10561000B57D0100187D01000C6B01009011002088
:1056200098110020FC040020757D0100967D01008A
:1056300013B52C480EF0ABF82B4B1B78002B35D054
:10564000EFF31184202383F31288BFF36F8F274871
:105650000AF05EF868B9264A2649274888230DF0E3
:105660006FFC224925480DF06BFC882120480DF085
:105670005EFC1E480AF070F8FFF798FE1B480AF01F
:1056800055F868B91A4A1E491B4840F231130DF00B
:1056900057FC16491B480DF053FC40F23111E5E769
:1056A00084F31188BFF36F8F02B010BD164B1B68D7
:1056B000002BF9D050B900220023CDE90023134874
:1056C0004FF4004200230AF047FCEDE70928EBD134
:1056D0000E480FF005FF0E4802B0BDE8104008F07C
:1056E000F9BB00BF98110020311F00208811002055
:1056F0003F7A01006C7A01000C6B0100817A010095
:10570000977A0100AE7A010090110020000A002073
:10571000FC04002010B5064B1B6804469847214640
:10572000A0600448FEF734FCBDE81040FFF780BFDE
:1057300024010020A803002008B548B906490748FD
:10574000074AED230DF0FCFB0548ED210DF0EFFBC2
:105750004368187908BD00BF557E01000C6B01003D
:105760001D7E0100044A054B9B1AB1EBD30F34BFD9
:1057700052F8310000207047205E0100F05E010009
:105780000B480C4B30B51B1A0B4CDB0800210430C6
:10579000994200D130BD10F83120256802F007028F
:1057A00025F007052A4344F8042B0131F0E700BF38
:1057B000205E0100F05E0100F0030020F8B50B4F01
:1057C0000B4DED1B0646ED080024AC4203D14FF013
:1057D000FF342046F8BD57F8340020B13146FAF7BF
:1057E00099FE0028F5D00134EFE700BF205E0100EC
:1057F000F05E01002DE9F04715461F462D4A2E4B5D
:10580000D21AB5EBD20F88460BD32C492C482D4A1F
:1058100040F2B5130DF094FB2A4840F2B5110DF09B
:1058200086FB00281CDADFF8A090284E4FF0000A13
:10583000A6EB090636095446B24502D12046BDE81A
:10584000F08709EB0A10FFF777FF3B462A464146EF
:10585000FFF7D0FF844238BF04460AF1010AEBE7A4
:1058600003EBC5031C7914B1BC4228BF3C46184E5B
:10587000C3B203EB430356F8250007229A4020EAFF
:10588000020004F0070202FA03F318430022032384
:1058900020FA03F101F007018A4203F1030338BF44
:1058A0000A461E2BF4D120F00700104346F82500CD
:1058B000C4E700BFF05E0100205E01006C7E0100C5
:1058C0000C6B0100D57D0100F05E0100105F01004E
:1058D000F0030020F8B5094D094BED1A06460F46B6
:1058E000ED080024AC4200D3F8BD002122B23B46B3
:1058F000304601340DF06BFFA4B2F3E7F05E010017
:10590000205E010038B5114BC31A1B1101330D463F
:1059100004461146DBB248B90D490E480E4ADF2352
:105920000DF00EFB0C48DF210DF001FB42681371F6
:1059300043689971FFF7CEFF63681D6063680122B9
:105940005A71BDE83840FFF783BC00BFF05E01002C
:10595000557E01000C6B01001D7E010010B5044650
:1059600058B90B490B480C4A40F233130DF0E8FAD2
:10597000094840F233110DF0DAFA43685B7913B14C
:105980000021FFF7A7FF636800225A7110BD00BF16
:10599000557E01000C6B01001D7E010038B51446D8
:1059A0001D4698B1FFF7C8FE124A134B9B1AB4EB81
:1059B000D30F0ED311491248124A40F2A1130DF031
:1059C000BFFA104840F2A1110DF0B1FA4FF0FF30CC
:1059D000EAE755B10C4BC0B253F8243000EB40005D
:1059E00023FA00F000F0070038BD02EBC402107982
:1059F000FAE700BF205E0100F05E01006C7E01004E
:105A00000C6B0100D57D0100F00300202DE9F04F63
:105A10008FB004AFC1F34A28B8600D4691467B6051
:105A20000C0DB8F1000F6CD0002607F114034FF0F5
:105A3000040B4FF00A0AC7F80C80C7E907667E62BC
:105A40000193CDF808B0CDF800A007F11C03F96868
:105A500032464846FDF788F8B0F5006F034620D37C
:105A60003048036813F0060F17D06C468AB0D9F897
:105A7000041004AB2C4DC3E9055140F2FF71D9610C
:105A80001A464FF400711984284B42F8103F4FF426
:105A900012513346FFF7BAFFA5462C37BD46BDE885
:105AA000F08FC0F30A0804F11700184420F0070033
:105AB00080083B60FFF75EFC68F35325044640B363
:105AC0003B681B4AC7E9083600F1100107F11403CF
:105AD000F961CDE900A3CDF808B0F96807F11C031E
