:020000040000FA
:1000000040440020F11E0000C1570000DD1E00002A
:10001000DD1E0000DD1E0000DD1E000000000000EF
:10002000000000000000000000000000CD1F0000E4
:10003000DD1E000000000000DD1E0000DD1E0000CF
:100040006521000065210000652100006521000098
:100050006521000065210000652100006521000088
:100060006521000065210000652100006521000078
:100070006521000065210000652100006521000068
:100080006521000065210000652100006521000058
:100090006521000065210000652100006521000048
:1000A0006521000065210000652100006521000038
:1000B0006521000065210000652100006521000028
:1000C0006521000065210000652100006521000018
:1000D0006521000065210000652100006521000008
:1000E00065210000652100006521000065210000F8
:1000F00065210000652100006521000065210000E8
:1001000053B94AB9002908BF00281CBF4FF0FF317E
:100110004FF0FF3000F00CB8ADF1080C6DE904CEE3
:1001200000F008F8DDF804E0DDE9022304B07047D0
:10013000704700BF2DE9F04786468C460846089E6A
:10014000154674461946002B40F0C2808542B2FA2B
:1001500082F245D94AB1C2F1200300FA02FC2EFA1C
:1001600003F3954043EA0C0C94404FEA154EA8B2B5
:10017000BCFBFEF8230C0EFB18CC08FB00F943EA8D
:100180000C43994528D9EB1808F1FF3704D299455B
:1001900002D9A8F102072B44A3EB0903A4B2B3FBD5
:1001A000FEFC0EFB1C330CFB00F044EA0344A042AF
:1001B00014D92C190CF1FF3304D2A04202D9ACF1AE
:1001C00002032C44241A43EA07401EB1D440002302
:1001D00034607360BDE8F0874746DDE76346F1E7CA
:1001E00092BB431B01214FEA154EAFB2B3FBFEFC9D
:1001F000200C0EFB1C330CFB07F840EA0343984528
:1002000062D9EB180CF1FF3004D2984502D9ACF159
:1002100002002B44A3EB0803A4B2B3FBFEFC0EFBCD
:100220001C330CFB07F744EA0344A7424ED92C19B0
:100230000CF1FF3304D2A74202D9ACF102032C44E3
:10024000E41B43EA0040C0E7C2F1200320FA03F1B7
:10025000954090402EFA03F303434FEA154EAFB298
:10026000B1FBFEFC0EFB1C10190C0CFB07F841EA5D
:100270000041884504FA02F422D969180CF1FF30D4
:1002800004D2884502D9ACF102002944A1EB08014F
:100290009BB2B1FBFEFC0EFB1C110CFB07F743EA03
:1002A00001439F420ED9EB180CF1FF3104D29F425B
:1002B00002D9ACF102012B44DB1B41EA004192E779
:1002C0006046E3E76146F7E76046A3E76346B7E7C2
:1002D000834206D916B9002108467BE7C6E900E04B
:1002E000F9E7B3FA83F78FB9834201D3724508D88F
:1002F000BEEB020460EB030301209C461EB9002103
:1003000068E73846FAE7C6E9004CF8E7C7F1200C81
:10031000BB4022FA0CF41C432EFA0CF120FA0CF329
:10032000B84001434FEA14490EFA07F5B3FBF9F858
:100330001FFA84FE09FB18300B0C08FB0EFA43EA87
:1003400000439A4502FA07F240D9E31808F1FF305A
:1003500004D29A4502D9A8F102002344A3EB0A0370
:1003600089B2B3FBF9F809FB183308FB0EFE41EA2A
:1003700003418E452CD9611808F1FF3304D28E4514
:1003800002D9A8F10203214443EA0040A0FB0298ED
:10039000A1EB0E014145CE46434602D306D14D4561
:1003A00004D2B9EB020E68EB04030138002EA6D08C
:1003B000B5EB0E0261EB030101FA0CFC22FA07F324
:1003C0004CEA0303F940C6E9003198E74046C5E727
:1003D0004346D9E7F0B52E4B2E4AC3F800262E48E7
:1003E000C3F8042685B0C3F808264921C3F80C26B3
:1003F000C3F81026C3F81426C3F81826C3F81C2621
:1004000005F054F904F00CFD01A800F0AFFC234BFB
:100410001B68834204D02248452105F047F9FEE7D6
:10042000039A2048492105F041F91F48492105F068
:100430003DF94FF44041002005F075FB044620B122
:100440001A48452105F032F9FEE769469DF8080093
:1004500000F030F8009B039D1D44019B1E8902F0B3
:1004600023FCAF1900F0E4FF00F0B8FF01F06AFDD3
:10047000AB5983F3088884F31488BFF36F8FBFF3FD
:100480006F8F7B6898470A48452105F00FF9FEE712
:10049000000001403546526ED06200002801002065
:1004A000E96200000C6300003B6300006063000031
:1004B0009363000008B5024638B105480023452182
:1004C00005F0F4F86FF0150008BD0860FCE700BF08
:1004D000B663000021B1012906D06FF01500704706
:1004E000044B53F830007047024B03EBC0035868CD
:1004F000704700BFD85F00002DE9F04FDFF828B249
:10050000DDB0DDE9688916461C466A9FDBF80050BD
:1005100000F02EFF804B0122C3F800253CA803F019
:10052000A3FBB8F1000F07D0B9F1000F04DD4A4674
:1005300041463CA804F0B7FF33897289D6F80CA075
:1005400013449A444FF00008C2455DD80FA93CA857
:1005500003F0FCFB704B0022C3F80025C3F8002514
:1005600027B120220FA9384605F07BF9002300931C
:1005700031464FF6FF73224609A804F052FC0646A6
:10058000002852D120460E9F00F08CF987424CD8AB
:10059000DFF898A1DFF880814FF0FF370DF11E03DF
:1005A00007AA08A909A804F08AFC00283DDB40F04E
:1005B000AC80089909A804F0CEFC50B9BDF81E0023
:1005C000564A4FF6FF7132F8023B8B422DD09842CB
:1005D000F9D1BDF81E90B9F1100F30D1BDF81C60F3
:1005E000202E22D1089933463CAA204605F06CF80B
:1005F000D8B932463CA90FA804F0E7FC484B1B6869
:10060000834212D10126C9E7679B669AAAEB0809C3
:10061000994528BF99464B464146204605F054F877
:1006200030B13D4B0022C3F80025DBF800506EE0EE
:1006300066994A463CA804F036FFC84484E7B9F1FD
:10064000010F41D1BDF81C30202BEED808993CAAEF
:10065000204605F039F807460028E6D19DF81C3001
:100660000393202B09D8DAF800202E4B0492049A29
:10067000974205DB0023C8F800354FF0FF378DE7C0
:10068000059300F075FEC8F800951FA803F0ECFA7A
:10069000059B5A6853F8081B126805931FA804F0BD
:1006A00002FF17A91FA803F051FB0022C8F800257C
:1006B000039A3CA917A805F0C4F8059B10B9C8F81F
:1006C00000056BE70137D2E7B9F1220F7FF466AF7F
:1006D0007B1C3FF463AFDAF80030BB42CDDDBDF8E0
:1006E0001C30802BA1D808993CAA204604F0ECFFCE
:1006F00000289AD1FFB2BDF81C3000973CAA2021F7
:100700000FA800F015F80546B7E7002E8DD0284653
:100710005DB0BDE8F08F00BF00A00250A4620000F1
:1007200028010020E45F000004000020E05F0000DA
:100730002DE9F04796B016461D469DF87820374BB8
:10074000DFF8E88053F83210019103EBC20307464B
:100750005B68D8F80090186802AA0144302301A809
:1007600004F02FFE002851D1DDE901431C4403AA07
:1007700006AB214601A804F04CFE002846D1049A9D
:10078000072A43D12649059805F05BF800283DD19A
:10079000079A082A3AD12349089805F052F8A8BBCD
:1007A00002AA214601A804F020FE78BBDDE901A3DE
:1007B0000AEB0302944229D1412B27D1354430233F
:1007C00003AA294602A8029604F0FBFDE0B9DDE980
:1007D000023213449D4217D32A4602A906A804F008
:1007E000C8FB88B92A4602A90EA804F0C2FB58B972
:1007F0009AF80030042B07D1202306AA0AF1010140
:10080000384600F0CDFD28B1D8F80090484616B023
:10081000BDE8F087044BD3F80090F7E7E45F0000F1
:10082000E5630000DC6300002801002004000020D4
:10083000094A0B78400052F820108B4209D0013051
:1008400052F82000834214BF4FF0FF304FF4C070C5
:1008500070474FF4C0707047EC5F00001FB50F4B3E
:1008600013F830000C4601F07FF950B92068816818
:1008700010236A46103904F027FF28B1206804F0DD
:1008800022FF4FF0FF3006E005491022684604F0D1
:10089000D8FF0028F2D104B010BD00BFEC5F00000B
:1008A000C062000013B5044604F096FB6A46014698
:1008B000204604F09CFA30B10448452104F0F6FECD
:1008C000002002B010BD0098FBE700BFED63000000
:1008D0002DE9F041364B88B0064600200D461C68D5
:1008E000FFF7F8FD06A9C0B201F03EF9002858D183
:1008F0002946FFF7EFFD2C2407A9C0B204FB0564CD
:1009000001F032F9002833D02C276F4306EB07089B
:10091000069BD8F8101011F0100138D14FF48072F6
:100920000192244A0092CDE9031122460291084621
:10093000FFF7E2FD0446204BF25906989A420CD18B
:10094000D8F80C20B8F808309B1806D28268934279
:1009500003D21A4B1B68A34220D035B38268002112
:1009600004F0DCFE164A1748452104F09FFE13E010
:10097000079804F0F0FE0746079804F0A4FE631EF3
:10098000E21C13F8011FB942BED19342F9D11DB147
:100990000699304604F00AFC0B4B1C68069804F0DC
:1009A00092FE204608B0BDE8F081084ADBE700BFB0
:1009B00004000020DC0E00203DB8F3962801002042
:1009C000306400003A640000000000202864000049
:1009D0007FB50D46044600212846CDE9021104F0FA
:1009E000A4FB28B32368194EB34203D103AA2046BF
:1009F00004F030FBE36AB34204D102AA012120468D
:100A000004F028FBDDE90232934288BF0393039B85
:100A1000AB60039A2946204600F0A8FB0C4B1A68ED
:100A2000002A03DD0B48572104F040FE04B070BDDE
:100A300001A9FFF713FF019805F1080104F0D7FAA7
:100A4000AB680198039304F03EFEE2E73DB8F396ED
:100A50008C0D0020626400002DE9F84FDFF878B0BB
:100A60001B4C1C4D884691469A4600260B9B9E4285
:100A700001D300200FE00B9B174A9F1BB7F5806F37
:100A800028BF4FF480673B4606EB0A01404604F05E
:100A90001BFE10B10120BDE8F88F0A993B465A466B
:100AA0007118484604F025FE0028F3D1C4F800561A
:100AB0003E44C4F80456C4F80856C4F80C56C4F8AA
:100AC0001056C4F81456C4F81856C4F81C56CDE78E
:100AD000000001403546526E2C090020F0B5994BBC
:100AE00043620E46984B0365002189B004460846D0
:100AF000FFF7F0FC04F120010546C0B201F034F824
:100B00000346E8B90121FFF7E5FC04F14C01054675
:100B1000C0B201F029F80346E0B9204604F0DBFA40
:100B20000546C8B900221146204604F07DFA054664
:100B300060B386480022572104F0B8FD01239CE0F1
:100B40000022CDE90023824800232A46452104F0F3
:100B5000ADFDFEE70122F4E77E488022572104F034
:100B6000A5FD01239D4284F85830DBD194F858301C
:100B70008DF81730042B00F28380012B00F2878060
:100B800000F09A80FF2384F8583095E0204600F06A
:100B9000FFF90028D2D004A804F0BEFA014620468E
:100BA00004F059FB18B16C482A465721C4E704A841
:100BB00004F0BBFA80F0010104AAC9B2204604F097
:100BC00033FA02460028B4D104A804F0AEFA054670
:100BD00060BB04A92046FFF7FBFE9DF8173084F8A0
:100BE0005830033B012B06D8284600F0E5F810B139
:100BF000FF2384F858309DF81730023B022B0BD8A6
:100C0000002000F0C3F838B1FF2384F8583053486F
:100C1000452104F04BFDFEE794F85830FF2BF6D049
:100C200004AA0021204604F0FFF987E79DF8177019
:100C3000012F17D1104602F0E3F8831E022B054660
:100C40000DD839462046FFF743FE454B1B689842B6
:100C500005D0444B1D68A84214BF0525012584F822
:100C6000585083E701212046FFF732FE3C4B1B68BA
:100C700098420CBF9DF81730052384F8583075E76B
:100C8000052B7FF47FAF002000F096F811E004A957
:100C90002046FFF79DFE94F85830DA1E012A14D83A
:100CA000002000F089F800287FF46CAF002000F0ED
:100CB0006DF800287FF466AF94F85830FF2B07D109
:100CC0002648452104F0F2FCFEE7022BF4D1EDE7C3
:100CD0000022012B244D039214D01146204604F02B
:100CE000A3F978B12D68102200210DEB020004F069
:100CF000C3FDE06C04F0E7FC206A04F0E4FC284645
:100D000009B0F0BD00212046FFF7E2FD144F3B681B
:100D10009842E7D12B689842E4D0124B1B68984266
:100D2000E0D0039B01330393039B012B00D0FEE72C
:100D3000206A04F05AF83071236A5B6834603D68B9
:100D4000B360D0E72C0500202C01002020650000B6
:100D500091640000DE6400004C65000076650000D0
:100D600028010020000000200400002038B5064DB6
:100D7000044660220021284604F07EFD21462846D4
:100D8000FFF7ACFE38BD00BF2C0D002013B5094B9A
:100D900001A913F8300000F0E7FE48B9019804F00B
:100DA0007BFF0446019804F08EFC204602B010BD83
:100DB0000124FAE7F45F00001FB50F4B01A913F8F7
:100DC000300000F0D1FEA8B9019802A901F0C2FFDD
:100DD000044668B99DF80B30032B03D1019804F049
:100DE00029FF0446019804F06EFC204604B010BDB3
:100DF0000124F7E70124F8E7F45F00002DE9F3414F
:100E000006460C4617461D460BB9002628E0184634
:100E100004F08BF90028F8D16946FFF71FFD009810
:100E200038B90124009804F04EFC204602B0BDE819
:100E3000F08101A904F0DBF80028F2D1009804F059
:100E400042FC3046019904F053FA736A5E686B798C
:100E5000012B21D1002CD8D12B68834298BF0026CA
:100E600021460020FFF736FB6946C0B200F07CFE49
:100E70000028D6D1009820233A46314604F024FCBD
:100E800004460028CDD1002DCCD03C680D4BE41A8F
:100E900018BF4FF0FF34C5E7022BB6D12B68012BEA
:100EA00005D98342B1D8B4FA84F46409ADE7ACD172
:100EB000002CD5D0012CA8D12C79023C18BF0124DC
:100EC000A3E700BF3DB8F3962DE9F04F074685B084
:100ED0000C46014600201646FFF7AAFC051E50DB13
:100EE0003846E46D04F078F85FFA84F96B1E09FB6C
:100EF00003084FF0000A4FF0010B4FF0FF349DB98B
:100F0000BAF1010F03DD2148452104F0CFFB631C3A
:100F100006D07F2C2ADC013440F201133460B38008
:100F2000284605B0BDE8F08F6B1E00930DF10F024F
:100F300001234146384604F0C7FB031E019322DB20
:100F400001220DF10F01384604F00FFE019B40B164
:100F50005B4501D00AF1010A009DA8EB09089B46F8
:100F6000CDE7B4F1FF3F08BF2C46F5E70223803CF4
:100F70007371631004F00104013301343360347180
:100F8000CEE70725CCE70125CAE700BF8265000050
:100F900070B5866A456D044604F099F9AE420AD0F0
:100FA0006B1CB34207D0834205D01448572104F08C
:100FB0007DFB002070BD802E1CD911485721F6E71B
:100FC000626A216D02EBC30201EBC30152684968FA
:100FD000914202D00B485721E9E701339D42EFD1FE
:100FE000AE4205D9636A03EBC5035B689342F1D156
:100FF0000120DFE700231A46F0E700BFA5650000E7
:10100000DD6500000C66000000B589B004A902206F
:1010100004F01DFE9DF81020012A41D0254B2649E1
:10102000032A08BF0B469DF8132002929DF8122058
:1010300001929DF81120214800924921204A04F094
:1010400035FB06A9052004F002FE9DF81820012AB0
:1010500028D0184B1849032A08BF0B469DF81B20BF
:1010600002929DF81A2001929DF8192000921348CF
:10107000144A492104F01AFB9DF81030012B13D1BA
:101080009DF81230032B0FD19DF81830012B0BD097
:101090000D48492104F00AFB022009B05DF804FB69
:1010A0000A4BC0E7094BD9E70948492104F0FEFA89
:1010B0000020F2E738660000416600005566000037
:1010C0004766000096660000A66600003C660000C9
:1010D000C566000070B54B6814461E4A03F0FF2336
:1010E000934286B006460D462FD10B68012B2CD1BA
:1010F00004A9204601F02EFE9DF81020012A26D0DA
:10110000154B1649032A08BF0B469DF8132002927F
:101110009DF8122001929DF8112000921048114A6A
:10112000492104F0C3FA9DF81030032B0DD121465C
:10113000304604F03BF8204604F07CFDA9682046C8
:1011400003F063FF204601F0E5FD06B070BD064BDD
:10115000DBE700BF000100043866000041660000C4
:1011600055660000966600003C6600002DE9F04FD1
:10117000164689B005460C467448492104F096FA93
:101180003146284604F0B4F86B6A824620465E6811
:1011900003F0CBFFE8B1E86D03F019FFAF6A00235D
:1011A000013F3344834201D2013FFAE7BA4510D3ED
:1011B0006748572104F07AFA07FB06F365480AFBF3
:1011C0000662572104F072FA0123E37109B0BDE809
:1011D000F08F06A9022000F0C7FC07A9052000F047
:1011E000C3FC079A21462846FFF774FF6379012B59
:1011F0004BD1DFF864B1574641E02268C2F10103E8
:1012000053449F423AD86B6A196853F8370003EB8E
:10121000C703012A53F8083CA3EB0103A0EB010923
:10122000049311D1079B0393E368022B08D0414636
:10123000284603F0BBFF22464146284603F0ECFF58
:101240000399284603F0B2FF32464946404603F070
:10125000ABFF049B42464146CDE900962846FFF786
:10126000FBFB2146284603F06DFF23680133236012
:1012700020B1DBF800300133CBF80030013FDDF85E
:101280001880002FB9D10123236002236371012745
:10129000BA45DDF8189006D2484604F014FA0798CB
:1012A00004F011FA92E723689F424DD36A6ADDF891
:1012B0001CB052F837100491FB00083B11680391F1
:1012C000D1582A6DD0581368A0EB03082379012B5D
:1012D00038D1039B3246C91A4846059103F064FF92
:1012E0000599009143464A46594601962846FFF71C
:1012F000B3FB2146284603F025FF0223237118B1D2
:10130000154A13680133136032464146584603F0CC
:101310004BFFDDE9032349469B1ACDE900865A4677
:101320002846FFF799FB2146284603F00BFF236868
:10133000013323600123237130B1074A136801335D
:10134000136001E0022BDFD00137A1E7DC6600006B
:1013500005670000346700008C0D00200A4619B1B3
:10136000024B00211B681847704700BF080000208F
:1013700070B5094D2B780BB1002070BD074C0126CC
:10138000C4F8006502F012FD18B92E70C4F800050B
:10139000F2E74FF0FF30F0E7DC0F002000A0025032
:1013A0002DE9F041DFF83080ACB01F4606460C4610
:1013B0001546FFF7DDFF0123C8F800352A463346FE
:1013C0000097214603A804F0D5FC0023C8F8003597
:1013D0002CB0BDE8F08100BF00A00250BFF36F8FBA
:1013E00072B6124B4FF0FF32C3F88020C3F884204E
:1013F000C3F88820C3F88C20C3F89020C3F8942049
:10140000C3F89820C3F89C20C3F88021C3F8842136
:10141000C3F88821C3F88C21C3F89021C3F8942124
:10142000C3F89821C3F89C21704700BF00E100E099
:10143000F8B5254B254D4FF0FF3401275F60C3F809
:101440004843C3F8084303F5C04300265F60C3F870
:101450004843C3F8084303F5983302205F60C3F89C
:101460004843C3F80843C5F8084300F0CDFD6F605A
:10147000C5F84C61D5F84C31C5F81061D5F810317C
:10148000C5F84461D5F84431C5F8006505F518354F
:101490002820C5F8084300F0B7FD6F60C5F84C611F
:1014A000D5F84C31C5F81061D5F81031C5F8446154
:1014B000D5F84431064BC5F80065C3F808454FF030
:1014C0008043C3F80843F8BD00B00040002000404E
:1014D00000F00140014B1B68184700BF0C000020C2
:1014E00007B50B46002102460091034800F006F8BC
:1014F00003B05DF804FB00BFD51400002DE9F04FE8
:101500008DB01D46531E8246019103934FF0000992
:10151000039B5878252803F1010419D11E460020A9
:101520004FF0FF3802360346029044463178039666
:10153000392954D81F2914D8002900F0EE810199C7
:101540002520D04701993078D04709F10209DFE71B
:10155000002800F0E2810199D04709F101090394C4
:10156000D6E7A1F12002192AE9D801A757F822F0FD
:10157000D91500003F1500003F150000D9150000E7
:101580003F150000591600003F1500003F150000F0
:101590003F1500003F150000A5160000D9150000FA
:1015A0003F150000B9160000651600003F15000049
:1015B00073160000931600009316000093160000A7
:1015C0009316000093160000931600009316000077
:1015D000931600009316000008460136A6E7582926
:1015E00000F0EB80A1F16302D7B2172FA7D8172A1A
:1015F000A5D801A757F822F061180000DF160000F7
:101600003F1500003F1500003F150000BF16000009
:10161000DF1600003F1500003F150000BF16000058
:101620003F1500003F1500003F1500009517000012
:101630003F1500003F150000351800003F15000061
:10164000DF1600003F1500003F1500009517000051
:101650003F150000BF16000001992520D04709F171
:10166000010955E7029A02F0FE0202924FF00008CB
:10167000B3E7002C0DDAB8F1000F0DDA029A002A58
:1016800000F0438124EAE4740A2202FB0414303C93
:10169000A3E7B8F1000FF5DB0A2202FB0812A2F162
:1016A00030089AE7B8F1000F55F8042B80F22F812B
:1016B000002A80F22E815442022202928DE768298C
:1016C00003D1682B06D1482387E76C2902D16C2B04
:1016D00000F02181002B7FF432AF0B467DE77A2B9F
:1016E00006D1752955F8046B14D14FF0000B0CE0AE
:1016F0006C2BF6D04C2BF4D1073525F00703752958
:10170000D3E9006B03F1080506D120283BD1854FB2
:10171000013C09E04FEAE67BBBF1000FF5DA7642C7
:10172000814F6BEB4B0B013C0DF12D030593002317
:101730000493304659460A220023FEF7E1FC059B3C
:10174000303203F8012DB4460593049B5A46BCF190
:101750000A0F8B4672F1000203F1FF310646049135
:10176000E7D2C3F1010B30330DEB0306B8F1000FE4
:10177000A6F104066DDA029BD9077DD4A8EB0B0312
:10178000A4EB0B0413E02B280ABF684F684F04F149
:10179000FF34C9E770290FD155F8042B0023FAB99B
:1017A000634F644E053C6FF004034FF0050B029A43
:1017B000920770D4A04666E078216C2B03D155F8CF
:1017C000042B002308E04C2BF9D1073525F0070343
:1017D0001D465B6855F8082B232825D1880621D59E
:1017E000554F023C01F06001A1F1390B0DF12D0EB6
:1017F000002602F00F01092988BF594430310EF844
:10180000011D102A4FEA121141EA03714FEA131C1D
:1018100073F1000306F1FF3008D2C6F1010B06F1A7
:101820003003A1E7454FDCE7414FDBE706460A46B8
:101830006346DEE755F8046B304603F0FBFFB8F172
:10184000000F834602DB4045A8BFC346384F4FF028
:101850000008A8EB0B03002B92DDA4EB0804A6E71D
:1018600055F8043B8DF81830314F013C4FF0FF33F1
:101870004FF0010B06AE9AE7A046EAE70293019902
:101880002020D047029BB8F10108F7D524EAE47282
:10189000013C9144A41AB84606E0049302920199CF
:1018A000D047029A049B9046424612F8010B00284A
:1018B000F3D11A46013A15D5002BACBFC7EB03078D
:1018C0007F425B46013B15D5BBF1000FA8BF5F44CB
:1018D0004F442646013E14D5002CA8BF3F1907EB04
:1018E000080915E60493029201993020D047049B21
:1018F000029ADFE70293019916F8010BD047029B89
:10190000E0E701992020D047E4E70122D5E69046A0
:1019100063E6144661E64C235FE648460DB0BDE839
:10192000F08F00BFC2670000C0670000C4670000FE
:1019300081650000CC670000C6670000C967000031
:101940002DE9F047058B04462807904611D402295B
:1019500005F0070540F0CC80204603F0CEFD78B1BD
:101960000138218B042811D8DFE800F0C2106D8502
:10197000950001290CBF45F0100545F02005258391
:1019800088F31188BFF36F8FBDE8F08701F0070A75
:10199000AA4500F0A5800027B9463E46A368002B63
:1019A00000F0BC8041F00801218388F31188BFF367
:1019B0006F8FA168002900F0BA800D68002900F03F
:1019C000B680D1F80480334652462046C047002DE9
:1019D00076D02B6829461D46F0E701F007035A1F11
:1019E000012A1BD8002221F00701062B276889B2A3
:1019F000C4E9002209D13B4603E0628B01326283D5
:101A00001B68002BF9D141F002012183204603F02D
:101A100074FD00287AD041F0200176E0042B0AD131
:101A200021F0070189B22183204603F066FD10B141
:101A300041F020012183218B01F0070AAA454FD0F4
:101A40000027B946AAE7236921F0070141F0060102
:101A5000062DD3F8009021832DD1B9F1000F3FD08E
:101A600041F00801218388F31188BFF36F8F3A4951
:101A70002046C84729E021F00701236941F004010D
:101A800089B2042DD3F804902183E6D000273E4686
:101A90004FF0040A82E721F00701236941F00501B4
:101AA00089B2052DD3F808902183D6D000273E4671
:101AB0004FF0050A72E700273E464FF0060A6DE731
:101AC0002B4687E7B9F1000FD1D1EFF3118820231E
:101AD00083F31288BFF36F8F238B23F008032383D4
:101AE000258BEA062ED525F01003238305F0070584
:101AF0006669218B002EBFF670AF00232768C4E90A
:101B0000003321F0070141F001012183218B01F015
:101B1000070AAA454FF000097FF440AF002F9CD080
:101B200041F00801218388F31188BFF36F8F002FE4
:101B3000C8D03D68394633465246204603F009FD79
:101B40002F46F4E7AB067FF51BAF25F02003238378
:101B500005F0070500E700BF7F550000014B03605B
:101B6000002070470060000070B5114B1C680D46E6
:101B7000DCB1104B196800238B4202DB6FF00100CF
:101B800070BD224612F8106B864202D00133144613
:101B9000F2E7E06810B96FF01200F1E704F0A3F883
:101BA0000028F8D02C600020EAE76FF00C00E7E78F
:101BB000100000200060000070B588B005460C469B
:101BC000C0B269461646FFF7CFFF00281BDB00981E
:101BD000C8B143680293836822680195CDE9033652
:101BE0000023CDE906230593C56803F06CFD6DB1B4
:101BF0002846084901AA03F01FFF079808B9059B6A
:101C0000236008B070BD6FF01500FAE76FF01200A6
:101C1000F7E700BF6557000008B5054803F060FC12
:101C2000044803F05DFCBDE80840034803F058BCDD
:101C3000D26700000368000036680000014801F028
:101C400065BD00BF7460000030BFFFF7FDBF00BF7F
:101C500070B5264B15469A6A12F0100F9A6A14BF97
:101C60001124102412F0080F9A6A18BF1224920748
:101C700006460AD5586B9A6A140634D519B19A6A81
:101C800022F080029A62132401E06FF01500174BD6
:101C90009A6A12F0010F9A6A18BF142412F0200FEA
:101CA0009A6A18BF1524D20602D49B6A9B070AD5EC
:101CB0000E4B5B68190506D5314600F00DFA10B1E0
:101CC00080F309880224094B9A6A920642BF5A6A35
:101CD00022F400525A629A6A42F0FF029A6200238A
:101CE0002B70204670BD6FF01500CCE700ED00E0D2
:101CF000134B9A6A12F0007F9A6A14BF1E201D20AF
:101D000012F0807F9A6A18BF1F2012F4002F9A6A7F
:101D100018BF212012F4802F9A6A18BF222012F4D3
:101D2000003F9A6A18BF232012F4803F9A6A6FEA34
:101D300002426FEA12429A6218BF2420704700BF25
:101D400000ED00E010B5194B0246986A9C6A10F449
:101D5000805F14BF1720162014F4006F9C6A18BF10
:101D60001820A40509D5986B986A000404D51AB107
:101D70009A6A22F400429A6219200C4B9A6A12F471
:101D8000806F9A6A18BF1A20D2050CD49B6A13F48C
:101D9000005F18BF1C20054A936A43F47F43936297
:101DA00000230B7010BD1B20F5E700BF00ED00E025
:101DB00070B5454B5B688AB00546C3F3080300263F
:101DC00086F31188BFF36F8F02F07F40B0F17F4F31
:101DD00011D102F00C0008280DD010074CBF0D46A1
:101DE00001260022033B8DF80720032B05D8DFE8EE
:101DF00003F01E5D615A3546F3E700249DF8073075
:101E00009BB92022294602A803F02BFD099B002E36
:101E100054D0C3F3080222B96FEA53236FEA432375
:101E2000099302A9204603F0C1FC0AB070BD264BFD
:101E3000DA6A9107E1D4DA6A002ADEDBDA6A520054
:101E4000DBD55A69A96942F480725A61BFF34F8F9A
:101E5000BFF36F8F5A6931F8021C22F480725A6105
:101E6000BFF34F8FBFF36F8F4DF6027291420AD0CE
:101E70009A6AD2B24AB10DF1070201212846FFF752
:101E8000E7FE0446BAE72C68B8E79A6A12F47F4F77
:101E900005D00DF107010120FFF754FFF1E79B6A20
:101EA000B3F5803FA9D3FFF723FFEAE70DF107025F
:101EB0000021E3E70DF107010020EDE723F4FF73B4
:101EC00023F00103ACE700BF00ED00E0024A5369D4
:101ED00043F010035361704700ED00E0EFF308801A
:101EE000EFF3098101B57246FFF762FF01BD00BF44
:101EF000002080F31488BFF36F8F00F081FA002078
:101F00000D490860BFF34F8F0C4880F3088800F03C
:101F10002BF8202080F3118809484FF40461401801
:101F200080F30988EFF314800221084380F31488BA
:101F3000BFF36F8F00F0A2F894ED00E04044002062
:101F4000001400200749D1F890200023C2F3072293
:101F50001846934200DB7047C1F89830C1F8A000E2
:101F60000133F6E700ED00E008B572B6002383F315
:101F70001388FFF7E7FF144B4FF0FF32C3F88020C0
:101F8000C3F88420C3F88820C3F88C20C3F89020BD
:101F9000C3F89420C3F89820C3F89C20C3F880218C
:101FA000C3F88421C3F88821C3F88C21C3F8902199
:101FB000C3F89421C3F89821C3F89C2162B6BFF3FB
:101FC0004F8FBFF36F8F08BD00E100E01EF0040FDC
:101FD0000CBFEFF30880EFF30980816911F8021C50
:101FE0000229FFD001B503F0E7FB01BD40B2002894
:101FF00007DB044A4109012300F01F00834042F837
:102000002130704700E100E040B200280CDB4309BA
:10201000064900F01F0020330122824041F82320AE
:10202000BFF34F8FBFF36F8F704700BF00E100E039
:10203000054B420900F01F0053F82220012303FA48
:1020400000F01040704700BF00E100E040B20028FF
:10205000A8BF00F1604001F10101B8BF064B4FEA93
:102060004111ACBF00F5614000F00F00C9B2B4BF30
:10207000195480F80013704714ED00E0144A08B5B5
:10208000144B22F07F029A60BFF34F8FBFF36F8F24
:10209000D3F8882022F47002C3F88820D3F888206F
:1020A00042F4A002C3F888204FF04042C3F8342223
:1020B000BFF34F8FBFF36F8F0023E1EE103A01F0B3
:1020C000CDF901F013FA00F041F801F0D3F900BFA7
:1020D0000000000000ED00E010F1160F074B08D0E3
:1020E000984208D34033834205D98B4203D9044830
:1020F00070474033F9E70020704700BF401C0020C4
:10210000801C002080B51E4607460C46154600235D
:10211000E1EE103ADFF81CC08CF309884FF00000A4
:1021200005498847204629463246B8470348804734
:10213000FEE700BF80440020D9570000E7570000A9
:10214000014B10221A61704700ED00E004480023A3
:102150002021C2180133302B82F80013F9D17047C7
:1021600000E100E008B5EFF30583064A103B02EBFF
:10217000C30152F8330049688847BDE8084003F0BE
:1021800026BB00BF345E0000024B034A0348022115
:1021900000F066B800000420000000207C60000011
:1021A000084AC2F898000B6823F01F03034343F06A
:1021B0001003C2F89C308B6843F00103C2F8A030D2
:1021C000704700BF00ED00E02DE9F043DFF86080CC
:1021D00085B00E461F4604464FF00009B14523DA8C
:1021E0006068D8B13FB1411E08421BD11F2819D9E0
:1021F0002368194216D12368019303F00BFBA368EF
:1022000003430393D8F89050C5F30725D0B2013D9E
:10221000A84207D801A9FFF7C3FF421C09F1010931
:102220000C34DBE76FF01502104605B0BDE8F08313
:1022300000ED00E0044B0522C3F89420BFF34F8F5C
:10224000BFF36F8F704700BF00ED00E0BFF35F8FFB
:10225000024B0022C3F89420704700BF00ED00E05D
:1022600010B5034C01232278FFF7AEFF207010BD9C
:10227000DD0F00202DE9F043534B544CD3F8903040
:102280002568C3F307239D4285B000F29A80FFF7CB
:10229000DDFF00200C2685421AD14D4C4D4F257094
:1022A0006846FFF75BFCDFF82081DFF82C910646DB
:1022B0000025AE4213D1237843490020D1F8902065
:1022C000C2F30722934276DBFFF7B4FF002042E01F
:1022D000616806FB0011FFF763FF0130DBE7009840
:1022E00000EB05114FEA051CCB683B40B3F5000F2E
:1022F00048D00AD8B3F5001F30D0B3F5800F36D0E0
:10230000B3F5801F10D00135D3E7B3F1807F42D001
:10231000B3F1007FF7D150F80C3088684A6803F0B9
:1023200079FA40F4802009E050F80C3088684A6857
:1023300003F070FA40F0885040F43020CDE90123DA
:102340000390D8F890302078C3F30723013B9842DC
:102350002AD96FF0150005B0BDE8F08350F80C30B5
:1023600088684A6803F056FA40EA0900E6E750F840
:102370000C3088684A6803F04DFA40F0007040F471
:102380000030DBE750F80C3088684A6803F042FA06
:1023900040F08270D2E750F80C3088684A6803F049
:1023A00039FA40F08870C9E701A9FFF7F9FE2378F0
:1023B00001332370A7E7C1F89830C1F8A0000133BA
:1023C0007CE74FF0FF30C6E700ED00E094600000CE
:1023D000DD0F00200000F0FF00000811024B012279
:1023E000C3F840250020704700E0014020B1034BB6
:1023F000800143F001031847704700BFD05F000021
:1024000000F098BD084B70B5C31A0D4607499B10E4
:10241000044659430648402203F040FA2B46014641
:102420002046BDE870401847A40D0020B76DDBB60C
:102430000C5E000073B50C4C0C4A4023041B009347
:102440000D460B460A49A41061430646094803F0AD
:1024500050FA011E05DA30462B4602B0BDE8704046
:10246000184702B070BD00BFA40D002061590000E4
:10247000B76DDBB60C5E000010B5EFF311842023BE
:1024800083F31288BFF36F8F074A136823F00201AA
:10249000DB07116002D4012003F009FC84F31188EA
:1024A000BFF36F8F10BD00BFF40D0020002270B588
:1024B000012104461046FFF7C9FD0F4800F088FED1
:1024C0000E4B984215D100F093FE26690C49304618
:1024D00003F063F800280BDB012535642469084903
:1024E00004F11C0003F059F8002801DBE56400202A
:1024F00070BD6FF00400FBE7CD2500000000AD0BC0
:10250000B460000030B4104B0C2202FB00330146D3
:102510000020D3E90E529863EFF31180202484F356
:102520001288BFF36F8F1C6C04F0C00444F00204E7
:102530001C6480F31188BFF36F8F1DB12B460348D5
:1025400030BC184730BC7047A40D00200C5E000062
:1025500010B4EFF31182202383F31288BFF36F8F3F
:102560001848016841F002040460C80708D482F3E7
:102570001188BFF36F8F01205DF8044B00F04ABE55
:102580004FF08041D1F80C04D1F80C14C907EED5F6
:10259000EFF3118083F31288BFF36F8F0A490B6C3E
:1025A00003F0C00343F002030B6480F31188BFF310
:1025B0006F8F82F31188BFF36F8F00205DF8044B9B
:1025C000FFF7A0BFF40D0020A40D002010B10128DA
:1025D00004D07047034B1B6C5B0701D1FFF792BF20
:1025E000704700BFA40D00202DE9F8433649BFF322
:1025F0005B8F0746012251E8003F41E80020002898
:10260000F9D1BFF35B8F33B9304931484B60CB60B0
:102610008A6002F0D5FF7B1E012B2DD8012F07D138
:102620004FF08043D3F81C3403F00303012B23D075
:1026300003F09AFB054608BB264B1B78F3B14FF01D
:1026400080430222C3F808230646DFF88C904FF03F
:1026500080444FF00108D4F81824D4F81834D20379
:1026600015D503F00303012B01D0012F0FD125B3A2
:1026700086F31188BFF36F8FBDE8F883EFF31186FF
:10268000202383F31288BFF36F8F0125DDE73046E7
:1026900003F0B1F8D4F81835002BDCD1D4F80421BC
:1026A000002AD8D0C4F80431D4F80431C4F818850D
:1026B000C9F88081C4F80880CDE74FF0804302223A
:1026C000C3F80423D8E700BFA00D0020900D002020
:1026D000C00D0020EF13002000E100E0024B0B6072
:1026E00001231360704700BFF80D002000487047B9
:1026F0000861000010B503F0E6FA034C206003F017
:10270000DEFA6060002010BDF80D00204FF080421E
:10271000D2F81015D2F8103501F01E0123F01F0376
:102720000B4343F00103C2F81035024B00221A702C
:10273000704700BFDE0F00204FF08053D3F83031D8
:10274000082B20D14FF08042D2F81015CB071AD5B4
:10275000D2F8103501F01E0123F01F030B43C2F81D
:102760001035D2F808315BB1D2F8103523F01F03D1
:102770000B4343F00103C2F810356FF08B00704734
:10278000024B01221A700020704700BFDE0F0020AC
:102790002DE9F0410D46164603F091FA3146074601
:1027A000284603F0EDF828B3B5FBF7F307FB135306
:1027B00003BBB6FBF7F407FB1464DCB9B74213D8CC
:1027C00003F07DFADFF834800746FFF7B5FF0446D3
:1027D00068B9284600F0B2FD98F800300BB1FFF759
:1027E00095FFF61B3D44F0D12046BDE8F0816FF027
:1027F0008B04F9E76FF01504F6E700BFDE0F002049
:102800002DE9F8430E463046194617461C4603F09C
:10281000B7F830B346EA040515F0030521D11CB31F
:10282000DFF84C906319032BA6EB050807D80F4A75
:10283000D2F80034DB07FBD50020BDE8F883FFF7B2
:102840007BFF58B97B1B4046196800F097FD99F84B
:1028500000300BB1FFF75AFF043DE3E76FF08B0048
:10286000EBE76FF01500E8E72046E6E700E00140FF
:10287000DE0F002070B5012383400E4ABFF35B8F4B
:10288000DC4352E8001F01EA040542E80056002E2E
:10289000F7D1BFF35B8F4FF4803282400648C0F817
:1028A0000823BFF35F8FBFF36F8F0B4214BF01206C
:1028B000002070BD040E00200010014070B40E49CD
:1028C000D1E90034D01AC31844F1000422F07F4645
:1028D000C1E90034A6F50013B3F5400F09D2074B48
:1028E0001B681A0A1B069C19054B42F10005C3E937
:1028F000004570BC00F05ABE90000020080E002079
:102900009800002011B3BFF35B8F0123104A83406E
:1029100052E800CF4CEA030C42E800C10029F7D18D
:10292000BFF35B8F0B4A4FF480338340C2F804330C
:10293000094BBFF35B8F1B68BFF35B8FC340DB07A3
:1029400042BF064B4FF40032C3F80021704700BF6E
:10295000040E002000100140000E002000E100E005
:102960000D4B1868010A0006BFF35F8F0B4BD3F8BD
:102970000435181841F10001B3F5801F0AD2084B45
:10298000D3E90023904271EB030303D210F180706E
:1029900041F10001704700BF080E00200010014007
:1029A000980000202DE9F04F85B016461F469DF88F
:1029B00040A00446FFF75EFF0190FFF7D1FFB04251
:1029C00071EB070354D23E4B301A67EB010198427A
:1029D00071F100014FD23B4B03EB0413D3E9022307
:1029E0009F4208BF96425ED037494FF4803804F1C9
:1029F000500508FA04F8AD00C1F848832046ADB28E
:102A000003F046F826F07F4B05F1804504F5A873E6
:102A100005F58835DC464FF003090293029A2CF045
:102A20007F4341F82230C1F84483D1F80435274A66
:102A30006FF00200C01A604420F07F40904232D90B
:102A4000286868B1D1F804350393A3EB0B0020F09C
:102A50007F40B0F5000F26D9204603F019F8039BFC
:102A6000BAF1000F07D109EB030C09F10109D5E711
:102A7000BAF1000F09D06FF0150520460199FFF754
:102A800041FF284605B0BDE8F08F0123104ABFF38F
:102A90005B8FA34052E8000F184342E80001002971
:102AA000F8D1BFF35B8F07490E98230101EB0412A5
:102AB000C8500F9B5360C2E902670025DDE700BFE5
:102AC000010080008000002000100140FDFF7F0019
:102AD000000E00207FB51C4C1C4BC4F80833C4F812
:102AE00048331B4B00254FF0FF304FF0FF31C4F847
:102AF0000855C3E902014FF48033C4F80433154B81
:102B000002264FF400320121C4F804631120C3F8F7
:102B100080212A46FFF79AFA1120FFF767FA0E4A3A
:102B20000123A360236013600C4B0D4A0093CDE991
:102B3000015500232846FFF735FF3046FFF754FDC7
:102B4000284604B070BD00BF0010014003000F0014
:102B50008000002000E100E0040E0020BD280000FD
:102B6000FFFF7F002DE9F7432F4CD4F8043399077A
:102B70000BD5D4F8043143B12C4A0023C4F80431F6
:102B8000D4F80431136801331360D4F80433DA0342
:102B900029D5BFF35B8F264B53E8002F22F00101AC
:102BA00043E800100028F7D1BFF35B8FD30702D4AE
:102BB000D4F84031BBB10025C4F84051D4F84031BD
:102BC000FFF7CEFEEFF31182202383F31288BFF3C9
:102BD0006F8F184BD3E90267B042B94106D282F336
:102BE0001188BFF36F8F03B0BDE8F0834FF0FF385B
:102BF0004FF0FF39C3E90289D3E900101D604FF49B
:102C00008033C4F84833C4F84051D4F8403182F3DB
:102C10001188BFF36F8F0029E5D0009032463B4604
:102C200028468847DFE700BF00100140080E00205B
:102C3000000E00208000002030B5431C124C85B0EF
:102C400005D08442A8BF0446012CB8BF0124FFF779
:102C500087FE0E4B0C4DD3E90013401AB0F5000F60
:102C600010D22218AA4228BF2A4652184FF000005C
:102C700007490091CDE9010043F10003FFF792FEFF
:102C800005B030BD2A46F0E7FFFF7F00900000202E
:102C9000BD28000008B5FFF763FE024B1B68C01A91
:102CA00008BD00BF9000002010B5084C01236360F0
:102CB0001120FFF7A9F9064BC4F80833C4F84833CC
:102CC000044B4FF40032C3F8802110BD00100140C6
:102CD00003000F0000E100E030B50C490C4D0B681B
:102CE0000246002405EB0310D0F80808C0B218B95A
:102CF00004B10B60002007E00133072B4FF0010403
:102D0000F0D90B606FF01B00136030BD0C0E00207B
:102D100000E0014030B5816885B0103921F007042A
:102D2000054602F018FD10220146684602F0A4FD97
:102D300007491022684602F094FD10236A46214696
:102D4000284602F0D6FC003818BF012005B030BD7F
:102D5000C062000030B50D46816887B0102302AA1A
:102D60001039044602F0B0FC002802DA012007B056
:102D700030BD102202A9204602F0F7FE00283AD109
:102D80001E49102202A802F05CFD00280CBF01239E
:102D900002232B70204602F0D4FE012301460DF1E0
:102DA0000702204602F090FC0028DFDB9DF8073088
:102DB00003F00F021B096A702B7101220DF107014C
:102DC000204602F0D2FE10B96B78042B03D9012300
:102DD0006B7000232B71A268183A22F00702083AA0
:102DE000A91C204602F0D4FE0028BFD1E91C2046D1
:102DF00002F027FFBBE70323CBE700BFC062000060
:102E0000F0B5354F460085B00546694657F82600AF
:102E100002F01DFF044610B1FF2005B0F0BD0136E1
:102E200002A957F8260002F012FF012837D12B48DB
:102E30002A46492102F03AFC294B02938DF80C40B6
:102E40009DF800609DF80870264C002220783146DD
:102E500002F07DFE50B36078394602F078FE28B368
:102E6000A378042B03D09DF8031099421ED1E37878
:102E7000042B03D09DF80B10994217D12379042B12
:102E800010D16279022A1DD1174B18482A464921D0
:102E900002F00CFC6079831E022BBED9BCE700282F
:102EA000CED0B9E79DF802109942EAD00132032A48
:102EB00004F10604CAD10E482A46492102F0F6FB65
:102EC0000120AAE7032A05D00A4B0B49042A08BFB0
:102ED0000B46DAE7094BD8E710610000CB68000029
:102EE0000301030360690000AD680000166900007B
:102EF0003A690000B2680000C4680000A8680000D9
:102F00004FF08053D3F83021082A06D1D3F834315A
:102F1000052B02D8024AD05C70470020704700BFE2
:102F200078690000024AD2F80034002BFBD07047C9
:102F300000E0014010B54FF08053D3F83021082A4B
:102F40004ED14FF080420021C2F80C11C2F810118E
:102F5000C2F8381502F54042D3F80414C2F820151F
:102F6000D3F80814C2F82415D3F80C14C2F82815A5
:102F7000D3F81014C2F82C15D3F81414C2F8301575
:102F8000D3F81814C2F83415D3F81C14C2F840153D
:102F9000D3F82014C2F84415D3F82414C2F8481505
:102FA000D3F82814C2F84C15D3F82C14C2F85015D5
:102FB000D3F83014C2F85415D3F83414C2F860159D
:102FC000D3F83814C2F86415D3F83C14C2F8681565
:102FD000D3F84014C2F86C15D3F84434C2F87035F5
:102FE000FFF78EFF18B1414B414AC3F88C26FFF71B
:102FF00087FF18B13F4BFB22C3F81825FFF780FF6E
:1030000070B14FF080414FF08053D1F8E42ED3F8E7
:10301000583222F00F0203F00F031343C1F8E43ECD
:10302000FFF76EFF20B1344B4FF40072C3F8402617
:103030004FF08053D3F83031082B09D14FF0804343
:10304000D3F80024D20744BF6FF00102C3F8002474
:103050002A4AD2F8883043F47003C2F88830BFF3AC
:103060004F8FBFF36F8F4FF08053D3F83021082A72
:103070000ED1D3F83431052B02D8214AD35C3BB1B1
:103080004FF01023D3F808224FF08043C3F858259F
:103090004FF01023D3F80022002A03DBD3F80432C8
:1030A000002B22DA174901234FF01020C1F8043514
:1030B0001224FFF737FFC0F80042FFF733FFC0F8D4
:1030C0000442FFF72FFF0023C1F80435FFF72AFF62
:1030D000BFF34F8F09490C4BCA6802F4E0621343F7
:1030E000CB60BFF34F8F00BFFDE710BD0050004025
:1030F0004881030000F000400090024000ED00E035
:103100007269000000E001400400FA05F7B50446CA
:1031100018B1012823D003B0F0BD4FF08043022244
:10312000C3F808230122DA60C3F80401D3F804319C
:10313000064601238DF8073042F210754FF08047A4
:10314000D4B1012CE7D1D7F80C3403F48033AEBBF3
:1031500083B3012002F0A9FD013DF4D12AE04FF034
:1031600080430022C3F808035860C3F80021D3F855
:1031700000310DF10706DCE7D7F8183403F480338B
:103180003EB9002BC7D0012002F08FFD013DF3D1E5
:10319000C1E7D7F8182402F003023260002BBAD03E
:1031A0009DF80700012803D102F07FFD013DC7D142
:1031B000012CB0D1054B00225A71ACE7D7F80C2492
:1031C00002F001023270002BEAD1F3E7100E00206A
:1031D000044B1A7922B9012218609A80024870477C
:1031E00002487047100E00200000AD0B0C00AD0B24
:1031F00008B5074B1B682BB10020FEF719FF08B973
:10320000FEF7F4FE4FF080430022C3F8182508BDF6
:10321000100E002010B510B1012843D010BD4FF0A2
:103220008043D3F81814D3F81824C80321D502F02A
:103230000303012B04D013B10020FFF767FF002325
:103240004FF080420220C2F8183508224FF48273F2
:1032500003F180430021196002F180421C680124BF
:103260001460154A12680AB34FF08043C3F8040390
:10327000D4E7D3F81424D107E1D5D3F81C2492075E
:10328000DAD40D4A12681AB10222C3F80423C5E742
:10329000D3F80421002AFBD00022C3F80421D3F87C
:1032A0000431BBE700224FF48073D1E71A68002A8B
:1032B000FCD019601B68B1E7100E002010B54FF06C
:1032C0008043D3F800216AB10022C3F80021D3F86B
:1032D00000210122C3F80823114B587910B95A7103
:1032E0001B6898474FF08043D3F8042172B1002245
:1032F000C3F80421D3F80421D3F81824D3F81824F0
:10330000920704D10122C3F818259A6010BD022249
:10331000C3F80823024BBDE810401B680120184782
:10332000100E0020044AD2F80034DB07FBD5016000
:10333000BFF35F8F704700BF00E001404FF0805344
:103340001A69B0FBF2F302FB130373B9084B0222B4
:10335000C3F80425C3F80805D3F80024D207FBD529
:1033600000220448C3F8042570470348704700BF93
:1033700000E001400000AD0B0A00AD0B10B5054C9C
:103380000123C4F80435FFF7CDFF0023C4F804354A
:1033900010BD00BF00E0014010B5144CA822002170
:1033A000204602F069FA03232361114A6361114B3D
:1033B000A261E3614FF4806323620023A36263622E
:1033C000E36222660C4A62661022A2662367E36605
:1033D0006367BFF35F8F094A12F8011DE15401339F
:1033E000102BF9D1BFF35F8F10BD00BF180E002066
:1033F0007E690000EF0F0020DF0F002097690000BA
:1034000038B5094B53F82040013053F82050A542FD
:1034100000D838BD636823B1204602F089FC083427
:10342000F5E723689847FAE71861000008B5094BEB
:10343000012203201A70FFF7E3FFFEF7EDFB0420E3
:10344000FFF7DEFFFCF7C6FF034A137B23F00103FF
:10345000137308BDEF130020A000002008B5034837
:10346000034A0021121A02F07BFC08BD80000020F4
:10347000F013002008B50020FFF7C2FF184B83F3BC
:103480000888184C636943F4007363610025E023E6
:1034900084F82230E57725766576A57684F8205085
:1034A000636A43F4E023636284F82350FEF70EFD61
:1034B000FEF746FE4FF0FF33A362E362FEF7DAFE4B
:1034C000FEF762FE02F00EFC0120FFF799FF0220DA
:1034D000FFF796FF04482B462A462946FEF712FEC0
:1034E000401C002000ED00E02D34000008B5064827
:1034F000064A0749121A02F035FCBDE80840054AA1
:103500000549064802F02EBC000000208000002083
:103510009869000000000000986900000000002089
:10352000034B1B680BB9FFF7B5BB0020704700BF0A
:10353000C00E002030B570B10B4B5B6898420AD0CA
:10354000036843B1D3E90421D0E90445121941EBE2
:103550000501C3E90421D0E9003213605A60002359
:10356000C0E9003330BD00BF1400002010B50E4B81
:103570001C689C4204D1FFF7D3FF6FF0004010BDE0
:10358000FFF7CEFF002CF8D0D4E904321B1A62EB0F
:10359000E072B3F1004F72F10001EEDA002AACBF25
:1035A00018460020EBE700BF140000202DE9F84F7B
:1035B000EFF31186202383F31288BFF36F8FDFF8B8
:1035C000B4902A4D2A4C2860D9F800004FF0000A28
:1035D000484508BF00204FF0000BD4E9001E2B68BF
:1035E000374680B3D0E904864FEAE37C43457CEB61
:1035F000060206DAB8EB030266EB0C06C0E9042605
:1036000021E018EB01014EEBE873C0E904ABC4E91B
:103610000013FFF78FFF87F31188BFF36F8F836865
:103620009847EFF31187202383F31288BFF36F8F3E
:103630002B68D9F80000A3EB080348453E462B60F1
:10364000CBD1D4E9001E59184EEBE373C4E9001343
:1036500000242C60FFF78AFF2146FFF7EDFA87F37D
:103660001188BFF36F8FBDE8F88F00BFC00E002038
:10367000200100201400002010B50A4C23681BB163
:1036800001232360002010BD00F048F80028F7D087
:103690000138062803D8044B53F8200010BD034816
:1036A00010BD00BFC40E002030610000FE8FFFFF80
:1036B000BFF34F8F0549064BCA6802F4E06213431B
:1036C000CB60BFF34F8F00BFFDE700BF00ED00E010
:1036D0000400FA0510B40A4B0A490B4C4FF0FE32B5
:1036E000C3F800244968C3F80424C3F80824C3F8C5
:1036F0000C240023C4F800355DF8044B084700BFD4
:1037000000B002501C00002000A00250D0E90012BE
:10371000014BC3E9001270471C00002038B500F0CF
:103720002FF820B1032400F063F8204638BD00F0E4
:1037300031F898B900F0ACF898B90F4DD5F82839A0
:103740001B0EF02B08D1D5F8242A0C4B9A420AD034
:10375000072400F017F8E6E70624FAE704242046D9
:1037600038BD0024F5E7012000F092F80446002857
:10377000F7D1C5F80C0AD8E700B002500000E020ED
:103780000020704700207047014BC3F8040A7047BF
:1037900000B0025010B5114800F048F800B110BD5B
:1037A0000F4800F043F80028F9D10E4C204600F0F5
:1037B0003DF80028F3D10C4B0C481C6000F036F8A3
:1037C00001460028EBD100F02DF8044608B1204650
:1037D00010BD00F03FF82046FAE700BF340000209B
:1037E000300000202C0000202400002028000020B1
:1037F00008B5084800F024F8074800F021F8074809
:1038000000F01EF8064800F01BF8BDE8084000F084
:103810000BB800BF34000020300000202C00002036
:103820002800002000207047704700BF08B5034BF8
:1038300002681B6810689847002008BD4C000020F3
:1038400008B5034B02685B6810689847002008BD04
:103850004C00002070B5094C094D2069AB689847B1
:1038600018B1084B08485B689847084AEB6820691C
:1038700000211160BDE87040184700BF38000020EB
:103880004C0000201C0000204C610000C80E0020ED
:10389000F8B51A4D1A4E0446B26828699047E8B93F
:1038A000184F3B684CB1A3B1012B19D0013B3B60D1
:1038B0002869F36898470020F8BD43B9124A0121EE
:1038C000C2F800151149D1F81029002AFBD10133A3
:1038D0003B60F368286998470020F8BD0C48F8BDA4
:1038E0000A4AD2F81039002BFBD1074A6FF07E400C
:1038F000C2F80035FFF748FF3B68D7E738000020E3
:103900004C000020C80E002000A0025000B0025061
:10391000E98FFFFF10B5044650B1636813F0685F8C
:1039200005D0064A934202D000232360626010BD96
:10393000034B04485B689847EFE700BF2C5F5CA926
:103940001C0000206C610000C8B143680D4A93421E
:1039500013D013F0685F0ED0012350E8002F1946F2
:1039600040E8001C9CF0000FF7D1012AF5D0BFF30E
:103970005F8F0020704704487047044870476FF419
:10398000E04070472C5F5CA9E98FFFFFEA8FFFFFE3
:1039900080B14368094A93420AD013F0685F05D0AA
:1039A000BFF35F8F002303601846704704487047D9
:1039B000044870476FF4E040704700BF2C5F5CA97B
:1039C000E98FFFFFEA8FFFFF10B5044620B1044BDB
:1039D00063600022226010BD0248FFF77BFEF6E71D
:1039E0003A00003A9461000030B10268034B044889
:1039F0009A4208BF0020704702487047DD55AABBB5
:103A00008208F0007108F00038B50D460446B0B1E8
:103A1000A0220021043002F0C6F995B108222946FF
:103A200004F1640002F0C5F9082205F1200104F157
:103A3000840002F0BEF9044B2360002038BD034827
:103A4000FCE70348FAE700BFDD55AABB7108F000A8
:103A50008308F0002DE9F74305460E4699461146C6
:103A6000FFF7C2FF0446002840F08480002E00F0DB
:103A70008580002900F08480B9F1200F40F0828019
:103A800005F14404082205F10408204602F091F9EA
:103A900005F1240708223146404602F08AF906F172
:103AA00020010822384602F084F902A94FF4807000
:103AB00041F8049D02F071F9002865D1334A4FF4B2
:103AC00080731360012193600823314A00F02EFBBC
:103AD0000121084605232F4A00F028FB082342460F
:103AE00001211C2000F022FB08233A46012103207B
:103AF00000F01CFB224608230121022000F016FBE7
:103B00000823254A01211A2000F010FB0523234A2F
:103B100001211B2000F00AFB0823214A0121142067
:103B200000F004FB08231F4A0121152000F0FEFAD3
:103B3000082305F164020121162000F0F7FA08239A
:103B400005F184020121172000F0F0FA0823164A3B
:103B500001210B2000F0EAFA00F044FB0446019832
:103B600000F0D2FA114B002C18BF1C46A4212846A5
:103B700002F01BF9204603B0BDE8F0830C4CF9E7D6
:103B80000C4CF7E70C4CF5E7084CEFE790B002500F
:103B9000F861000070620000B86100005C62000023
:103BA0001C6200003C620000D86100008408F00044
:103BB0007608F0008008F0008108F0000C4BC26924
:103BC0001A60826943F8042C426943F8082C0269A0
:103BD00043F80C2CC26843F8102C826843F8142C6C
:103BE000426843F8182C026843F81C2C704700BF49
:103BF0005CB602500C4B1B68C3610C4B1B688361A5
:103C00000B4B1B6843610B4B1B6803610A4B1B6822
:103C1000C3600A4B1B688360094B1B684360094BF8
:103C20001B680360704700BF5CB6025058B6025074
:103C300054B6025050B602504CB6025048B602502C
:103C400044B6025040B6025030B10268034B0448FB
:103C50009A4208BF0020704702487047DD55AABB52
:103C60000202F0000002F00038B5044668B1051DFC
:103C70007021284602F099F828462022044902F0D3
:103C800090F8044B2360002038BD0348FCE700BFD8
:103C900084620000DD55AABB0002F0002DE9F0436C
:103CA000284B04460E4615460FCB85B06F4687E875
:103CB0000F002DB94FF00009484605B0BDE8F0836C
:103CC0002046FFF7C1FF81460028F5D1231D01934F
:103CD000636AA3BB236F8BB1C3F14008A84528BF1B
:103CE000A84604F1300031461844424602F059F823
:103CF000236F434446442367A5EB0805226F402AFF
:103D000006D104F13001384600F0AEFB00232367F2
:103D100005F03F0835F03F0505D031462A463846C4
:103D200000F0A2FB2E44B8F1000FC3D0424631464A
:103D300004F1300002F035F8C4F87080BCE7DFF819
:103D40000890B9E7C05F00000C02F0002DE9FF41C8
:103D5000144B04460E460FCB6F4687E80F002046F3
:103D6000FFF772FF8046B0B9CEB1636A251D019599
:103D70003BB901236362226F04F13001384600F041
:103D800073FB2B46043E243453F8042B12BAA3428F
:103D900046F8042FF8D1404604B0BDE8F081DFF8C2
:103DA0000880F8E7C05F00000502F000084B1B68C0
:103DB0001B0EF02B08D1074B1A68074B9A4205D10E
:103DC000064B00201860704705207047062070479A
:103DD00028B9025024BA02500000E0200CBA025068
:103DE000002230B549001346023840F6FC7502F156
:103DF000A05404F52C44A400904202F10102CABF71
:103E0000236025605B181E2AF1D1044A13600B441D
:103E10005360034B034A1A6030BD00BF78B00250B4
:103E200084B0025020F80F0030B51E4B85B01A4602
:103E3000196800910099CC07FAD500F1A05000F55F
:103E40002C408000016813680193019BD807FAD5C4
:103E5000154B164C1868164D1F30202390FBF3F0BD
:103E60000138002810DA00230130400153B1A0F1DD
:103E700020014FF00042134204D1013888424FEA3A
:103E80005202F8D105B030BD13680393039BDB07E2
:103E9000FAD5431823602B680293029B002BE3D1D1
:103EA0000138DEE7B4B00250ACB00250E4B00250CA
:103EB000DCB00250F0B51D6885B001F01F040DB9EB
:103EC0001F2C25D1154D2E462F680197019FFF0706
:103ED000FAD500F1A05000F52C408000006835684C
:103EE0000395039DED07FAD50D4D00EB6110286099
:103EF0000C48006802901F2C18BFC94302980FBFDE
:103F0000106001F01F0100FA01F111600021196039
:103F100010684300C00F136005B0F0BDB4B002508C
:103F2000E4B00250DCB002500C4B18603F3020F07F
:103F30003F008901403058609960D960196159612A
:103F400099611C330648196082B002680192019A97
:103F5000D207FAD5196002B0704700BF90B0025086
:103F6000B4B0025038B5A0F12003B3F5426F054656
:103F70002CD88F2826D800F1470300F16604DB0611
:103F80004FEA541400D0013464013F34A4090134D1
:103F900011B1A1421AD30C46E3004FF48050B0FB9C
:103FA000F3F0202828BF202002B11060084B012226
:103FB0001A602146FFF714FF28462146FFF7B4FF99
:103FC000002038BD00F11F046409DDE70148F8E76F
:103FD0001CB802502221F000F0B5454B89B01D46B7
:103FE0001C680194019CE407FAD5424BDFF80CE110
:103FF000DFF80CC113449B0000241A680B181E2B19
:1040000088BFC0F11E011F320B1852095343B3F58C
:10401000806F82BF4FF48061B1FBF2F1091A00F1A9
:10402000A05000F52C402746A14233DC2B680493B6
:10403000049BDB07FAD5304B1B682968059105996D
:10404000CF07FAD52D4C2E49236000231E469342FC
:1040500003F1010040D120F0010229481946002651
:104060008A423CD8296806910699CE07FAD5254997
:104070000968286807900798C007FAD5216020488A
:1040800000210C468B422DD11D4900209A422CD88C
:1040900009B0F0BD2B680293029BDB07FAD5031928
:1040A0009B001B682E680396039EF607FAD5CEF890
:1040B00000300023934203F1010306D1164623F09A
:1040C0000103B34204D80134AEE7CCF80070F1E745
:1040D000CCF800700136F4E70E600346B7E70660DF
:1040E0000131BDE704600131CCE708600133CDE761
:1040F000B4B0025024AC00147CB00250D4B00250D2
:10410000D8B0025078B0025008B540B1202801461E
:104110004FF0070228BF20210020FFF75DFF024B70
:1041200000221A6008BD00BF1CB80250F0B5294D2E
:1041300085B02C462E680096009EF607FAD500F151
:10414000A05000F52C40800005682068019001987F
:10415000C707FAD52048214F056002EB8306B2421B
:1041600029D15A1C1D4E22F0010200279A4227D85D
:1041700023680293029BDE07FAD5194B0B449B0080
:104180001B681F335B099A4213D22168039103997C
:10419000C907FAD5154400219B1A104A0560084644
:1041A0008B4210D85A1C0D4922F0010200209A427D
:1041B0000CD805B0F0BD52F804CBC7F800C0CEE76C
:1041C00037600133D2E710600131E9E7086001335D
:1041D000EDE700BFB4B00250D4B00250D8B00250E6
:1041E00024AC00142DE9F041814B1D689868203300
:1041F000A0B01E461A680192019AD707FAD57D4BE6
:104200007D4A1A6032680292029AD407FAD57B4A34
:104210001A607B4A1446116803910399C907FAD5BD
:10422000784A1168C1F3402137680497049FFF075B
:10423000FAD5754F1F6027680597059FFF07FAD5C8
:104240001768002900F0CF80B90540F1CC803168B3
:1042500006910699CF07FAD56C4919602168079134
:104260000799C907FAD51168C1F340213768089743
:10427000089FFF07FAD5664F1F6027680997099FB7
:10428000FF07FAD51268002900F0AF80910540F1D0
:10429000AC8032680A920A9AD207FAD5564A1A6056
:1042A00032680B920B9AD707FAD55A4A1A603168CE
:1042B0000C910C99CC07FAD55749196031680D91CA
:1042C0000D99C907FAD55549196031680E910E99B3
:1042D000CF07FAD55249196031680F910F99CC0771
:1042E000FAD550491960504B1E4619681091109923
:1042F000C907FAD53F4C4D4B236033681193119B8E
:10430000DB07FAD54A4B236033681293129BDF0711
:10431000FAD5484B23603A4B984619681391139984
:10432000C907FAD5324F386033681493149BDB0702
:10433000FAD5226033681593159BD807FAD53E4B02
:10434000236033681693169BD907FAD53B4B23603D
:1043500033681793179BDA07FAD5394B2360336814
:104360001893189BDB07FAD5364B236033681993F3
:10437000199BD807FAD5344B236033681A931A9BDC
:10438000D907FAD5314B236033681B931B9BDA079F
:10439000FAD52F4B236000F01DFC08BBD8F8003085
:1043A0001C931C9BDB07F9D53D6033681D931D9B57
:1043B000D907FAD5274B236033681E931E9BDA0773
:1043C000FAD5254B2360D8F800301F931F9BDB07DD
:1043D000F9D50C4B1B6813F4805F204B08BF1846BF
:1043E00020B0BDE8F0811E48FAE71E48F8E700BF9C
:1043F00090B0025080B0025000100251C01F7229CC
:10440000B4B0025088B00250C0CF0129C01F0E299D
:10441000C03F002940010249003184A8000016492C
:10442000400108A180440888B0B00250C0447088A0
:1044300080077A41C0077E4100006A49800616491C
:1044400040006E490002002100822021408220218C
:104450008082242140A161A100C861510308F100BC
:104460000108F1000208F1002DE9F74F314B4468D3
:104470008046924699461A68002AFCD12E4B9B46EC
:104480001A68002AFCD14FF0FF30019100F094FC33
:10449000802000F097FC294D294A2A4F2A4E0123FB
:1044A00007202B60A2F59E72C2F83C011360636A7C
:1044B0003B60A36A3360D8F8003042F8043CD8F877
:1044C0000830204698470199D9F80030002BFBD1DD
:1044D000BAF1000F20D11D4B04221A60D9F8003028
:1044E000002BFBD1DBF800A0BAF1000FFAD1D8F80D
:1044F0000C30204698473B6863623368A362144BD4
:10450000C3F800A0C3F844A1D9F80030002BFBD1B8
:104510002B6003B0BDE8F08F236A012B04BF0C4A67
:1045200013600C4B40201960C3F804A000F050FC4D
:10453000D4E700BF10B9025020BC025018B8025096
:1045400000B90250CCB70250D0B70250C8B70250E1
:1045500084B6025028BC025010B5544B98B019468E
:104560001A680192019AD207FAD5514B514A1A6042
:104570000A680292029AD407FAD54F4A1A600A686A
:104580000392039AD007FAD54C4818600A6804923F
:10459000049AD207FAD54A4A1A600A680592059A1F
:1045A000D407FAD5474A1A600A680692069AD207D3
:1045B000FAD5454A1A600A680792079AD407FAD5CD
:1045C000424A1A600A680892089AD207FAD5404A05
:1045D0001A600A680992099AD407FAD53D4A1A6006
:1045E0000A680A920A9AD207FAD53B4A1A600A6800
:1045F0000B920B9AD407FAD5384A1A600A680C92C3
:104600000C9AD207FAD5364A1A600A680D920D9AAA
:10461000D407FAD5334A1A600A680E920E9AD20766
:10462000FAD5314A1A600A680F920F9AD407FAD560
:104630002E4A1A600A681092109AD207FAD52C4AAC
:104640001A601A4B19461C681194119CE407FAD59C
:10465000174B1860086812901298C407FAD51A60B0
:104660000A681392139AD007FAD5124A1A600A6898
:104670001492149AD207FAD51E4A1A600A68159243
:10468000159AD407FAD51C4A1A600A681692169A27
:10469000D007FAD5194A1A600A681792179AD207F2
:1046A000FAD5174A1A6018B010BD00BFB0B002505A
:1046B00080B00250009365210004319040966590CF
:1046C0000083612100C3302100C3649000816190A8
:1046D00000461021008111210041442100C32029FE
:1046E0000C4610C80086312100C3602140C1282932
:1046F000409665210013319040962529594614C8EB
:104700004004324910B5494B94B019461A680092DA
:10471000009AD207FAD5464B464A1A600A680192B7
:10472000019AD407FAD5444A1A600A680292029A9A
:10473000D007FAD5414818600A680392039AD20755
:10474000FAD53F4A1A600A680492049AD407FAD547
:104750003C4A1A600A680592059AD207FAD53A4A85
:104760001A600A680692069AD407FAD5374A1A6080
:104770000A680792079AD207FAD5354A1A600A687A
:104780000892089AD407FAD5324A1A600A68099240
:10479000099AD207FAD5304A1A600A680A920A9A28
:1047A000D407FAD52D4A1A600A680B920B9AD207E1
:1047B000FAD52B4A1A600A680C920C9AD407FAD5DB
:1047C000284A1A600A680D920D9AD207FAD5264A2D
:1047D0001A600A680E920E9AD407FAD5234A1A6014
:1047E0000A680F920F9AD207FAD5214A1A600F4B26
:1047F00019461C681094109CE407FAD50C4B1860FD
:10480000086811901198C407FAD51A600A681292C4
:10481000129AD007FAD5174A1A600A681392139AA7
:10482000D207FAD5144A1A6014B010BDB0B00250C5
:1048300080B00250809065210004099040966590F8
:104840008080612180200821802064900081619017
:10485000004610210081112100414421802020299F
:10486000024610C8008609218020602140212829A5
:104870004096652140962529594614C810B5504BDD
:1048800096B01C461A680192019AD207FAD54D4B90
:104890004D4A1A6022680292029AD207FAD54B4A10
:1048A0001A604B4A42EA804022680392039AD20778
:1048B000FAD5186022680492049AD007FAD5454ABE
:1048C0001A60A2F5800242EA814122680592059AA7
:1048D000D207FAD5196022680692069AD007FAD54F
:1048E0003D4A1A6022680792079AD107FAD53B4AD7
:1048F0001A6022680892089AD207FAD5384A1A60D4
:1049000022680992099AD007FAD5364A1A602268B5
:104910000A920A9AD107FAD5334A1A6022680B9292
:104920000B9AD207FAD5314A1A6022680C920C9A77
:10493000D007FAD52E4A1A6022680D920D9AD10737
:10494000FAD52C4A1A6022680E920E9AD207FAD52E
:10495000294A1A6022680F920F9AD007FAD5274A7F
:104960001A60216810911099C907FAD51A60144B82
:104970001A46196811911199C807FAD5114B2049A7
:104980001960116812911299C907FAD51D49196069
:10499000116813911399CC07FAD50B491960116866
:1049A00014911499C807FAD517491960116815911F
:1049B0001599C907FAD5154A1A6016B010BD00BF7F
:1049C000B0B0025080B002504004419000862929C6
:1049D000D81001C840144190401421294014652189
:1049E0000034409000310C90C0400C90C030202921
:1049F00040960D9000416090031645C80086112135
:104A000000416021594644C84014459040142D90FF
:104A100070B5264888B0054604680094009CE607F7
:104A2000FAD52348234C0460234C44EA83432C6882
:104A30000194019CE407FAD50360930143EA8242A2
:104A400042F0104444F4C0442B680293029BDE07FA
:104A5000FAD504602B680393039BDB07FAD5174B49
:104A600003608B0143EA814141F0104343F4C043AA
:104A70002E680496049EF607FAD503602B6805930A
:104A8000059BDE07FAD5046041F058412B68069378
:104A9000069BDC07FAD5016042F058422B68079369
:104AA000079BDB07FAD5026008B070BDB0B00250BA
:104AB00080B00250C0210229807100988061189056
:104AC000354B8EB019461A680092009AD207FAD573
:104AD000324B334A1A600A680192019AD007FAD51C
:104AE000304A1A600A680292029AD207FAD52E4A10
:104AF0001A600A680392039AD007FAD52B4A1A6003
:104B00000A680492049AD207FAD5294A1A600A68F8
:104B10000592059AD007FAD5264A1A600A680692C5
:104B2000069AD207FAD5244A1A600A680792079AA9
:104B3000D007FAD5214A1A600A680892089AD20763
:104B4000FAD51F4A1A600A680992099AD007FAD55D
:104B50001C4A1A600A680A920A9AD207FAD51A4AB7
:104B60001A6008680B900B98C007FAD51A600A689B
:104B70000C920C9AD007FAD5144A1A600A680D9262
:104B80000D9AD207FAD5124A1A600E210D230F2270
:104B900000200EB0FFF73CBFB0B0025080B0025012
:104BA00080430129406339218070012980205421EC
:104BB00000D13490C0403490C0302029C0530D90B3
:104BC00000413890832308C880E310210041382138
:104BD000CF4308C82DE9F041012392B0CDE903335A
:104BE000624B1D461A680592059AD207FAD5604CA9
:104BF000604B2360604B19461A680692069AD707E5
:104C0000FAD55E4B1A68D60400F1A8802A6807928C
:104C1000079AD007FAD55A4A22600A680892089A79
:104C2000D207FAD51E68C6F30036002E40F09880F1
:104C30001220FFF7F9F807461320FFF7F5F887422F
:104C40008CBF12201320FFF7EFF8471EFFF738FF45
:104C500003AB01AA39461220FFF72CF904AB8046BA
:104C600002AA39461320FFF725F900EB4800022875
:104C700032D003283ED0012874D12B680993099BB8
:104C8000DB07FAD53F4B23602B680A930A9BD807B2
:104C9000FAD53D4B23602B680F930F9BD907FAD5AC
:104CA0003A4B23602B681093109BDA07FAD5384BE8
:104CB00023602B681193119BDB07FAD5354B2360DA
:104CC000013F25D51023192218210020FFF7A0FE4F
:104CD000304612B0BDE8F0812B680B930B9BD907CF
:104CE000FAD52D4B23602B680C930C9BDA07FAD571
:104CF0002A4BCFE72B680D930D9BDB07FAD5284B8A
:104D000023602B680E930E9BD807FAD5254BC1E77D
:104D100003AB01AA39461220FFF7CCF804AB0446D6
:104D200002AA39461320FFF7C5F810EB440402D15C
:104D3000FFF712FCC4E7FFF7E5FC022C08D0032CB8
:104D400009D0012C10D117211620FFF797FDB7E7E6
:104D500015211420F9E70F210E20F6E7124EB7E7D0
:104D6000124EB5E7124EB3E7124EB1E7B0B00250A3
:104D700080B0025000084A51B4B0025088B00250CE
:104D800000084E5100065A4940065E49000442415F
:104D90000014424940042E49000652494006564933
:104DA00000063A4940063E490608F1000708F100AE
:104DB0000408F1000508F100014B1860704700BFBE
:104DC00008BA0250014B1860704700BF04BA025085
:104DD000034A13681842FCD0024A10601846704714
:104DE00000BA025008BA025070470020704730B530
:104DF00083688B4285B0044615460ED96368C06847
:104E0000194401AA00F014FE28B96268019B9B1A9C
:104E10002B60029B6B6005B030BD6FF02100FAE79C
:104E200070472DE9F7430E4617469946044628B9C0
:104E30004FF0FF38404603B0BDE8F0830029F7D0BB
:104E4000002AF5D0CB680D891D4404230DEB030225
:104E50002946384600F038FC80460028E8D1BDF8E5
:104E60000410738946F60812914225D1BDF8061048
:104E70009942DDD104230DEB03022944384600F0AA
:104E800023FC0028D4D1BDF8042046F607139A422B
:104E9000CED1C4E900679DF82830A4F80890A37229
:104EA0007389BDF806202B44E360738913442B44B7
:104EB000043563612561BDE7002BE4D0B8E72DE937
:104EC000F3410E4617461D46044620B94FF0FF3009
:104ED00002B0BDE8F0810368002BF7D04368002BD7
:104EE000F4D04FF6FF78D4E904239A4216D223680F
:104EF0005B8923B1E368934204BF04332361042335
:104F0000216960680DEB030200F0DEFB0028DDD1B3
:104F1000A37A2BB1D4E903329A4201D30120D7E717
:104F20002389BDF80610434501F1040203D0BDF802
:104F300004C09C450BD115B1BDF804302B8023690A
:104F4000043333603980236913442361C0E7236944
:104F500013442361C7E748B103683BB143682BB1F1
:104F6000C068884294BF0020012070474FF0FF3096
:104F7000704773B50C4606461146022301AA204627
:104F800000F01FFA0546E8B9019A1F2A0ED92368D6
:104F9000A2F1200119442022304600F062FC23686F
:104FA000019A13442360284602B070BD0146C2F145
:104FB0002002304600F060FC019A2168C2F1200016
:104FC0003044EAE76FF00205EDE700F03ABC4FF439
:104FD000C07358433030704710B5044600F0B4FB3E
:104FE000A3684FF4C072303B02FB103010BD70B5A7
:104FF0000D46044600F0A5FD2A46A0F10801042351
:105000002046BDE8704000F05FBB13B50446019137
:1050100000F097FD0423A0F108010DEB03022046E8
:1050200000F0D2FD02B010BD70B513460E46154615
:10503000002102460446FBF7E1FE50B92B4604F17D
:105040002C0201212046FBF7D9FE10B1002E08BF2B
:10505000002070BD73B5044600200D461646FBF7D0
:1050600039FA6946C0B2FCF77FFD30BB2C2303FB45
:1050700005440098E36825891D4404230DEB0302D1
:10508000294600F021FBC0B9BDF8042064890098CE
:1050900046F608139A4215D1BDF806309C420CD151
:1050A00004230DEB0302611900F00EFB28B9BDF8D3
:1050B000042046F607139A4207D0009800F003FB3D
:1050C00002B070BD002CF2D0F7E7BDF80610214405
:1050D00029443160F1E737B50446426A802501A9C9
:1050E00002200195FCF768FD58B9019B226DA3626F
:1050F00001A905200195FCF75FFD054628B10925AA
:1051000000E00125284603B030BD019B206A63659D
:1051100000F01AFBE065F5E70123036003F10123CA
:1051200043600023C0E9023370474379012B07D164
:105130000368012B04D10079431E5842584170473F
:10514000002070477FB506460D46022001A9FCF7F6
:105150000BFD38BB0198FFF73FFFF16D0446284671
:1051600000F0D0F80444019800F0EEFA06460198E9
:1051700000F0F1FA082201460DEB020000F07CFB82
:105180002B798DF8083021460198334602AA00F0A9
:10519000B0FA041E019818BF012400F094FA2046CA
:1051A00004B070BD0124FAE700F0B8BA2DE9F84365
:1051B0000E46002107460846FBF78CF901210446FC
:1051C0000020FBF787F933789C4221D0984221D107
:1051D00001252C2303FB0575F86DAC6AFFF7F7FE7C
:1051E000013C07464FF000086B6A03EBC40253F81A
:1051F0003410D2F804901B684A46C91A3046C84495
:10520000FFF7D2FFB84504F1FF34EDD3BDE8F883D2
:105210000025DEE70120F9E737B515460C460520E5
:10522000694600F014FDE979012903D000222046E7
:1052300000F021FD9DF80330012B02D1204600F043
:10524000F9FCA9682046FFF7E0FE2046FDF762FD65
:10525000002003B030BD73B50D460646FBF7D4FE03
:105260000446E86050B302282DD101A9FCF77CFC6C
:1052700058BB01982A463146FBF726FE0446D0B9B2
:10528000019800F05EFC012301460DF10302019834
:1052900000F01AFA0446A0B9019801220DF10301A9
:1052A00000F063FC10B101238DF803309DF803304A
:1052B00003F00F03EB71019800F005FA204602B0ED
:1052C00070BD0124F7E70724F8E70124F6E738B5B5
:1052D000436A0446C06D5D68FFF779FE0246A06A26
:1052E000002301382B449A4201D90138FAE738BD2E
:1052F000436A00205A68034613448B4200F10100C0
:10530000FAD3704710B543790279012B14BFCB0152
:10531000002302F1FF3201FB0233026814BF4C008C
:105320000C46013A04FB023010BD70B50368CD1A7B
:10533000002D02DC6FF05F0070BD93F900601C78F7
:10534000002E0ADB5C1C04601B7813600368C91A1A
:1053500013688B42EED80020EEE704F07F04013C96
:10536000032C2BD8DFE804F0020A1421012DE1D030
:105370005B781360036802330360E7E7022DD9DD31
:10538000B3F801305BBA9BB2136003680333F3E7F1
:10539000032DCFDD9C785D78DB78240244EA054458
:1053A0002343136003680433E6E7042DC2DDD3F81A
:1053B00001301BBA136003680533DDE76FF063004B
:1053C000BAE770B404680E1B002E07DD26789E42F3
:1053D00008D10134046070BCFFF7A7BF6FF05F0015
:1053E00070BC70476FF06100FAE738B503230446DC
:1053F000FFF7E7FF18B9136813B96FF0670038BDFE
:10540000013B136023681A78002AF6D10133236028
:10541000F5E72DE9F34190461F4601AA30230546E2
:105420000E46FFF7CEFF0446F0B92B68F61A002EA1
:1054300034DD42461B7842F8043B019B2E681E4433
:10544000314606232846FFF7BCFF044660B92B68A7
:10545000D8F80420C8F808309918B142296007D15B
:105460000C213846FBF77AFF204602B0BDE8F081F8
:105470009B5C3A46314642F8043B2B6801332B6073
:105480002846FFF752FF60B92B687A68BB60134467
:10549000B3422B6018BF6FF06504E5E76FF05F045F
:1054A000E2E70446E0E7F8B5B1F1005F00AF05467A
:1054B000144610D2D31D23F007036E46ADEB030D47
:1054C000684600F0CEF9694622462846FEF7E6FB1C
:1054D000B546BD46F8BDFEF7E1FBFAE70020704790
:1054E0000FB407B504A951F8040B0191FBF7F8FFBD
:1054F00003B05DF804EB04B07047038B13F00703AF
:1055000005D10368002B0CBF002003207047022B3D
:1055100005D1408BB0FA80F0400980007047012B24
:1055200005D10368002B0CBF002005207047002028
:10553000704710B50C4600B111B96FF0150010BDE1
:10554000081D00F094F80028F9D1A368032BF6D9C0
:10555000F3E72DE9F0410D4607461946281D904610
:105560001E4600F095F8044638B1334642462946B7
:105570003846A446BDE8F0416047BDE8F08110B46C
:10558000EFF31182202484F31288BFF36F8F4161FF
:105590005DF8044B0121FCF7D3B938B50C4605463C
:1055A00058B151B10B6843B14B6833B11C22002193
:1055B00000F062F92C61002038BD6FF01500FBE7A8
:1055C00070B505460E46FFF7B4FF041E14DBEFF37B
:1055D0001182202383F31288BFF36F8F6B8B2C8B88
:1055E0004FF6FF718B4204F0070407D182F3118854
:1055F000BFF36F8F6FF00A04204670BD022C0CD1F0
:1056000001336B8382F31188BFF36F8F002322462F
:1056100031462846FFF79DFFEEE7062C14D8DFE859
:1056200004F004131313041A0400002333606B689E
:105630003BB9C5E90066ACB902212846FCF780F900
:10564000DAE71E606E60F6E782F31188BFF36F8FB2
:105650006FF00404D0E782F31188BFF36F8F6FF00F
:105660008504C9E782F31188BFF36F8FC4E703464F
:1056700058B1426802F00302012A03D0032A04D180
:10568000026812B10020986070476FF015007047F3
:105690004268816002F00302032A4FF000020346D1
:1056A0000CBF006810465A60704770470FB407B5CA
:1056B00004A951F8040B0191FBF712FF03B05DF848
:1056C00004EB04B070477047002930B40446184614
:1056D0000BDBA5680844A84207D8E0686468214449
:1056E00084682468A44630BC60476FF0150030BC65
:1056F0007047002930B4044618460BDBA5680844FF
:10570000A84207D8E0686468214484686468A446B5
:1057100030BC60476FF0150030BC7047002903466D
:1057200010B410460BDB9C680844A04207D8D86828
:105730005B68194483685DF8044B9B6818476FF0F9
:1057400015005DF8044B704708B5C0688368DB68D6
:105750009847006808BD08B5C0688368DB6898474B
:10576000007908BD70B54C680368A34201D20120DE
:1057700070BD8A682244934201D30020F8E7D1E942
:1057800003254E69B54203D36FF00B038B61F4E739
:105790001B1B42F835304368086902EBC0025360B6
:1057A0000B6901330B61E2E7FEE77047012801D185
:1057B000EFF3058300F0ADBA01460068FFF7F6BFCE
:1057C00008B5FCF741FABDE8084000F000B87047A2
:1057D00000210120FFF7EABF61B662B680F31188AD
:1057E000BFF36F8F7047EFF31180202383F312888C
:1057F000BFF36F8F704772B6002383F31188BFF336
:105800006F8FBFF34F8F20BF80F31188BFF36F8F6F
:1058100062B67047202809D9B0F1004F08D8013886
:10582000B0FA80F0C0F11F004000704708207047B8
:105830003E207047034600201A5C02B970470130D1
:10584000FAE710B55AB10139841810F8012B11F894
:10585000013FA04201D09A42F7D0D01A10BD1046A5
:10586000FCE710B5431E0A44914200D110BD11F867
:10587000014B03F8014FF7E7C9B2024403469342D4
:1058800000D1704703F8011BF9E70369C9B20C2284
:1058900001FB0233186C00F00700704770B5C9B205
:1058A0000369EFF31185202484F31288BFF36F8F0F
:1058B0000C2606FB0134246C14F0C00408D0A2426C
:1058C00006D085F31188BFF36F8F4FF0FF3070BDA6
:1058D00071430B4401221A6485F31188BFF36F8F63
:1058E00043680B445B6898470020F0E78022FFF78D
:1058F000D5BFF8B5069F0469C9B2EFF3118620251C
:1059000085F31288BFF36F8F0C2569430C44256C17
:1059100005F0070CBCF1010F0BD1276486F3118849
:10592000BFF36F8FC4E90E2343685B58984700208C
:10593000F8BD05F0C005AF4286F31188BFF36F8F45
:105940000CBF6FF077004FF0FF30F1E713B5802404
:105950000094FFF7CEFF02B010BD6FF085007047D6
:1059600010B40069CBB21C2403FB040000215DF8D5
:10597000044B10470020FDF74DBC002000F097B904
:1059800038B505460C4600F094F9002D07DBA84217
:1059900005D9401B84428CBF0020012038BD002067
:1059A000FCE770B50D462846194616461C46FFF71B
:1059B000E7FF38B124B1224629463046FFF751FFB0
:1059C000002070BD6FF01500FBE72DE9F3411C4688
:1059D0009046002382682360A36013690D4601AAE4
:1059E00069469847019B5A1E019223B96FF0150032
:1059F00002B0BDE8F0810098A2684768216867603E
:105A000085B9A8EB02030668B34228BF33461A449F
:105A100003FB07112160A26002689A4206D8083091
:105A20000090DFE76B1AB3FBF7F3ECE70020DFE74A
:105A300013460022FFF7C9BF2DE9F047836886B0FF
:105A40001B698846914601A902AA98470024A246EC
:105A50002546029BAB4202D806B0BDE8F087019F05
:105A600007EBC50700267B6804933A68B2420AEB4D
:105A7000060302D801359A46EBE70394059349469D
:105A800003A8C0470028E7D0049B01361C44ECE77C
:105A900000F150039B009BB203F1804303F5883370
:105AA00000221A601B68704773B5054601A80C46B2
:105AB0001646FDF711F970BB4FF080531969B5FB1D
:105AC000F1F201FB125242BB1969B4FBF1F201FB86
:105AD000124212BB1A695B695343A3421DD3E4B15E
